:020000040800F2
:10000000403B0020010100080901000825200008EC
:100010000D0100080F010008110100080000000098
:1000200000000000000000000000000013010008B4
:10003000150100080000000017010008093F000832
:100040001B0100081B0100081B0100081B01000820
:100050001B0100081B0100081B0100081B01000810
:100060001B0100081B0100081B0100081B01000800
:100070001B0100081B0100081B0100081B010008F0
:100080001B0100081B0100081B0100081B010008E0
:100090001B0100081B0100081B0100081B010008D0
:1000A0001B0100081B0100081B0100081B010008C0
:1000B0001B0100081B0100081B0100081B010008B0
:1000C0001B0100081B0100081B0100081B010008A0
:1000D0001B010008A1400008C9410008894200082E
:1000E0001B0100081B0100081B010008DFF80CD0F1
:1000F00000F08EFD004800474D520008403B0020B4
:100100000648804706480047FEE7FEE7FEE7FEE7B1
:10011000FEE7FEE7FEE7FEE7FEE7FEE7993F0008A1
:10012000ED00000840EA01039B0703D009E008C97D
:10013000121F08C0042AFAD203E011F8013B00F8AC
:10014000013B521EF9D27047D2B201E000F8012BF8
:10015000491EFBD270470022F6E710B513460A4647
:1001600004461946FFF7F0FF204610BD30B505469E
:100170002A460B4612F8010B13F8014B08B1A042B6
:10018000F8D01CB1002802D06D1CF1E7284630BD24
:1001900030B504460020034600E05B1C934203D2C6
:1001A000E05CCD5C401BF8D030BD70B5064604F075
:1001B00089F9046805460A220021304600F0E8FB70
:1001C0002C6070BDF0B480EA0102D40F4200B2EBA3
:1001D000410F02D20246084611464A0042D0C30DE2
:1001E000DDB2C1F3C752AD1A202D35DAC1F31601C5
:1001F00041F4000204B15242C5F1200602FA06F1B0
:100200002A411044B3EBD05F23D0C4B1012DA0EB41
:10021000C35009DCF0BC4FF0004202EAC352DBB22B
:1002200000F5000000F0F5BB400000F1807000EB2D
:10023000C350A0F1807040EAD170490009E049083C
:1002400041EAC071A0EBC35000F50000400800EB8C
:10025000C350F0BC00F0D4BB6142012202EB41016B
:10026000001BF6E7F0BC704781F00041AAE780F080
:100270000040A7E780EA010210B502F00043400009
:1002800022D04A001FD0010E01EB1261C0F35600CC
:10029000C2F3560240F4000042F40002A0FB022028
:1002A00000047F39140400D0401C50EA124001D4ED
:1002B0004000491EC2B20C0604EBD010401C40089E
:1002C000802A02D003E0002010BD20F001000029A8
:1002D00000DA0020184310BD30B480EA010202F0B9
:1002E000004530F0004221F0004013D090B1C30D22
:1002F000D40DC2F31601C0F31600E41A41F4000154
:1003000040F400027D34914201D3641C00E04900B6
:10031000002C02DA30BC002070474FF400000023AC
:10032000914201D3891A034340084FEA4101F7D1B2
:1003300051B1914202D14FF0004105E002D24FF09D
:10034000010101E06FF0010103EBC450284430BC0F
:1003500000F056BB2DE9FE4F804681EA0300C00F36
:100360000C46009021F0004123F00045B8EB02005C
:10037000A94105D24046214690461C460B460246FE
:1003800023F00040104347D0270DC7F30A00C3F302
:100390000A510290401A019040286BDAC3F313000F
:1003A00040F4801B0098924620B10023D2EB030A50
:1003B00063EB0B0B01985946C0F14002504600F028
:1003C00068FA06460D4650465946019A00F080FAF2
:1003D00010EB08006141002487EA115284EAE773B8
:1003E0001A4340D0009A62B3019A012A4FEA075299
:1003F00015DC001B61EB02014FF0004202EA0752DC
:10040000CDE90042001C41F5801132462B4600F038
:100410003DFB03B0BDE8F08F40462146F9E7001BE5
:1004200061EB0201001C41F5801300185B412018AC
:10043000A2F5001747EB030140EAD570B6196D41EC
:1004400011E06D084FEA360645EAC0754FEA0752DB
:10045000001B61EB0201001C41F5801149084FEAC5
:1004600030000019514132462B4603B0BDE8F04F31
:1004700000F0FDBA0098012240000023D0EB0202F8
:1004800063EBE073009821464FEAE074B8EB00009C
:1004900061EB0401E9E783F000435BE781F0004191
:1004A00058E72DE9FE4F81EA030404F0004421F0EF
:1004B000004100944FF0000B23F0004350EA010488
:1004C0005ED052EA03045BD0C3F30A54C1F30A5569
:1004D0002C44A4F2F3340194A0FB0254C1F31301A1
:1004E00041F48011C3F3130343F4801301FB02446E
:1004F00000FB034E840A970A44EA815447EA835773
:10050000A4FB076802958D0A05FB07854FEA932C2B
:1005100004FB0C542705029D4FEA065847EA16379C
:10052000B5EB08056EEB070C870E920E47EA8117B4
:1005300042EA8312A7FB0201B6EB0B0164EB000455
:100540002B0D43EA0C335E1844EB1C50DA4651463F
:10055000E7FB0201C5F313044FEA0B3343EA1453DC
:100560004FEA0432019C43EA0603A4F10C0402940E
:10057000009CCDE900B400F089FA03B0BDE8F08F2B
:1005800000200146F9E72DE9F04D81EA030404F06B
:10059000004B21F0004514464FF0000A23F00041C3
:1005A00050EA050220D054EA01021DD0C5F30A57D3
:1005B0000246C5F31303C1F31300C1F30A5640F416
:1005C000801543F48013A7EB0608101BD64608F2EB
:1005D000FD3873EB050002D308F1010801E0921821
:1005E0005B41B8F1000F03DA00200146BDE8F08D51
:1005F00000204FF48011064684460EE0171B73EB73
:10060000050705D3121B63EB050306434CEA010CF7
:1006100049084FEA300092185B4150EA0107EDD1DA
:1006200052EA030012D082EA040083EA050108437B
:1006300005D0101BAB4106D20122002306E00022A8
:100640004FF0004302E06FF0010253101AEB060076
:100650004CEB085110EB0A0041EB0B01BDE8F04DEB
:1006600000F005BA96230022114600F0D2B90EB56B
:10067000C10F80EAE0700844CA07002140F233430A
:100680008DE80E000A460B4600F000FA03B000BDEC
:100690000EB540F2334102910021CDE900110A4626
:1006A0000B4600F0F3F903B000BD00F0004220F06B
:1006B0000040C10DC0F3160040F400007F2901DAAC
:1006C00000207047962903DCC1F19601C84001E083
:1006D00096398840002AF4D04042704720F000400C
:1006E000C10DC0F3160040F400007F2901DA00209C
:1006F0007047962903DCC1F19601C84070479639CE
:100700008840704770B5C1F30A5201F000450024DB
:10071000C1F3130140F2FF3341F480119A4201DA30
:10072000002070BD40F233439A42A2F2334203DC10
:10073000524200F0BDF800E090402C43F1D040421E
:1007400070BDC1F30A5210B5C1F3130140F2FF337B
:1007500041F480119A4201DA002010BD40F2334387
:100760009A42A2F2334203DC524200F0A1F810BDDB
:10077000904010BD00F0004230F000400AD0C10DA2
:1007800001F56071C0F3160042EA0151C20840074A
:1007900011437047002001467047000030B5041E29
:1007A00071F1000404DB4FF00044404264EB0101AE
:1007B000141E73F1000405DB1C464FF00043524247
:1007C00063EB04038B4208BF824230BD01F000435B
:1007D00030B421F0004150EA010206D00A0DA2F522
:1007E0006072C1F31301002A02DC30BC00207047A4
:1007F000440F44EAC104C100E01830BC00EBC25011
:1008000000F0FEB830B50B4601460020202201243E
:1008100009E021FA02F59D4205D303FA02F5491BCE
:1008200004FA02F52844151EA2F10102F1DC30BDE4
:100830002DE9F05F0546002092469B468846064615
:10084000814640241BE0284641464746224600F0A8
:100850002FF853465A46C01A914110D311461846F4
:10086000224600F016F82D1A67EB01084F46224683
:100870000120002100F00DF817EB00094E41201E69
:10088000A4F10104DFDC484631462A464346BDE870
:10089000F09F202A04DB203A00FA02F10020704782
:1008A0009140C2F1200320FA03F3194390407047AE
:1008B000202A04DB203A21FA02F00021704721FAB5
:1008C00002F3D040C2F1200291400843194670471C
:1008D000202A06DBCB17203A41FA02F043EAE07304
:1008E00006E041FA02F3D040C2F1200291400843F1
:1008F000194670470FB4002300B589B00CA90091C8
:100900000B996FF00042CB601E4B06931E4B079372
:100910000423CDE901321D4A089202466B460020AD
:1009200000F016FA09B05DF814FB70B586B0064603
:100930004FF0FF300091CDE90101002015460C4633
:1009400004903246694604A8FFF7D4FF0346049892
:10095000211825B108B10A4600E022462A60002885
:100960000DD0002B02DD0098884208D0081B0094AF
:10097000CDE901043246694604A8FFF7BBFF06B083
:1009800070BD0000890F0008A70F00083D0C00088B
:100990002DE9F04791460F4680460446002614F89C
:1009A000015B2DB100F046F90068405DC007F6D14B
:1009B0002B2D02D02D2D18D0641E4A4639462046D4
:1009C00000F002FB27B13968A14201D1C7F80080CD
:1009D00071054FF002040BD54042002803DD03F0FF
:1009E00071FD0460A007BDE8F08746F48066E4E787
:1009F0000028F8DA03F066FD04606FF00040F2E7CB
:100A00000029A8BF7047401C490008BF20F0010022
:100A1000704710B4B0FA80FC00FA0CF050EA010400
:100A200004BF10BC704749B1CCF1200421FA04F492
:100A300011FA0CF118BF012121430843A3EB0C016B
:100A4000CB1D4FEA00614FEA102042BF002010BCCE
:100A5000704700EBC35010440029A4BF10BC70477E
:100A6000401C490008BF20F0010010BC704710B5C1
:100A7000141E73F1000408DA401C41F100019218C1
:100A80005B411A4301D120F0010010BD2DE9F04D6A
:100A900092469B4611B1B1FA81F202E0B0FA80F2BF
:100AA00020329046FFF7F5FE04460F4640EA0A0062
:100AB00041EA0B0153465A46084313D0114653EA04
:100AC000010019D0C8F140025046FFF7F1FE05467B
:100AD0000E46504659464246FFF7DBFE084305D016
:100AE000012004E020463946BDE8F08D0020054392
:100AF00046EAE0762C4337430A986305E40AA0EB04
:100B000008000022FD0A44EA47540A3002D50020BA
:100B10000146E9E7010510196941DDE908450019B9
:100B20006941BDE8F04DA2E72DE9F041054621F00D
:100B300000400C46284309D0C4F30A5040F2334128
:100B4000884205DD28462146BDE8F0812846FBE7BE
:100B500040F2FE31884210DC0CDB4FEA043040EA00
:100B6000155050EA053105D0104804F0004101430A
:100B70000020E9E700200146E6E7A0F233404642C4
:100B8000C6F1400228462146FFF783FE0746884605
:100B9000284621463246FFF78BFE43463A46FFF78A
:100BA00066FF3246BDE8F041FFF773BE0000F03F3C
:100BB000C1F30A52C1F3130140F2FF3341F4801133
:100BC0009A4202DA00200146704740F233439A42CB
:100BD000A2F2334202DC5242FFF76ABEFFF759BE6F
:100BE00030B5041E71F1000404DB4FF000444042B4
:100BF00064EB0101141E73F1000405DB1C464FF089
:100C00000043524263EB0403994208BF904230BD57
:100C1000064C074D06E0E06840F0010394E8070049
:100C200098471034AC42F6D3FFF764FA246000080A
:100C300044600008004870472060000810B5044672
:100C4000FFF7F8FF0068005D00F0010010BD000034
:100C50002DE9FF4F087881B09946FF2805D0491C3F
:100C60002D2804D00024002308E000230BE00124F9
:100C7000F9E703EB830300EB4303491C0878FF28E3
:100C8000F7D104B15B4200200090147801462D2C6E
:100C900001D02B2C04D1521C2D2C12D000240094F6
:100CA00000251678FF2E0ED00A24A0FB04C801FBF5
:100CB0000481002700FB0711521C16EB0C00694150
:100CC000EFE70124EBE7994450EA01020ED000243B
:100CD000AA4D2646DFF8A88200F0D3F982468B465B
:100CE000B9F1000009DAC9F100071BE00198002101
:100CF000C0E9001105B0BDE8F08F074612E0F80723
:100D000007D022462B4630464146FFF7CAFB06462F
:100D1000884622462B4610461946FFF7C2FB04467A
:100D20000D467F10002FEAD1B9F1000F324643463D
:100D30005046594602DAFFF726FC01E0FFF7B1FB07
:100D4000009A0AB181F00041019AC2E90001D1E79D
:100D50002DE9FF4F1F468DB0D7E901464FF0FF3810
:100D60002E2045464FF000090B90B9696D1C0E9876
:100D70008847396A824688470028F6D1BAF1FF3F92
:100D80000AD024F4D064002E11DDBAF12B0F08D064
:100D9000BAF12D0F0BD102E0404611B0ABE744F49D
:100DA0008064B9696D1C0E9888478246761E694634
:100DB000600501D52D2000E02B208DF8000001F109
:100DC000010B0DF1200809E0B9696D1C0E988847E8
:100DD00082460F9844F40074761E0560002E02DDF2
:100DE000BAF1300FF0D00B998A453ED144F080041F
:100DF00006E00F99681CA9F1010944F40074086029
:100E0000B9696D1C761E0E98884782463028F0D04E
:100E10002BE00B998A4505D1200603D444F08004C9
:100E2000761E18E0504603F021FC08B30DF11301C3
:100E3000761E44F400748B4508D2AAF130000BF8FA
:100E4000010B200607D5A9F1010003E0200602D41A
:100E500009F101008146A00502D50F99681C0860C0
:100E6000B9696D1C0E9888478246002ED1DC53E08C
:100E7000002E51DDBAF1650F02D0BAF1450F4BD10A
:100E8000A00549D5B9696D1C24F44074761E0E98EE
:100E900088478246002E0CDD2B2804D0BAF12D0F96
:100EA00007D144F48074B9696D1C0E988847824656
:100EB000761EE00501D52D2100E02B2108F8011B4D
:100EC000CDF82C8021E00DF12901761E44F4007448
:100ED00088450CD2AAF1300010F0FF0088F800001D
:100EE00002D10B99884509D908F1010806E0E0050F
:100EF00001D5244801E042F20F708146B9696D1CAA
:100F00000E98884782460F980560002E04DD5046F3
:100F100003F0ACFB0028D6D1F9690E988847FF2072
:100F20008BF8000088F800000020069007904B46E0
:100F30006A4608A906A8FFF78BFEA00502D46FF049
:100F400001002AE714F0240F0AD0E00714D1DDE9EC
:100F500006123868031D3B600068C0E900120BE010
:100F6000DDE90601FFF732FC0146E00704D13868ED
:100F7000021D3A600068016028460EE70000244028
:100F80000000F03FF1D8FFFF426842B1016811F85C
:100F9000013B23B1521EC0E90012184670470121DF
:100FA000C160881E704742685AB1C368016843B97E
:100FB00083688B4205D0491E521CC0E900120020F4
:100FC00070474FF0FF3070472DE9F05F82460078A0
:100FD000002715468B460AF10104B946302801D096
:100FE0009DB113E014F8010B0127782803D058288D
:100FF00001D045B10AE00DB1102D07D10027102511
:1010000014F8010B02E0082500E00A250026B0468E
:101010000EE005FB080005FB06F1012701EB104679
:101020001FFA80F8B6F5803F00D3B94614F8010BDB
:10103000294600F018F80028EBDABBF1000F05D0C4
:101040000FB1641E00E05446CBF80040B9F1000F28
:1010500006D003F037FA02210160C81EBDE8F09FF8
:1010600048EA0640FAE73A2800D2303820F0200259
:10107000412A01D3A2F13700884201D34FF0FF305B
:1010800070470EB540F2334202920022CDE90022B1
:101090001346FFF7FBFC03B000BD70B58C1810F8C9
:1010A000015B15F0070301D110F8013B2A1106D1AD
:1010B00010F8012B03E010F8016B01F8016B5B1EC7
:1010C000F9D12B0705D40023521E0DD401F8013BA2
:1010D000FAE710F8013BCB1A921C03E013F8015B0E
:1010E00001F8015B521EF9D5A142D8D3002070BD92
:1010F00021B1826842F00102826003E0826822F03E
:10110000010282607047000000B589B001214FF4F0
:10111000027001F0A9F80220ADF818000020089034
:1011200006A91D4800F0C0FD00200090012001909C
:1011300002904FF4602003900020049001208DF86D
:1011400014006946154800F04FF8052301220921D3
:10115000124800F071F80121104800F021F8012137
:101160000E48FFF7C5FF0D4800F0C2F800BF0B485E
:1011700000F02FF80028FAD1084800F0C9F800BFA5
:10118000064800F018F80028FAD10121034800F0C1
:10119000B4F809B000BD0000000C0140002401407B
:1011A00021B1826842F48072826003E0826822F496
:1011B000807282607047014600208A6802F0040253
:1011C0000AB1012000E0002070470146C86C80B2DF
:1011D0007047014600208A6802F008020AB1012027
:1011E00000E000207047000030B5024600200023D8
:1011F00050680F4C2040D1E9004544EA05242043C3
:10120000506090680B4C2040D1E903542C438D680A
:1012100044EA450420439060D06A20F470000C7DBD
:10122000641EE4B2234340EA0350D06230BD0000A4
:10123000FFFEF0FFFDF7F1FFF0B504460D4600207C
:101240000021092D11DDE068A5F10A0606EB46072D
:10125000072606FA07F18843A5F10A0606EB4606BB
:1012600003FA06F10843E0600CE0206905EB45074E
:10127000072606FA07F1884305EB450603FA06F14F
:1012800008432061072A0FDA606B561E06EB8607BB
:101290001F2606FA07F18843561E06EB860605FA56
:1012A00006F10843606322E00D2A0FDA206BD61F97
:1012B00006EB86071F2606FA07F18843D61F06EBC2
:1012C000860605FA06F10843206310E0E06AA2F101
:1012D0000D0606EB86071F2606FA07F18843A2F1E2
:1012E0000D0606EB860605FA06F10843E062F0BD3E
:1012F000816841F008018160704721B1826842F441
:10130000A002826003E0826822F4A002826070473B
:10131000816841F004018160704700002DE9F041CF
:101320000026771E1348FFF750FF1349134A12880F
:1013300021F8120011480088401C80B20F49088033
:10134000142801DB002008800025002405E00A485D
:1013500030F814000544601C84B2142CF7DB142010
:10136000B5FBF0F00649088001210248FFF7C5FFF0
:10137000BDE8F081002401405A02002066000020F0
:101380001800002010B503F04DFF84B240F6EE4087
:10139000844207DB40F61650844203DA01201049EC
:1013A00008701CE040F6EE40844215DA4FF400511C
:1013B0000C4800F056FD4FF480410A4800F051FD02
:1013C0004FF40041074800F04CFD002002F0CEFA37
:1013D000002002F055F902E000200149087010BD1C
:1013E00051000020000C01402DE9FC5F05460C4631
:1013F00024B1012C7BD0022C7AD192E1A8460026A0
:1014000026E0FE4850F82600C11C092208F103001E
:10141000FEF7BEFED0B9F94951F826001B2241461D
:10142000FEF780FE46F2BB60F44951F826100880B2
:10143000012004EB440101EBC401F14A114488721C
:1014400004EB440101EBC40111448855701CC6B281
:1014500004EB440000EBC400E9490844007AB042C0
:10146000CFDC04EB440000EBC4000844807AE8BB06
:1014700004EB440000EBC4000844007A082849DA71
:101480001B2004F0DFF904EB440101EBC401DC4A4A
:101490001144097AD94A42F8210004EB440101EBD6
:1014A000C401D74A1144097AD44A52F821001B22B8
:1014B0004146FEF737FE46F2BB6004EB440101EB08
:1014C000C401CF4A1144097ACC4A52F8211008804D
:1014D000012004EB440101EBC401C94A114404EBAF
:1014E000440202EBC402C64B1A4402E012E049E097
:1014F0005EE2127A885404EB440000EBC400194603
:101500000844007A401C04EB440101EBC4011A4674
:1015100011440872D8F8141008BAFFF7A3F8B949B3
:101520000190FEF7D9FE8346FFF724F906460F46E1
:10153000D8F8101008BAFFF795F8B2490190FEF7F5
:10154000CBFE8346FFF716F981464A460B46AEA00E
:10155000CDE9006702F0A6FFB1480068FFF70AF97D
:10156000064632460B46AF4890F90010AEA002F096
:1015700099FF002004EB440101EBC401A04A11448F
:10158000887215E2A846002629E0AE4850F82600E9
:10159000411C042208F10100FEF7FAFDE8B9A9494F
:1015A00051F826000F224146FEF7BCFDBB20A5499D
:1015B00051F826100870A34951F8261088730120AD
:1015C00004EB440101EBC4018D4A1144887204EB21
:1015D000440101EBC40111448855701CC6B204EBF0
:1015E000440000EBC40086490844007AB042CCDCD9
:1015F00004EB440000EBC4000844807AE8BB04EB31
:10160000440000EBC4000844007A082851DA0F2097
:1016100004F018F904EB440101EBC401784A1144C9
:10162000097A884A42F8210004EB440101EBC40125
:10163000734A1144097A834A52F821000F22414625
:10164000FEF770FDBB2004EB440101EBC4016C4AC2
:101650001144097A7B4A52F82110087004EB4401C6
:1016600001EBC401664A1144097A764A52F8211006
:101670008873012004EB440100E01AE001EBC4018F
:101680005F4A114404EB440202EBC4025C4B1A446F
:10169000127A885404EB440000EBC4001946084455
:1016A000007A401C04EB440101EBC4011A461144CA
:1016B0000872D8F80500FEF7D5FF63490190FEF7E0
:1016C0000BFE8346FFF756F806460F46D8F809008A
:1016D000FEF7C8FF5C490190FEF7FEFD8346FFF769
:1016E00049F881460B46CDE90067D8F801104A4613
:1016F00056A002F0D7FE4A480068FFF73BF80646BE
:1017000032460B46474890F9001047A002F0CAFE47
:10171000002004EB440101EBC401394A11448872F2
:1017200046E1A84600263AE04F4850F82600011D41
:101730000C2208F10400FEF72BFD70BB4A4951F85A
:10174000260020224146FEF7EDFCFE20464951F8D6
:1017500026100870F120444951F82610C877424AF3
:1017600052F826205278521ED1B23F4A52F8262013
:10177000501C00F0FFF93C4951F8261088770120F1
:1017800004EB440101EBC4011D4A1144887204EBCF
:10179000440101EBC40111448855701CC6B204EB2E
:1017A000440000EBC40016490844007AB042BBDC98
:1017B00004EB440000EBC4000844807A00287CD18C
:1017C00004EB440000EBC4000844007A082874DAF3
:1017D000202004F037F804EB440101EBC401084A6F
:1017E0001144097A204A42F8210004EB440101EB3C
:1017F000C401034A1144097A1B4A37E0FC16002051
:10180000380200208096184B57617463685F313549
:101810003A20453D25662C4E3D25662000000000FF
:101820000401002000010020534E523A2564644216
:101830002C20525353493A25302E326664426D0DA6
:101840000A0000001C1700200050C3475761746352
:10185000685F57412049443A25582C453D25662C60
:101860004E3D256620000000DC16002052F82100C5
:1018700020224146FEF756FCFE2004EB440101EB1A
:10188000C4014D4A1144097A4C4A52F8211008709B
:10189000F12004EB440101EBC401474A1144097AE9
:1018A000464A52F82110C87704EB440202EBC40206
:1018B000414B1A44127A414B00E03AE053F822209F
:1018C0005278521ED1B204EB440202EBC4023A4BEE
:1018D0001A44127A394B53F82220501C00F04AF96E
:1018E00004EB440101EBC401334A1144097A334A41
:1018F00052F821108877012004EB440101EBC40168
:101900002D4A114404EB440202EBC4022A4B1A4450
:10191000127A885404EB440000EBC40019460844D2
:10192000007A401C04EB440101EBC4011A46114447
:10193000087223A0D8E9011202F0B4FDD8F8100013
:10194000FEF790FE82462249FEF7C6FC8146FEF76E
:1019500011FF064632460B461EA002F0A3FDD8F842
:101960001400FEF77FFE82461949FEF7B5FC81465A
:10197000FEF700FF064632460B4618A002F092FD25
:1019800018480068FEF7F6FE064632460B46164833
:1019900090F90010AFF2701002F084FDB8F8181042
:1019A00012A002F07FFD0021034880F8201000BF44
:1019B00000BFBDE8FC9F000038020020DC160020BC
:1019C00049443A202530385820253038580D0A002F
:1019D0008096184B453A2025662000004E3A202577
:1019E000662000000401002000010020566F6C7486
:1019F0006167653A25646D560D0A000010B503F065
:101A000019FA00F0D5F802F0F7FA02F087FB02F0BD
:101A10002FFAFFF779FB00F031FB10BD38B500203D
:101A20000090002420E08021194800F011FA9DF870
:101A300000100844C0B28DF800004021144800F0A6
:101A400007FA9DF801100844C0B28DF801004FF468
:101A50008071104800F0FCF99DF802100844C0B2F3
:101A60008DF80200601CC4B2072CDCDB00200CE007
:101A70001DF80010022903DC0121074A115402E07D
:101A80000021054A1154411CC8B20328F0DB38BDBF
:101A9000000C0140000801403301002070B5A6B0E1
:101AA0000446802106A8FEF756FB0426002501F017
:101AB0006BF905466078012819D1A078B8B920786B
:101AC000A8B92748007808B9012000E0002024497F
:101AD00008704FF48051234800F0C5F9C82003F086
:101AE0008FF94FF480511F4800F0BBF935E0A07822
:101AF000012802D02078012812D1607880B9062D03
:101B00000ED001A802F0B6FC174800681421026943
:101B100001A890474FF40041124800F0A4F91CE0DE
:101B2000A078012819D12078012816D160780128E1
:101B300013D10E48007840B94FF480510C4800F0A2
:101B400090F901200949087007E04FF480510848D6
:101B500000F089F900200549087026B070BD00002A
:101B600052000020000C0140140000203C01002025
:101B70000008014010B502460020002305E014785B
:101B80000444E0B2521C5C1CE3B28B42F7DB10BD94
:101B900010B50821014800F064F910BD000C0140A7
:101BA00010B50821014800F05EF910BD000C01409D
:101BB0000EB50121042000F057FB0121082000F0A0
:101BC00053FB0121102000F04FFB0121084600F0DB
:101BD0004BFB0121314800F0F3F84FF47040ADF8B1
:101BE0000000032001901020029069462C4800F06C
:101BF0005BF84FF4C050ADF80000032001901020B6
:101C000002906946274800F04FF84FF40140ADF8C4
:101C1000000003200190042002906946214800F052
:101C200043F8C020ADF8000003200190042002908A
:101C300069461B4800F038F84FF40051184800F08E
:101C400012F94FF48041164800F00DF94FF40041AD
:101C5000134800F008F9C82003F0D2F84FF40051FF
:101C60000F4800F0FEF84FF480410D4800F0F9F8FD
:101C70004FF400410A4800F0F4F84FF4805108484E
:101C800000F0EFF84FF48051064800F0ECF84FF404
:101C90000061044800F0E5F80EBD000000023000CD
:101CA000000C0140000801402DE9F04102460025EA
:101CB0000026002000230024002791F808C00CF023
:101CC0000F0591F808C00CF0100CBCF1000F03D008
:101CD000D1F804C04CEA050591F800C0BCF1000F32
:101CE00031D0146800202BE04FF0010C0CFA00F307
:101CF000B1F800C00CEA03069E4220D183004FF0E9
:101D00000F0C0CFA03F7BC4305FA03FC4CEA04047D
:101D1000D1F808C0BCF1280F06D14FF0010C0CFA25
:101D200000FCC2F814C00AE0D1F808C0BCF1480FAA
:101D300005D14FF0010C0CFA00FCC2F810C0401C99
:101D40000828D1D31460B1F800C0BCF1FF0F34DD16
:101D5000546800202EE000F1080C4FF0010808FA4A
:101D60000CF3B1F800C00CEA03069E4221D18300B7
:101D70004FF00F0C0CFA03F7BC4305FA03FC4CEAD6
:101D80000404D1F808C0BCF1280F05D100F1080CFB
:101D900008FA0CF8C2F81480D1F808C0BCF1480F5A
:101DA00007D100F1080C4FF0010808FA0CF8C2F84E
:101DB0001080401C0828CED35460BDE8F08100009C
:101DC000F0B50A46002300240021002500F000465B
:101DD000B6F1004F02D11D4EF16901E01B4E716852
:101DE000C0F3034583B200F44016B6F5401F08D196
:101DF00021F07061154E766826F07066134F7E6094
:101E000012E000F48016B6F5801F06D1032606FA0C
:101E100005F4A14341F0706106E0460D360103FA76
:101E200006F6B14341F0706122B1460D360103FA66
:101E300006F6314300F00046B6F1004F02D1034EE2
:101E4000F16101E0014E7160F0BD00000000014051
:101E50000246002093680B400BB1012000E00020F7
:101E6000704741617047016170470AB1016100E04C
:101E700041617047012080F3108800BF034801884A
:101E8000002080F3108800BF08467047180000202B
:101E90002DE9F04F89B004460D461646504890F89B
:101EA000510008B9002E7CD000204D4981F8510026
:101EB000084690F8780008B9002E73D000204849F1
:101EC00081F8780001F15D0002F06FFFCDE90601B5
:101ED000FEF77CFC07463846FEF700FC6421B0FBA9
:101EE000F1F201FB120B3846FEF7F8FB0190FEF70A
:101EF000B9FB39460290FEF7BAF904905846FEF74E
:101F0000B1FB03900499FEF75DF936490590FEF7A1
:101F1000E3F907903846FEF7E1FB6421B0FBF1F0EE
:101F20000590FEF79FFB06900799FEF74BF9814657
:101F30002D494846FEF79EF90790FEF7CFFB20603B
:101F400027486A3002F031FFCDE90601FEF73EFC7A
:101F500080464046FEF7C2FB6421B0FBF1F201FB74
:101F6000120008904046FEF7B9FB0190FEF77AFB9D
:101F700041460290FEF77BF904900898FEF772FB49
:101F800003900499FEF71EF916490590FEF7A4F98F
:101F900007904046FEF7A2FB6421B0FBF1F00590EC
:101FA00001E017E00FE0FEF75DFB06900799FEF7F2
:101FB00009F982460C495046FEF75CF90790FEF796
:101FC0008DFB286009E009A002F06CFA0020206077
:101FD000286002E000202060286009B0BDE8F08F92
:101FE000D8130020000070428096184B47505320B1
:101FF00044415441206973206E6F74207573656687
:10200000756C6C210D0A00000549096801600449DE
:102010000831096881600249091D096841607047FB
:10202000E8F7FF1F00BFFEE72DE9F04104460D462B
:1020300016461F46FF2020701120A0701E206070E1
:102040000020E0700C4A07CA231D07C33A46194610
:10205000081DFFF71DFF03F0E5F820836683257751
:10206000002060771D21601CFFF784FDA077F02021
:10207000E077BDE8F0810000F80100201CB54FF4C6
:10208000E06000F053F825208DF8000001208DF865
:1020900001008DF802000190684600F00FF826203C
:1020A0008DF8000001208DF8010002208DF802005B
:1020B00001200190684600F001F81CBD70B50021B8
:1020C00000230F22446804B3154C246804F4E06430
:1020D000C4F5E064210AC1F10403CA40447804FA5B
:1020E00003F184781440214309010E4C0678A15570
:1020F000047804F01F050124AC4005786D11AD0093
:1021000005F1E025C5F8004109E0047804F01F0559
:102110000124AC40044D0678761145F8264070BD88
:102120000CED00E000E400E080E100E00249014342
:10213000024A1160704700000000FA050CED00E053
:102140000648006800F4E06005490843001D0349A3
:102150000860BFF3408F00BFFEE700000CED00E019
:102160000000FA0508B50EA002F09CF91AA21DA104
:102170001FA002F097F92548C07800902348837883
:102180004278017822A002F08DF9274883684268DE
:10219000016826A002F086F901A002F083F908BDCB
:1021A0002A2A2A2A2A2A2A2A2A2A2A2A2A2A2A2A8F
:1021B0002A2A2A2A2A2A2A2A2A2A2A2A2A2A2A2A7F
:1021C0002A2A2A2A2A2A2A2A2A2A2A2A2A2A2A2A6F
:1021D0002A2A0D0A0000000032333A33303A3534EF
:1021E000000000004D61722031372032303138005C
:1021F0002A2052656C656173652044617465203ADC
:102200002025732025730D0A000000000C0000201B
:102210002A204657205265763A2025642E25642EC2
:1022200025642E25640D0A00F80100202A20485755
:102230002049443A20253038582025303858202568
:102240003038580D0A00000029B1064AD26902430D
:10225000044BDA6104E0034AD2698243014BDA613C
:10226000704700000010024029B1064A92690243FB
:10227000044B9A6104E0034A92698243014B9A61DC
:10228000704700000010024030B5002100220024F9
:1022900000232D4D6D6805F00C0121B1042905D0F6
:1022A000082923D105E0294D056022E0274D05606E
:1022B0001FE0254D6D6805F47012234D6D6805F41F
:1022C0008034022505EB92421CB9214D554305602F
:1022D0000BE01D4D6D6805F400351DB11C4D5543D7
:1022E000056002E0194D5543056002E0174D056099
:1022F00000BF00BF144D6D6805F0F0010909154DD0
:102300006B5C0568DD4045600F4D6D6805F4E0616C
:10231000090A104D6B5C4568DD4085600A4D6D68AB
:1023200005F46051C90A0B4D6B5C4568DD40C56022
:10233000054D6D6805F44041890B074D6B5CC56820
:10234000B5FBF3F5056130BD0010024000127A00C4
:1023500000093D005401002064010020074808499D
:10236000086008484860084888600848C86008480D
:102370000861084848610846704700006D2C000855
:1023800054140020733B0008C13C0008492C00088D
:102390009D3C0008953A000800200CE000EB40014D
:1023A00001EBC001054A114400220A604A600A811B
:1023B0008A72411CC8B20328F0DB70473802002043
:1023C00070B505460C4625B1012D12D0022D30D135
:1023D0001FE0194951F82400184909680A691B21AE
:1023E000904705EB450000EBC500154908444472D1
:1023F0001FE0144951F82400104909680A690F21A7
:10240000904705EB450000EBC5000D4908444472B8
:102410000FE00D4951F82400084909680A69202194
:10242000904705EB450000EBC500054908444472A0
:1024300000BF00BF70BD0000FC160020140000208B
:10244000380200201C170020DC16002021B1028871
:1024500042F04002028004E002884FF6BF731A4047
:10246000028070470246002013890B400BB1012007
:1024700000E00020704701468889704781817047DD
:1024800010B50022028802F441520B884C88234385
:102490008C882343CC8823430C8923434C892343D2
:1024A0008C892343CC8923431A430280838B4FF2C8
:1024B000FF74234083830B8A038210BD30B5164816
:1024C000006890F8270000F00700421C12480068DE
:1024D00090F83000C3091048006890F8300000F010
:1024E000060008B1012000E0002004460A48006808
:1024F00090F832100848006890F8300000F01000A2
:10250000102801D1022000E000200546D018204408
:102510000844284480B230BD9C00002070B50546B8
:102520000C46064800882080002004490880228844
:1025300003492846FDF7F6FD70BD0000B0000020FD
:10254000DC1400202DE9F04F89B001200890F848F4
:1025500000780C287ED2DFE800F0060784EFEDEC6F
:10256000EBEAE9E8E7E6BFE2F248006890F83000FD
:1025700000F01000102805D14C20EE49096881F8C0
:10258000400004E00C20EB49096881F84000E1209C
:10259000E849096881F841000222E64801684031B3
:1025A000402001F0A3FB052000F002FB4FF48071F6
:1025B000E148FDF7D0FDE1494868FEF769F8CDE94B
:1025C0000201FFF77BFF0190FEF762F880460022D0
:1025D000DB4BFDF766FF0646DDE90223FDF7D3FF7F
:1025E0000022D84BCDE90401FDF75BFFCDE90601E0
:1025F00003F0DEF904460022D34BFDF7ABFE824622
:10260000FEF79FF880B2D14908600846006800EBE9
:102610005000086008460068CD490860CD48006851
:10262000CD490860CD490860A020C249096881F8F9
:102630003500C048006890F83510352001F04EFB99
:102640000020C7490870C7490870C7490870C749C2
:10265000087000E047E2C64908800220B4490870CB
:1026600042E201F075FA012809D1BD48007830B97D
:102670000120BB490870B7480068B849086001F0FC
:1026800055FA01281ED1B648007801281AD1B5485C
:102690000078B8B90120B349087000F063FAB54A70
:1026A00003C200F037FAB449086000F073FAB34986
:1026B0000870A8480068A8490860A8490860032075
:1026C0009B490870A7480078B8B9A5480078012848
:1026D00013D1A0480068A1490968401A9C490968BB
:1026E00088420AD901209249087092480068407BCC
:1026F00040F020010D2001F0F1FA9A48007888B9E5
:102700009748007870B99848007858B9914800689F
:1027100091490968401A8D490968884202D9052003
:1027200083490870E0E1D8E1D1E184E14FE127E19C
:10273000EAE0D6E0CCE0FFE78D480088B0F5807F86
:1027400003DD06207A490870CEE101F0E5F90128A1
:1027500053D187480088A8B98448007890B9754853
:10276000006890F8300000F08000802804D101213A
:102770007F4801F0F5F905E06E48006890F83200F6
:102780007B4908807A48008878490978401A694965
:10279000096891F8351001F03F01884217DD654A5C
:1027A000126892F8352002F03F01634A6F4B1B78A4
:1027B000D01801F0D5F95F48006890F8350000F0B6
:1027C0003F006A49097808446849087015E0684A7A
:1027D0001278664B1B78D21AD1B2574A634B1B78DA
:1027E000D01801F0BDF96248007860490978401AB4
:1027F0005E49097808445D49087001F083F90128B1
:1028000056D154480068544908605948008890BB24
:102810005648007878BB4748006890F8300000F0D0
:102820008000802804D10121514801F099F905E088
:102830004048006890F832004D4908804C4A1278B0
:102840004A4B1B78D21AD1B23B4A484B1B78D0185E
:1028500001F086F94648007844490978401A43490E
:10286000097808444149087001203F490870042054
:102870002F4908701CE0FFE73D4A12783B4B1B785C
:10288000D21AD1B22C4A394B1B78D01801F068F912
:102890003748007835490978401A3449097808449E
:1028A000324908700120304908700420204908701E
:1028B0002D48007858B92748006827490968401A08
:1028C00022490968884202D90520194908700BE19C
:1028D0000020264908700120154908700220089040
:1028E00002E1002021490870214908801148006850
:1028F000407B40F020010D2001F0F0F901200C494F
:10290000087003200890EFE000201849087018496B
:10291000088008480068407B40F020010D2001F04D
:10292000DDF901200249087006200890DCE0000073
:10293000A10000209C000020DC140020800000206A
:102940000000204000408F400000F03FA400002025
:10295000A800002038010020C8000020CC00002082
:10296000AC000020AD000020AE000020B20000202E
:10297000B0000020B8000020C0000020C4000020EB
:1029800001205C49096881F8400020205949096804
:1029900081F841000222574801684031402001F08F
:1029A000A5F998205349096881F835005148006815
:1029B00090F83510352001F091F9032000F0F8F877
:1029C00008204D49087000204C4908708CE001F047
:1029D000B7F801282ED14748006890F8300000F081
:1029E0008000802803D10121454801F09FF9444827
:1029F0000088002808DD42480088402804DC404860
:102A000000784049087002E020203E4908703D48A7
:102A100001783D4801F08AF9384800783949097849
:102A20000844364908703948006839490860092067
:102A30003149087058E001F06FF870BB30480088E9
:102A40002E490978401A2F49097888420FDD2E490E
:102A50002A4A127888182B49097801F067F9274823
:102A600000782849097808442449087015E0244A68
:102A70001278224B1B78D21AD1B2234A1F4B1B78F3
:102A8000D01801F053F91E4800781C490978401A03
:102A90001A49097808441949087001F033F80128E7
:102AA00009D11A4800681A4908600A2012490870BA
:102AB000012000F07DF81548006815490968401AA2
:102AC000B0F57A7F02D90B200B4908700CE000208A
:102AD000094908700420089006E0002006490870A3
:102AE0000520089000E000BF00BF089809B0BDE8CD
:102AF000F08F00009C000020A1000020B300002007
:102B0000D0000020A0000020DC14002038010020AC
:102B1000D40000202DE9F0470222104801681B3143
:102B20001B2000F0CDFF0D490968097F0B4A126890
:102B3000D27E41EA0220FDF79AFD8046FDF7E2FDD4
:102B40008246FDF794FD06460022054BFDF7A9FCE1
:102B50000446FDF7D7FDBDE8F08700009C0000208B
:102B6000A8CB484070B50A4801681131112000F027
:102B70009DFF07490968487CFDF78AFD044600224D
:102B80004FF08043FDF7FFFC81F0004170BD000075
:102B90009C00002010B5054801680C310C2000F0A5
:102BA00085FF02480068007B400910BD9C000020A2
:102BB00070B50446002514480068407820F0F800FD
:102BC000124908700846007884421CD0032C01D1B9
:102BD000012500E000250E480078854204D00C480D
:102BE0000570284601F0ABF807480068407800F00F
:102BF000F800204304490968487003480068417898
:102C0000012001F06BF870BD9C000020D80000206E
:102C1000D90000200149087070470000A100002081
:102C200070B504460D4605480580028821460448D3
:102C3000FDF778FA07200349087070BDD000002026
:102C4000DC140020A100002070B504460D460648A3
:102C5000007820B929462046FFF760FC03E02946AA
:102C6000204600F097F870BD7D0000201CB51D487F
:102C70001D4908601D49086000F046F800F079FF22
:102C800001A9062000F012FF6946422000F00EFF65
:102C900019E017A001F006FC4FF480511848FFF727
:102CA000E2F84FF4FA7002F0ABF84FF48051144898
:102CB000FFF7D7F84FF4FA7002F0A2F84FF4804112
:102CC0000F48FFF7D0F89DF804006C28E1D10120EF
:102CD0000C4908700846007800F05AFF00F06EF8C2
:102CE0001CBD00006C1400209C000020F800002097
:102CF000486172642053504920457272210D0A00C8
:102D0000000C01407D0000200EB501211D20FFF7C1
:102D1000ABFA102002900320019001F071F804201A
:102D20000290C002ADF8000069461448FEF7BCFFEF
:102D30004FF48040ADF8000069461048FEF7B4FF3C
:102D40004FF40040ADF8000069460C48FEF7ACFFB8
:102D50000120ADF8000069460948FEF7A5FF0220F2
:102D6000ADF8000069460648FEF79EFF1020ADF85A
:102D7000000069460348FEF797FF0EBD00100140B2
:102D800000080140000C0140014800787047000035
:102D9000FC00002070B505460C46064800882080DF
:102DA000002004490880228803492846FDF7BAF923
:102DB00070BD0000FE000020DC15002010B50020D2
:102DC0002D49087000F0D8FB6F222C49012000F03B
:102DD00077FE20202A49096808736F2227490120BD
:102DE00000F084FF2749086800F012FD2549887922
:102DF00000F0E0FD2349C87900F0C8FB2149087ABA
:102E000000F0B6FC1F49487900F0B6FD1D49487A2C
:102E100000F0DCFB40F2FF3000F0FAFD1949087EBB
:102E200000F0C6FC012000F0EFFB342000F0D4FCE1
:102E300014480068144988420DD9802000F052FCE3
:102E4000012000F069FC14200E49087191F904007A
:102E500000F00AFD0CE0002000F044FC002000F02F
:102E60005BFC0E200749087191F9040000F0FCFC9E
:102E7000012000F005FC10BDFC0000206D140020B6
:102E8000F8000020DC0000200057A6162DE9F04FC6
:102E900085B001200490FE4800780B2874D2DFE84A
:102EA00000F0060774CCFEFDFCFB73FAF90041E369
:102EB000012000F0E5FB9D20F64909684874F548BB
:102EC0000068417C112000F009FFF348C07A012816
:102ED00016D1F148007BEF49096881F82400ED48DC
:102EE00001681C311C2000F0E1FDEA490968097FF6
:102EF00001F03F01E94A52F8210000F089FC04E0AA
:102F0000FF20E449096881F82400E248006890F84D
:102F10002410242000F0E2FE0020DE49096881F838
:102F20003F00DC49096881F840000222D948016865
:102F30003F31402000F0DAFED748807A012803D1E3
:102F4000062000F09DFB0EE0D2480068C07BD1490E
:102F500009684873CF480068417B0D2000F0BEFE31
:102F6000052000F08DFB4FF48071CD48FDF7F3F89C
:102F7000C9484069CB490860CB480068CB49086024
:102F80000220C3490870D5E2D3E200F0BBFD01285E
:102F90001ED1C5480068C5490860BF48C07A0128ED
:102FA0000FD1BC4801681C311C2000F07FFDB949DD
:102FB0000968097F01F03F01B84A52F8210000F08A
:102FC00027FC4021122000F089FE0320B049087040
:102FD00000F0ACFD01281FD1B3480068B349086078
:102FE000AD48C07A01280FD1AA4801681C311C20C5
:102FF00000F05CFDA7490968097F01F03F01A74A7D
:1030000052F8210000F004FC0221122000F066FEBC
:1030100000F0A4FAA64908709F48807A01280BD1D5
:10302000A1480068A1490968401A9E490968884278
:1030300002D90420964908707CE296480168123152
:10304000122000F033FD93480068807C00F02000DF
:1030500020280ED12021122000F040FE8E48807AD8
:10306000012802D18A49087002E0022088490870CC
:1030700060E203A9192000F019FD9DF80C0000F092
:103080008000A0B19DF80C00C043401CC0F3850037
:10309000884905E031E20CE202E2D9E15EE157E164
:1030A000087008460078404240B2087004E09DF87D
:1030B0000C0080087F490870774800687E49884284
:1030C0004ED27C4890F9000000282ADA794890F91D
:1030D0000000FDF7CCFA82468B466F48407977496D
:1030E00001EBC00003C802460B46CDE900010020F9
:1030F0007349FDF7D6F90022724BCDE90201FDF7C5
:1031000029F906460022704BFDF724F90446524681
:103110005B46FDF71FF98046FDF758FB6B490860D9
:103120006BE05C4801681A311A2000F0BFFC594975
:103130000968887EFDF7ACFA804689465648407992
:10314000634901EBC000D0E900633246404649467E
:10315000FDF700F90446FDF739FB5C4908604CE0D7
:10316000544890F90000002829DA524890F90000EC
:10317000FDF77DFA80468946474840794F4901EB83
:10318000C001D1E90063324600204D49FDF789F9BD
:10319000044600224B4BFDF7DDF800224D4BCDE9F4
:1031A0000001FDF7D7F842464B46CDE90201FDF795
:1031B000D1F88246FDF70AFB444908601DE0354816
:1031C00001681A311A2000F071FC32490968887EC2
:1031D000FDF75EFA804689462F4840793E4901EB6B
:1031E000C000D0E90063324640464946FDF7B2F8D8
:1031F0000446FDF7EBFA354908602748807A012834
:103200002FD124480068C07B2249096848732148AF
:103210000068417B0D2000F061FD1F48407A0128C5
:103220000DD11C48006890F822002C4908801948EC
:10323000006890F822101A4800F092FC7BE01548D4
:1032400001681331132000F031FC12480068C07C83
:10325000224908800F480068C17C114800F080FCBA
:1032600069E00C4801681031102000F01FFC0A488A
:10327000407A012842D10748006890F82200174997
:10328000088004480068007C02490968487327E008
:10329000FC000020F8000020DC000020D05E0008C8
:1032A000DC15002010010020380100200C01002056
:1032B0000801002000010020008F4233E05D00087B
:1032C0000000244000C065C0000010400401002040
:1032D000305E000800001840805E0008FE000020FC
:1032E00097480068417B0D2000F0F8FC9448006886
:1032F00090F82210934800F033FC1CE090480168DD
:103300001331132000F0D2FB8D480068C07C8E4939
:1033100008808B480068007C8949096848738848A0
:103320000068417B0D2000F0D9FC85480068C17C15
:10333000844800F015FC8548807A012802D1844930
:10334000087002E002208249087002200490F1E037
:1033500001207F49087003200490EBE0012000F079
:103360008FF97A48C07A01281AD1F5207449096882
:1033700048747648007B7249096881F824007048D7
:1033800001681C311C2000F091FB6D490968097F20
:1033900001F03F016F4A52F8210000F039FA08E0CD
:1033A000F72067490968487400206549096881F871
:1033B00024006348006890F82410242000F08EFC5C
:1033C0005F480068417C112000F088FC624800786A
:1033D0005B49096881F822005948006890F822107A
:1033E000222000F07BFC002055490968887354486E
:1033F0000068817B0E2000F071FC51480068807BE2
:103400004F49096848734E480068417B0D2000F021
:1034100065FC4B48006890F822104A4800F086FC92
:1034200041204749096881F83F0040204449096824
:1034300081F840000222424801683F31402000F0FC
:1034400055FC032000F01CF906204149087071E08A
:1034500000F058FB012806D10821122000F03EFCA4
:1034600007203B49087000F061FB012817D137485D
:10347000C07A01280FD1324801681C311C2000F0AD
:1034800015FB2F490968097F01F03F01314A52F8C5
:10349000210000F0BDF90221122000F01FFC49E0DC
:1034A000012000F0EDF80020294908700420049064
:1034B00040E0012000F0E4F8FA202149096848744E
:1034C0001F480068417C112000F008FC00201C49C6
:1034D000096881F83F001A49096881F84000022212
:1034E000174801683F31402000F000FC072000F041
:1034F000C7F80A20164908701CE000F021FB0128DB
:1035000016D10421122000F0E9FB00F021FB012874
:1035100009D10121122000F0E1FB01200C490870C3
:103520000820049004E00020094908700720049056
:1035300000E000BF00BF049805B0BDE8F08F0000B8
:10354000F8000020DC150020FE000020DC00002038
:10355000FC000020D05E00081401002010B50548D2
:1035600001680C310C2000F0A1FA02480068007BD1
:10357000400910BDF800002010B503480168413132
:10358000422000F093FA10BDF800002010B5044668
:103590000C4801681D311D2000F088FA09480068B8
:1035A000407F00F0F10040EA44000649096848778E
:1035B00004480068417F1D2000F090FB0248C47160
:1035C00010BD0000F8000020DC00002010B504460B
:1035D0000B4801681D311D2000F068FA084800689A
:1035E000407F00F0FE002043054909684877044801
:1035F0000068417F1D2000F071FB0248447210BD3D
:10360000F8000020DC00002010B504460C480168DA
:103610002631262000F04AFA0948006890F8260072
:1036200000F0F70040EAC4000549096881F8260067
:103630000348006890F82610262000F04FFB10BDCC
:10364000F800002010B504460C48016830313120E4
:1036500000F02CFA0948006890F8300000F0F800FB
:1036600020430649096881F830000448006890F852
:103670003010312000F032FB10BD0000F8000020B7
:1036800070B50446002514480068407820F0F80022
:10369000124908700846007884421CD0032C01D1DE
:1036A000012500E000250E480078854204D00C4832
:1036B0000570284600F043FB07480068407800F09A
:1036C000F8002043044909684870034800684178BD
:1036D000012000F003FB70BDF8000020160100205F
:1036E0001701002010B504460A4801680931092075
:1036F00000F0DCF907480068407A00F07F002043C2
:1037000004490968487203480068417A092000F0BA
:10371000E5FA10BDF800002010B504461348016812
:103720004C314D2000F0C2F91048016809310920E0
:1037300000F0BCF90D480068407A00F08000802855
:1037400007D1012C0AD187200849096881F84C006B
:1037500004E084200549096881F84C0003480068AA
:1037600090F84C104D2000F0B9FA10BDF800002080
:1037700010B504460C4801681E311E2000F096F971
:1037800009480068807F00F0FB0040EA8400064999
:103790000968887704480068817F1E2000F09EFA3F
:1037A0000248047210BD0000F8000020DC00002078
:1037B00010B504460648006880F8224004480068B6
:1037C00090F82210222000F089FA0248047610BDF9
:1037D000F8000020DC00002010B5044602220B484F
:1037E00001682031202000F06BF9200A07490968A0
:1037F00081F820000549096881F821400222034828
:1038000001682031202000F071FA10BDF80000207E
:103810002DE9F0410446114804602046FCF738FFCA
:10382000054600220E4BFCF7AEFE0746FCF789FF6B
:103830000446200C0B4909688871200A0949096867
:10384000C871084909680C72032206480168891D7D
:10385000062000F04BFABDE8F0810000DC000020FB
:1038600080844E40F800002010B504463D480168B1
:103870000931092000F01AF93A4801684C314D200D
:1038800000F014F937480068407A00F08000802882
:1038900041D13448006890F84C0000F08700872838
:1038A0001CD1052C00DA0524142C00DD14242D482D
:1038B0000068407A00F08F0040F0700029490968E4
:1038C000487228480068407A00F0F000611F01F05B
:1038D0000F0108432349096848723AE0022C00DAD4
:1038E0000224112C00DD11241E480068407A00F0EB
:1038F0008F0040F070001B49096848721948006841
:10390000407A00F0F000A11E01F00F0108431549B4
:10391000096848721DE0B4F1FF3F01DA4FF0FF344F
:103920000E2C00DD0E240F480068407A00F08F0056
:1039300040F070000B49096848720A480068407AF4
:1039400000F0F000611C01F00F010843054909680F
:10395000487204480068417A092000F0BFF9024823
:10396000047110BDF8000020DC000020014908703F
:1039700070470000FC00002010B504460B480168A9
:103980001D311D2000F092F808480068407F64F364
:103990001F1006490968487704480068417F1D20C8
:1039A00000F09CF90248447110BD0000F8000020AE
:1039B000DC00002010B504460C2C01DD0C2402E0D4
:1039C000062C00DA0624062C03D10520FFF73AFE68
:1039D00002E00320FFF736FE0B4801681E311E206F
:1039E00000F064F808480068807F64F31F100649FF
:1039F0000968887704480068817F1E2000F06EF90E
:103A00000248847110BD0000F8000020DC00002096
:103A100010B5044602220F4801681E311E2000F036
:103A20004FF80C480068807F00F0FC006FF0FC014C
:103A300001EA24210843074909688877054909688C
:103A4000CC770222034801681E311E2000F04EF997
:103A500010BD0000F800002070B504460D4609486E
:103A6000C07A10B90848058002E0FF2006490880A6
:103A70000548028821460548FCF754FB0520044907
:103A8000087070BDDC00002014010020DC1500204F
:103A9000FC00002010B50448007810B9FEF752FD74
:103AA00010BDFFF7F3F9FBE77D00002070B5044679
:103AB0000D4601222946204600F002F870BD0000A4
:103AC0002DE9F04105460E461746002210210C480C
:103AD000FEF7CBF905F07F0000F0AEF9002405E019
:103AE000002000F0A9F93055601CC4B2BC42F7DBDD
:103AF000012210210248FEF7B8F9BDE8F08100006C
:103B00000008014010B54FF400510248FEF7A0F93B
:103B100010BD00000010014010B54FF48041024874
:103B2000FEF796F910BD00000010014010B54FF4EB
:103B300000410248FEF78CF910BD00000010014062
:103B400010B501210148FEF783F910BD00080140BE
:103B500010B502210148FEF77BF910BD00080140B5
:103B600070B504460D462A4621460020FFF7A8FFFF
:103B700070BD10B5012000F069F80A2001F040F98D
:103B8000002000F063F80A2001F03AF910BD0000AF
:103B900010B5044629480078A04200D110BD27483E
:103BA000047027480470007801282BD10020FFF70B
:103BB00067FD24480068407800F07F0040F08000F6
:103BC0002049096848701F4800684178012000F0CA
:103BD00085F80120FFF754FD00201A49096881F893
:103BE0003F001849096881F8400002221548016821
:103BF0003F31402000F07AF86F2213490120FFF78F
:103C00005FFF18E00020FFF73BFD0E48006840789A
:103C100000F07F000B49096848700A480068417845
:103C2000012000F05BF80120FFF72AFD6F22064912
:103C30000120FFF745FF00BFB0E700007E00002035
:103C40007D000020F80000206D1400203EB50446E1
:103C5000012C10D12020ADF800000320019010208D
:103C6000029069460C48FEF71FF8002220210A48FE
:103C7000FEF7FBF80FE02020ADF8000003200190D4
:103C80001020029069460448FEF70EF80122202118
:103C90000148FEF7EAF83EBD000C014070B504464D
:103CA0000D460648007820B929462046FEF7B8FFA1
:103CB00003E029462046FFF7CFFE70BD7D000020BF
:103CC00010B50548007818B90120FEF7A3FF02E0FF
:103CD0000120FFF74BFE10BD7D00002013B5044608
:103CE000012201A9204600F001F81CBD2DE9F04198
:103CF00005460E461746002210210B48FEF7B5F880
:103D000045F0800000F098F8002404E0305D00F0F9
:103D100093F8601CC4B2BC42F8DB012210210248B7
:103D2000FEF7A3F8BDE8F0810008014070B5044635
:103D30000D462A4621460020FFF7D8FF70BD10B57A
:103D4000044614B100F06AF801E000F059F810BD23
:103D500010B500F001F810BD0CB5002001900090E6
:103D60002548006840F480302349086000BF22489D
:103D7000006800F4003000900198401C0190009809
:103D800018B90198B0F5A06FF1D11B48006800F494
:103D9000003010B10120009001E000200090009858
:103DA000012828D11548006840F010001349086028
:103DB0000846006820F003000860084600680860B4
:103DC0000D4840680C49486008464068486008460D
:103DD000406848600846406820F003004860084694
:103DE000406840F00100486000BF0348406800F0B0
:103DF0000C000428F9D10CBD001002400020024044
:103E000010B501210448FEF72EF84FF40071024866
:103E1000FEF727F810BD0000000C014010B501218D
:103E20000448FEF71EF84FF400710248FEF71BF835
:103E300010BD0000000C014010B5044600BF022177
:103E40000A48FEF70FFB0028F9D021460748FEF785
:103E500015FB00BF01210548FEF704FB0028F9D03F
:103E60000248FEF708FBC0B210BD00000030014060
:103E700000B589B0012141F20500FEF7F5F90320F4
:103E8000029018200390E020ADF8040001A91C481E
:103E9000FDF70AFF10200390032002901020ADF8D8
:103EA000040001A91648FDF7FFFE01221021144865
:103EB000FDF7DBFF0020ADF810004FF48270ADF885
:103EC00012000020ADF81400ADF81600ADF818008F
:103ED0004FF40070ADF81A001020ADF81C0000205F
:103EE000ADF81E000720ADF8200004A90548FEF734
:103EF000C7FA01210348FEF7A9FA09B000BD000086
:103F0000000801400030014010B500F009F80348F6
:103F10000068401C0149086010BD00003801002005
:103F200010B5002406E0174901EBC40000F0C2FF01
:103F3000601CC4B2052CF6DB13480068401C124913
:103F40000860084600686FF00041884202D10020F6
:103F50000D4908600D480068401C0C490860B0F528
:103F60007A7F0BD30020086009480068401C08498C
:103F7000086008480068401C06490860FDF7CEF953
:103F800010BD000084020020700000207800002096
:103F90002C0000200800002010B51348006840F0F5
:103FA00001001149086008464068104908400E4960
:103FB0004860084600680E4908400B4908600846FA
:103FC000006820F4802008600846406820F4FE0065
:103FD00048604FF41F008860FFF7BAFE4FF00060A2
:103FE0000449086010BD0000001002400000FFF806
:103FF000FFFFF6FE08ED00E000B589B0012144F2B4
:104000000400FEF731F94FF40070ADF818001820E5
:1040100008900320079006A91F48FDF745FE4FF4BE
:104020008060ADF818000420089006A91A48FDF732
:104030003BFE25208DF8100000208DF811008DF832
:1040400012000120059004A8FEF738F84FF4E13083
:1040500000900020ADF80400ADF80600ADF80800AF
:10406000ADF80C000C20ADF80A0069460B4800F0D2
:104070008BF9012240F22551084800F05FF9012137
:10408000064800F018F9142000F0BAFE4021034859
:1040900000F008F909B000BD0008014000380140F7
:1040A00010B540F22551194800F01EF968B31748C1
:1040B00000F0D6F9C4B22146002001F0F7FD144803
:1040C0000078002804DD12480078401C1049087070
:1040D0000D2C06D10F4804700D480078401C0C4987
:1040E00008700B48007802280FD10A48447000205D
:1040F00007490870074800780D2806D10548407820
:104100000A2802D101200449087010BD003801407E
:104110006A000020680000207C00002000B589B003
:1041200001210420FEF7A0F801214804FEF78CF8D5
:104130000420ADF81800182008900320079006A965
:104140001F48FDF7B1FD0820ADF8180004200890C5
:1041500006A91B48FDF7A8FD26208DF810000020B9
:104160008DF8110001208DF81200059004A8FDF7CC
:10417000A5FF4FF4165000900020ADF80400ADF8F4
:104180000600ADF80800ADF80C000C20ADF80A00F0
:1041900069460C4800F0F8F8012240F22551094820
:1041A00000F0CCF80121074800F085F8142000F059
:1041B00027FE4021034800F075F809B000BD00005B
:1041C000000801400044004010B508212A4800F0D2
:1041D0007EF8012806D10821274800F063F8264818
:1041E00000F03EF940F22551234800F07DF8002808
:1041F00040D0214800F034F9C4B2242C0FD11F481C
:1042000090F8500058B900201D49088008460188E0
:104210000088401C1A4A10801A48445423E017486A
:1042200090F85000F8B9164801880088401C144ADC
:104230001080144844540078242814D1114800797F
:104240004D2810D10F48407943280CD10A2C0AD1AF
:1042500010460078094981F87900012081F8500062
:1042600000201146088006480088C82802DBC820C4
:104270000349088010BD000000440040D81300200E
:104280006C0000201013002010B540F225510448A6
:1042900000F02AF818B1024800F0E2F8C4B210BDEC
:1042A0000048004001F40072B2F5007F00D100BF69
:1042B000CA430280704721B1828942F40052828150
:1042C00004E082894DF6FF731A40828170470246EE
:1042D0000020B1F5007F00D100BF13880B400BB167
:1042E000012000E00020704770B502460024002342
:1042F0000025002040F66A16B14200D100BFC1F38C
:10430000421501F01F03012606FA03F3012D02D125
:104310009689334006E0022D02D1168A334001E02F
:10432000968A33400C12012606FA04F416883440AB
:1043300013B10CB1012000E0002070BDF0B50346C0
:10434000002400260025002040F66A17B94200D15B
:1043500000BF1846C1F3421401F01F06012707FAF7
:1043600006F5012C01D10C3004E0022C01D11030F3
:1043700000E014301AB107682F43076002E00768B5
:10438000AF430760F0BD00002DE9F04786B0054659
:104390000E460024A24600BFA1460027B08900B106
:1043A00000BF2F462C8A4CF6FF700440F08804436F
:1043B0002C82AC894EF6F3100440B0883189084352
:1043C000718908430443AC81AC8A4FF6FF40044036
:1043D000B0890443AC8201A8FDF756FF1F4887420D
:1043E00002D1DDF810A001E0DDF80CA0A88900F4EE
:1043F000004040B10AEBCA0000EB0A1031684900E6
:10440000B0FBF1F807E00AEBCA0000EB0A103168D4
:104410008900B0FBF1F86420B8FBF0F0040120093A
:10442000642101FB1089A88900F4004040B13220CA
:1044300000EBC900B0FBF1F000F00700044308E016
:10444000322000EB09106421B0FBF1F000F00F0006
:1044500004432C8106B0BDE8F0870000003801401D
:1044600001468888C0F308007047C1F308028280C3
:104470007047000010B50446FF2020701220A07085
:104480006070074A07CA231D07C300F0CBFE2082D5
:104490001121601CFDF76EFBA074F020E07410BDCC
:1044A000F80100200FB4054B10B503A9044A029887
:1044B00000F0E4F810BC5DF814FB000001520008A5
:1044C000680100200048704774010020014800681E
:1044D000704700007401002002E008C8121F08C1E4
:1044E000002AFAD170477047002001E001C1121F75
:1044F000002AFBD1704780F310887047014908609B
:1045000070470000740100202DE9FF5FDDE9022003
:10451000010DDDF838B0024318D044F61050A1F276
:10452000FF3141430D140F98012820D0A5EB0B005B
:10453000401C5FEA000A4FF00004474EDFF81C9170
:10454000A046504616D5CAF1000728E00F9801246E
:1045500043A2012808D0002100980F9BC0E9002148
:10456000C0E90243BDE8FF9F6FEA0B01F4E7CBF11E
:104570000000DEE7074612E0F80707D02246334680
:1045800040464946FBF78DFF804689462246334622
:1045900010461946FBF785FF04460E467F10002F94
:1045A000EAD1DDE90201BAF1000F42464B4602DAD8
:1045B000FBF777FF01E0FBF7E6FF04460E4600221B
:1045C000284BFCF70DFB03D84FF0FF30014607E006
:1045D0000022254B20463146FBF7BCFEFCF7E8FAEB
:1045E000102409E0002C0ADB0A220023FCF720F942
:1045F000019B30321A55641E50EA0102F2D1641C4C
:10460000019AC4F1110314440F9A012A03D0012224
:1046100008430DD10AE0084304D000204FF0110BED
:104620000F9080E7A3EB0B056D1E0DE05B4504DDED
:104630004FF0000205F1010504E003DA4FF000023B
:10464000A5F10105002AECD000980F99C0E90231CC
:10465000C0E9004586E70000000024400000F03F6C
:10466000300000000000F0430000E03F30380A282E
:1046700001D2012070470020704700002DE9FF4F54
:1046800095B09B468946064600250FE2252877D13E
:1046900000242746F84A0121059400E0044316F857
:1046A000013F203B01FA03F01042F7D130782A286D
:1046B00011D06FF02F033078A0F13002092A16D8FC
:1046C000059A44F0020402EB820203EB420210441A
:1046D000761C0590EFE759F8042B0592002A03DABF
:1046E000504244F40054059044F00204761C3078A3
:1046F0002E2816D116F8010F44F004042A280DD0F4
:104700006FF02F023078A0F13003092B09D807EBA6
:10471000870302EB4303C718761CF3E759F8047BC1
:10472000761C30786C280FD006DC4C2817D068280F
:104730000DD06A2814D104E0742810D07A280FD143
:104740000DE044F400140AE044F4801401E044F461
:1047500040147278824202D104F58014761C761CD3
:10476000307866280BD013DC582877D009DC002875
:1047700075D04528F6D04628F4D047281AD19DE1B7
:1047800018E0632835D0642879D0652812D195E1E6
:10479000702873D008DC6728F1D069286FD06E28A4
:1047A0000DD06F2806D1B5E073282CD0752875D0B0
:1047B000782874D05A46179990476D1C75E1C4F358
:1047C0000250022809D003280DD0D9F8001004287F
:1047D0000DD00D6009F1040967E1D9F80010EA175E
:1047E000C1E90052F6E7D9F800100D80F2E70D702C
:1047F000F0E719F8041B8DF8001000208DF8010077
:10480000EA46012003E059F804AB4FF0FF3061079E
:104810004FF0000102D40DE008F101018846B942D1
:104820000FDA8045F8DB1AF808100029F4D108E007
:1048300008F1010188468142FADB1AF808100029C4
:10484000F6D105985B46A0EB080721463846179A33
:1048500000F094FA284400EB080507E04DE029E158
:104860000DE01AF8010B5A4617999047B8F1010864
:10487000F7D25B4621463846179A13E142E00A22F6
:104880000092C4F302524FF0000A022A08D059F8ED
:1048900004CB032A4FEAEC710AD00DE029E02AE0AC
:1048A00009F1070121F00702F2E802C1914609E08F
:1048B0000FFA8CFC4FEAEC71042A03D14FFA8CFCFE
:1048C0004FEAEC71002907DA0A460021DCF1000CFE
:1048D00061EB02012D2202E0220504D52B228DF886
:1048E0000420012203E0E20701D02022F7E79046EE
:1048F00059E00A2102E010220DE010214FF0000AD9
:1049000000910BE010224FF0000A44F00404082745
:10491000009203E008224FF0000A0092C4F3025212
:10492000022A05D059F804CB0021032A08D009E057
:1049300009F1070121F00702F2E802C1914605E002
:104940001FFA8CFC042A01D10CF0FF0C4FF0000878
:10495000220728D5702806D0009B83F0100353EA65
:104960000A0305D00EE040228DF80420012208E061
:104970005CEA010206D030228DF804208DF8050093
:1049800002229046009B83F0080353EA0A030AD1EF
:104990005CEA010201D1620705D530228DF80420BE
:1049A0004FF001087F1E582804D034A003900EA8B1
:1049B00002900DE036A0F9E753466046009AFBF7F7
:1049C00037FF84460398825C0298401E0290027072
:1049D0005CEA0100F0D1029806A9081A00F1200A49
:1049E000600702D524F4803400E00127574502DD3A
:1049F000A7EB0A0000E0002000EB0A0100900598F8
:104A00004144401A0590E00306D45B462146179ABC
:104A1000059800F0B3F90544002706E001A85A46BE
:104A2000C05D179990476D1C7F1C4745F6DBE0037E
:104A30000CD55B462146179A059800F09FF905446E
:104A400004E030205A46179990476D1C0099481E83
:104A500000900029F5DC08E0029802995A46007897
:104A6000491C0291179990476D1CBAF10001AAF1F7
:104A7000010AF1DC65E10000092801003031323320
:104A8000343536373839616263646566000000008A
:104A90003031323334353637383941424344454674
:104AA0000000000000F058F90544761C307800281A
:104AB0007FF4ECAD19B02846BDE8F08F620700D452
:104AC000062709F1070222F0070CFCE80223E14661
:104AD00003F000485FEA080C02D00FF2702C0DE0E2
:104AE0005FEA045C02D50FF2682C07E05FEAC47C41
:104AF00002D00FF2602C01E0AFF2700C4FF0FF38E3
:104B000023F00043CDF850C065280CD006DC4528C2
:104B100009D046281DD047283DD13DE0662818D051
:104B200067287ED138E00021112F01DB112000E041
:104B3000781CCDE9000106A90EA8FFF7E5FCDDE928
:104B40000F010E9A03910021009207F1010A0491CE
:104B50004DE04FF000400097CDE9011006A90EA8E6
:104B6000FFF7D2FCDDE90F0203920E9B11990022A0
:104B7000DDF80CA00093049211B9791C00EB010A36
:104B8000B7EB0A0004D4C0F1FF3007F1010A04902A
:104B9000AAEB0700019044E0012F00DA0127002171
:104BA000112F01DD112000E03846CDE9000106A9F2
:104BB0000EA8FFF7A9FCDDE90F010E9A0391002171
:104BC00004910092BA4621070CD40399514500DAAA
:104BD0008A46BAF1010F05DD009AAAF10101515C84
:104BE000302908D0B84202DA10F1040F06DA0121A8
:104BF000CDE9011015E0AAF10101E9E7002805DC83
:104C0000049901440491AAEB000102E0411C5145C2
:104C100000DD8A460499401A401C01904FF0004084
:104C20000290200704D40198504501DBCDF80480A0
:104C300000208DF84F0002980DF14F07B0F1004FA2
:104C400025D02B200E9002984FF0020800280CDA95
:104C5000404202902D200E9007E00A210298FBF7B7
:104C6000D1FD3031029007F8011DB8F10001A8F123
:104C70000108F2DC02980028EFD1791E0E98087026
:104C8000307800F0200040F0450007F8020D12A82F
:104C9000C01B00F107081498007800B1012000EB58
:104CA0000A01019801EBE07105984144401A401E49
:104CB0000590E00306D45B462146179A059800F05C
:104CC0005DF805441498007818B15A461799904732
:104CD0006D1CE00324D55B462146179A059800F029
:104CE0004DF805441CE00498002807DBDDE90301CA
:104CF000884203DD0098405C179901E01799302045
:104D00005A469047049805F10105401C049001980B
:104D1000401E019004D12E205A46179990476D1CD1
:104D2000BAF10001AAF1010ADDDC05E017F8010B78
:104D30005A46179990476D1CB8F10001A8F1010877
:104D4000F4DC5B462146179A0598ABE62D0000007F
:104D50002B000000200000002DE9F0410446002552
:104D60001E461746880404D405E039462020B04783
:104D70006D1C641EF9D52846BDE8F0812DE9F0418F
:104D8000044600251E469046C80301D5302700E0A2
:104D90002027880404D505E041463846B0476D1CFD
:104DA000641EF9D52846BDE8F08130B583B00446CD
:104DB000FFF78CFB05460020CDE9000002462146A6
:104DC0006846FBF7B2FD2846FFF798FBDDE90001D6
:104DD00003B030BD0146052901DB002070470748BC
:104DE00000EBC1000079012806D10020034A02EB44
:104DF000C10210710120F1E70020EFE784020020DA
:104E000010B50446012C00D802240120FFF773FBE3
:104E100007480460002006490871FFF76CFB04E0B6
:104E200003480079012800D100E0F9E700BF10BD78
:104E30008402002070B5002008E00021194A42F8E1
:104E4000301002EBC0021171411CC8B20528F4DB1E
:104E5000154909684FF47A73B1FBF3F2B2F1807F20
:104E600000D31DE022F07F41491E4FF0E02359613D
:104E700059170F23002907DA1C07260E0B4C01F0E7
:104E80000F052D1F665503E01C07250E084C6554C1
:104E900000BF00214FF0E02399610721196100BF95
:104EA00070BD0000840200204001002018ED00E0E9
:104EB00000E400E0017939B9016829B10168491EAF
:104EC000016009B9012101717047000070B5044605
:104ED0000D46052C00DB70BD0120FFF70CFB0648DA
:104EE00040F834500020044901EBC4010871FFF779
:104EF00002FB00BFEFE70000840200202DE9F04133
:104F0000ADF5825D6748007801286FD100206549C2
:104F1000087000F0ADFE00F0FF08B8F10A0F06DDE2
:104F2000002000F083FE60A0FFF7BCFA06E04246D6
:104F300041F234016944002000F0D0FE41F2340611
:104F40006E44002000F072FEF08840F60D21884289
:104F500070D1308844F62352811A90426BD00FDC16
:104F6000A0F58640A0F1230000287CD0B0F5007F9A
:104F700010D0B0F5407F23D0B0F5106F74D11DE094
:104F8000B1F5A06F11D0B1F5E06F18D0B1F5006F99
:104F900077D174E049A0FFF785FA012000F004FF03
:104FA00052A0FFF77FFAFDF7CBF850A0FFF77AFA8F
:104FB0004FF47A70FFF724FFFDF7C2F866E065E072
:104FC000B01CFBF7F2F805462A034FF480530DA9F5
:104FD000012000F0F4FE022D32D315D14F48008895
:104FE0004F4909880844802805DD00E055E04DA0C0
:104FF000FFF758FA41E049480088494A1288811869
:1050000052A0FFF74FFA38E0444800884449098825
:105010000144A81EA1EBC01007B2802F03DD50A0F1
:10502000FFF740FA29E0002F06DD394647A0FFF7D9
:1050300039FA22E02BE021E052A0FFF733FA1CE01E
:10504000002417E00DA8015D55A0FFF72BFA601CA6
:10505000C11700EB11710911A0EB011141B9002C2E
:1050600006DD611C01E00BE00BE04FA0FFF71AFA30
:10507000601C84B2B4F5805FE4DB07E006E005E085
:1050800004E031884AA0FFF70DFA00BF05E051A007
:10509000FFF708FA002000F0C9FD0DF5825DBDE8BC
:1050A000F08100007C000020636D64206275662042
:1050B0006F766572666C6F77210D0A0064656275A4
:1050C00067436D6448616E646C65723A2045726135
:1050D000736564207468652065787465726E616CB0
:1050E00020666C6173680D0A0000000064656275DB
:1050F00067436D6448616E646C65723A20526573F3
:105100006574204350552C2077616974696E67205F
:105110002E2E2E2E2E2E2E0D0A00000030000020E6
:1051200036000020486973746F72795258436E7468
:105130003E3132382E446973706C61792052656358
:105140006F72643A3132380D0A000000446973709E
:105150006C6179205265636F72643A25640D0A00B0
:1051600052656D61696E436E743E3132382E44690A
:1051700073706C6179205265636F72643A313238B2
:105180000D0A00005468697320736563746F7220A0
:105190006861736E27742064617461210D0A0000D8
:1051A00025303258200000003A2025640D0A000006
:1051B000556E6B6F6E7720737570706F7274656467
:1051C00020636F6D6D616E643A20253034580D0A8E
:1051D00000000000636D64207461696C2065727268
:1051E000210D0A0010B50446214602A0FFF75AF926
:1051F00010BD00004552524F5225640D0A000000B8
:1052000070B504460D46E1B20548FFF72EF900BF20
:1052100040210348FFF75BF80028F9D0204670BD15
:105220000038014000B5FCF725FE034640F6E44097
:105230005843C0EBC000400040F6FF71B0FBF1F0F6
:105240000B21B0FBF1F082B2104600BD8EB03421CC
:1052500001A8FAF780FF4FF0000B00BF00BF002449
:10526000F74DA946AA462E4600F07EFCFCF7C6FB89
:10527000F448FCF7C9FEFCF775FF4FF48051F24883
:10528000FCF7F1FDC820FFF7BBFD4FF48051EE485D
:10529000FCF7E7FDFDF780F8FDF760F8EB490860E3
:1052A000096808688047E94909688868804742F2C8
:1052B00010710320FFF70AFEB9E2E5480068642197
:1052C000B0FBF1F201FB12000028F5D1E1480068C3
:1052D000401CE0490860FCF7A1FBDF48FCF7DEFB5F
:1052E00000F0E6FADD480078012813D1FFF772FDDF
:1052F00001280FD10103DA48FCF7B3FD0020D7499C
:105300000870D84981F8510081F87800D649022008
:10531000FFF7DCFDD148007858B90220FFF75AFDAD
:10532000012806D10103CE48FCF79DFD0020CB49A2
:105330000870C84800680A21B0FBF1F201FB1200B6
:1053400000287DD1C9480068401CC8490860C5488C
:1053500090F85100012811D1C24890F8780068B93E
:105360004FF40051B848FCF77EFD3220FFF748FDAE
:105370004FF40051B448FCF774FD14E0B94890F8BC
:10538000510001280FD1B74890F8780001280AD1C0
:10539000B248007838B942F210710120FFF796FD4B
:1053A0000120AE490870B14800680321B0FBF1F25A
:1053B00001FB1200E0B9AE480078012818D1AD48D1
:1053C0000068FBF772F907B2A94803783A46AA4881
:1053D00090F90010A948FCF727FE9C48006820219E
:1053E0000269A64890474FF400419748FCF73BFDFF
:1053F0009E4800680521B0FBF1F201FB120078B96C
:105400009F48007801280BD181038F48FCF72BFDC2
:105410006420FFF7F5FC4FF480418B48FCF721FD39
:10542000924800681921B0FBF1F201FB120008B9A3
:10543000FBF7A8FF0320FFF7CDFC012832D100E0E5
:1054400030E000242BE0002718E004EB440000EBE0
:10545000C4008C490844C05D01280DD18A490870F8
:1054600039462046FCF7ACFF04EB440000EBC400D7
:105470008449084447720AE0781CC7B204EB440030
:1054800000EBC4007F490844007AB842DDDC00BF6D
:105490007D480078012800D103E0601CC4B2032CD1
:1054A000D1DB00BF6949096848698047022802D0FA
:1054B000042873D108E1654800687449C2686048EF
:1054C00090472878FF2850D1687CF0284DD1687823
:1054D000401EC1B2681CFCF74DFB8346287C584532
:1054E00003D06BA0FEF7DEFF3FE0A87811281ED1A5
:1054F0000C225449281DFAF74BFE48BB5D48006852
:10550000FBF7D3F807B201233A465B4890F9001045
:105510005A48FCF789FD4D48006820210269574828
:1055200090474FF400414848FCF79DFC10E0A878F4
:1055300012280DD15948FEF79DFF444800681421F8
:105540000269564890474FF400413F48FCF78BFCF6
:1055500048480068FBF70EF907463A460B464648AE
:1055600090F900104EA0FEF79DFFB9F8000045F23B
:10557000AA51884213D199F80F0060280FD14F48E3
:105580000088401C4D49088000214846FBF72CFF4D
:105590004B480088401C4A4908804BE040E19AF89B
:1055A0000000AA281FD19AF80E00AA281BD1434850
:1055B0000088401C414908804FF480412248FCF794
:1055C00052FC6420FFF71CFC4FF480411E48FCF79E
:1055D00048FC01215046FBF707FF3A480088401C71
:1055E0003849088026E03078FF2823D17078401EA3
:1055F000C1B2701CFCF7BEFA8346B078112817D1EF
:10560000F07FF02813D1B07F584510D14FF40051EE
:105610000D48FCF728FC3220FFF7F2FB4FF4005155
:105620000948FCF71EFC02213046FBF7DDFE00E0D6
:1056300000BF00BF80210248FAF78DFDF1E00000B5
:1056400078010020F8010020000C01401400002027
:1056500038010020540000203301002053000020B6
:1056600000080140D8130020C0D4010058000020D9
:10567000520000200401002000010020040200204C
:10568000510000203802002064000020100000209B
:10569000636320657272210D0A000000240200205D
:1056A000534E523A256464422C20525353493A25B2
:1056B000302E326664426D0D0A0000003600002074
:1056C0003A0000203C0000205948007818B9594998
:1056D00009688868804758480078012875D1010317
:1056E0005648FCF7C0FB6420FFF78AFB4FF480515B
:1056F0005248FCF7B6FB04EB440000EBC4005049F1
:105700000844407A401C04EB440101EBC4014C4ABC
:105710001144487200BF2DE004EB440000EBC400CC
:105720004749084404EB440101EBC401444A1144D5
:10573000497A405C01280ED14FF47A70FFF760FB84
:1057400004EB440000EBC4003D4A1044417A20467B
:10575000FCF736FE1EE004EB440000EBC4003849C1
:105760000844407A401C04EB440101EBC401344A74
:105770001144487204EB440000EBC4003049084473
:10578000407A04EB440101EBC4012D4A1144097A2B
:105790008842C1DB00BF04EB440000EBC400284991
:1057A0000844407A04EB440101EBC401244A11444B
:1057B000097A884233D1601CC4B2032C21DB002457
:1057C00000201D49087000BF13E023E000EB4001FA
:1057D00001EBC0011A4A114400220A604A6000210C
:1057E00000EB400202EBC002154B1A445172411CFF
:1057F000C8B20328EADB42F210710320FFF766FB10
:105800000DE0002004EB440101EBC4010C4A1144FB
:10581000487280E74FF400410848FCF722FB00E0A3
:1058200000BF00BFFFF76AFB0120FFF7E9FA44E57C
:10583000520000201400002064000020000C0140F1
:1058400038020020F0B50B30154D20F00701002480
:10585000144A0FE003688B420BD38B4205D95E1AC2
:1058600043184768C3E9006700E04368136002C05B
:1058700004E0021D10680028ECD12046002802D167
:10588000286808B10020F0BD064A07481060074AA2
:10589000121A22F00702C0E9002401202860D7E78D
:1058A000700100206C01002044170020401B0020E4
:1058B000F8B500263B4890F85000002870D03948D1
:1058C00090F879203849FAF72DFC0020354981F805
:1058D00050000846FEF7E6FD00BF5FE04EB933A179
:1058E0003048FAF743FC040056D10120FFF77AFC58
:1058F00052E0641C2DA12046FAF738FC050048D080
:10590000072E2ED2DFE806F02D040B11181F2600FB
:105910002A1B214623485230FAF704FC22E02A1BB6
:1059200021466846FAF7FEFB1CE02A1B21461D486B
:105930005D30FAF7F7FB15E02A1B2146194868305D
:10594000FAF7F0FB0EE02A1B214616486A30FAF7F8
:10595000E9FB07E02A1B214612487630FAF7E2FB02
:1059600000E000BF00BF2C4601200E4981F8510025
:105970009DF80000412803D1012081F8780007E05C
:105980009DF80000562803D10020064981F87800D0
:1059900002E00220FFF726FC701CC6B2062E9DDD39
:1059A000F8BD0000D8130020101300202C000000C8
:1059B0002DE9F04D07460E46FBF7B6F804460D46B6
:1059C0003A463346FAF76AFDDFF86CA0DFF86CB0B0
:1059D0001B4B0746884616F0004F4FF000020AD0D6
:1059E000FAF7DCFE0AD900225B4638464146FBF74F
:1059F000F7F81BD212E0FAF7D1FE08D20022534684
:105A000020462946FAF747FD04460D460EE00022DF
:105A10005B4638464146FBF7E3F807D80022534679
:105A200020462946FAF796FC04460D4631462046A4
:105A300065F31E01BDE8F08D0000F03F0000E03F7F
:105A40000000E0BF10B500F07DF84FF4805107482A
:105A5000FCF707FAC72000F03FF84FF480510348E5
:105A6000FCF701FA00F054F810BD0000000C0140F2
:105A700070B506460C46154625B1601914494969AA
:105A8000884200D970BD4FF480511248FCF7E9F903
:105A9000032000F021F8C4F3074000F01DF8C4F320
:105AA000072000F019F8E0B200F016F804E0A52095
:105AB00000F012F806F8010B2800A5F10105F6D157
:105AC0004FF480510348FCF7CEF900BFDAE700003D
:105AD000F4020020000C014010B5044600BF022172
