:020000040800F2
:10000000683F0020010100083D200008411D000854
:1000100039200008D711000803550008000000002F
:10002000000000000000000000000000412F000858
:10003000791500080000000045250008854E0008DD
:100040001B0100081B0100081B0100081B01000820
:100050001B0100081B0100081B0100081B01000810
:100060001B0100081B0100081B0100081B01000800
:100070001B0100081B0100081B0100081B010008F0
:100080001B0100081B0100081B0100081B010008E0
:100090001B0100081B0100081B0100081B010008D0
:1000A0001B0100081B0100081B0100081B010008C0
:1000B0001B0100081B0100081B0100081B010008B0
:1000C0001B0100081B0100081B0100081B010008A0
:1000D0001B010008BD510008ED5200081153000833
:1000E0001B0100081B0100081B010008DFF80CD0F1
:1000F00000F0DAFC0048004775630008683F002004
:100100000648804706480047FEE7FEE7FEE7FEE7B1
:10011000FEE7FEE7FEE7FEE7FEE7FEE7154F000815
:10012000ED000008014610B509683C22B1FBF2F36E
:1001300002FB1313B1FBF2F11D480360B1FBF2F3B4
:1001400002FB1313B1FBF2F118224360B1FBF2F38F
:1001500002FB1313B1FBF2F183600A1D0723B2FB0C
:10016000F3F403FB142282618A0040F2B55102F6D7
:100170006C32B2FBF1F344334361B2FBF1F301FBA8
:1001800013218908C1613B2903D3027D920700D066
:10019000491C0022074C13460261E25C8A4203D8E4
:1001A000891A5B1C0361F8E7491CC16010BD00009F
:1001B000381B0020C489000840EA01039B0703D0D4
:1001C00009E008C9121F08C0042AFAD203E011F896
:1001D000013B00F8013B521EF9D27047D2B201E058
:1001E00000F8012B491EFBD270470022F6E710B53C
:1001F00013460A4604461946FFF7F0FF204610BD95
:10020000421C10F8011B0029FBD1801A704730B541
:1002100004460020034600E05B1C934203D2E05CEE
:10022000CD5C401BF8D030BD034611F8012B00F81F
:10023000012B002AF9D11846704770B5064605F023
:1002400095F9046805460A220021304600F0ECFAD0
:100250002C6070BD30B480EA010202F0004530F03D
:10026000004221F0004013D090B1C30DD40DC2F371
:100270001601C0F31600E41A41F4000140F4000234
:100280007D34914201D3641C00E04900002C02DA65
:1002900030BC002070474FF400000023914201D38E
:1002A000891A034340084FEA4101F7D151B1914205
:1002B00002D14FF0004105E002D24FF0010101E010
:1002C0006FF0010103EBC450284430BC00F0E4BAE5
:1002D0002DE9FE4F804681EA0300C00F0C460090D6
:1002E00021F0004123F00045B8EB0200A94105D2FE
:1002F0004046214690461C460B46024623F00040ED
:10030000104347D0270DC7F30A00C3F30A510290E8
:10031000401A019040286BDAC3F3130040F4801BAD
:100320000098924620B10023D2EB030A63EB0B0B3B
:1003300001985946C0F14002504600F044FA064682
:100340000D4650465946019A00F05CFA10EB080041
:100350006141002487EA115284EAE7731A4340D0CE
:10036000009A62B3019A012A4FEA075215DC001B7A
:1003700061EB02014FF0004202EA0752CDE9004270
:10038000001C41F5801132462B4600F0CBFA03B039
:10039000BDE8F08F40462146F9E7001B61EB020102
:1003A000001C41F5801300185B412018A2F50017CE
:1003B00047EB030140EAD570B6196D4111E06D08B5
:1003C0004FEA360645EAC0754FEA0752001B61EB5B
:1003D0000201001C41F5801149084FEA3000001964
:1003E000514132462B4603B0BDE8F04F00F08BBAC6
:1003F0000098012240000023D0EB020263EBE0737F
:10040000009821464FEAE074B8EB000061EB04016C
:10041000E9E783F000435BE781F0004158E72DE90D
:10042000FE4F81EA030404F0004421F000410094EF
:100430004FF0000B23F0004350EA01045ED052EA73
:1004400003045BD0C3F30A54C1F30A552C44A4F24D
:10045000F3340194A0FB0254C1F3130141F4801161
:10046000C3F3130343F4801301FB024400FB034E68
:10047000840A970A44EA815447EA8357A4FB076831
:1004800002958D0A05FB07854FEA932C04FB0C545B
:100490002705029D4FEA065847EA1637B5EB0805CF
:1004A0006EEB070C870E920E47EA811742EA831221
:1004B000A7FB0201B6EB0B0164EB00042B0D43EA32
:1004C0000C335E1844EB1C50DA465146E7FB020140
:1004D000C5F313044FEA0B3343EA14534FEA0432D3
:1004E000019C43EA0603A4F10C040294009CCDE9AC
:1004F00000B400F017FA03B0BDE8F08F0020014609
:10050000F9E72DE9F04D81EA030404F0004B21F0F6
:10051000004514464FF0000A23F0004150EA05025E
:1005200020D054EA01021DD0C5F30A570246C5F394
:100530001303C1F31300C1F30A5640F4801543F4CA
:100540008013A7EB0608101BD64608F2FD3873EBA4
:10055000050002D308F1010801E092185B41B8F1EF
:10056000000F03DA00200146BDE8F08D00204FF4B3
:100570008011064684460EE0171B73EB050705D372
:10058000121B63EB050306434CEA010C49084FEAD2
:10059000300092185B4150EA0107EDD152EA0300A6
:1005A00012D082EA040083EA0501084305D0101B3B
:1005B000AB4106D20122002306E000224FF00043A7
:1005C00002E06FF0010253101AEB06004CEB0851E9
:1005D00010EB0A0041EB0B01BDE8F04D00F093B9C0
:1005E000C10F80EAE0700844CA079623002100F09A
:1005F0005CB996230022114600F057B90EB5C10F21
:1006000080EAE0700844CA07002140F233438DE8D5
:100610000E000A460B4600F085F903B000BD0EB58A
:1006200040F2334102910021CDE900110A460B4608
:1006300000F078F903B000BD70B5C1F30A5201F0C3
:1006400000450024C1F3130140F2FF3341F480114F
:100650009A4201DA002070BD40F233439A42A2F27E
:10066000334203DC524200F0BDF800E090402C43DE
:10067000F1D0404270BDC1F30A5210B5C1F313016D
:1006800040F2FF3341F480119A4201DA002010BD9C
:1006900040F233439A42A2F2334203DC524200F06A
:1006A000A1F810BD904010BD00F0004230F00040B5
:1006B0000AD0C10D01F56071C0F3160042EA015184
:1006C000C2084007114370470020014670470000F0
:1006D00030B5041E71F1000404DB4FF000444042C9
:1006E00064EB0101141E73F1000405DB1C464FF09E
:1006F0000043524263EB04038B4208BF824230BD89
:1007000001F0004330B421F0004150EA010206D06C
:100710000A0DA2F56072C1F31301002A02DC30BC9D
:1007200000207047440F44EAC104C100E01830BC07
:1007300000EBC25000F0B0B830B50B4601460020C7
:100740002022012409E021FA02F59D4205D303FA93
:1007500002F5491B04FA02F52844151EA2F1010214
:10076000F1DC30BD2DE9F05F0546002092469B4646
:1007700088460646814640241BE0284641464746B7
:10078000224600F02FF853465A46C01A914110D322
:1007900011461846224600F016F82D1A67EB01089C
:1007A0004F4622460120002100F00DF817EB00090A
:1007B0004E41201EA4F10104DFDC484631462A46A2
:1007C0004346BDE8F09F202A04DB203A00FA02F1FC
:1007D000002070479140C2F1200320FA03F319432F
:1007E00090407047202A04DB203A21FA02F00021D1
:1007F000704721FA02F3D040C2F120029140084331
:1008000019467047202A06DBCB17203A41FA02F03E
:1008100043EAE07306E041FA02F3D040C2F120025D
:1008200091400843194670472DE9F04791460F461D
:1008300080460446002614F8015B2DB100F046F90D
:100840000068405DC007F6D12B2D02D02D2D18D0A9
:10085000641E4A463946204600F03CF927B1396803
:10086000A14201D1C7F8008071054FF002040BD5F9
:100870004042002803DD04F079FE0460A007BDE8D3
:10088000F08746F48066E4E70028F8DA04F06EFEAC
:1008900004606FF00040F2E70029A8BF7047401CD9
:1008A000490008BF20F00100704710B4B0FA80FC86
:1008B00000FA0CF050EA010404BF10BC704749B1C3
:1008C000CCF1200421FA04F411FA0CF118BF012133
:1008D00021430843A3EB0C01CB1D4FEA00614FEA13
:1008E000102042BF002010BC704700EBC3501044E2
:1008F0000029A4BF10BC7047401C490008BF20F06D
:10090000010010BC704710B5141E73F1000408DA22
:10091000401C41F1000192185B411A4301D120F0C3
:10092000010010BD2DE9F04D92469B4611B1B1FA80
:1009300081F202E0B0FA80F220329046FFF743FFE6
:1009400004460F4640EA0A0041EA0B0153465A4664
:10095000084313D0114653EA010019D0C8F14002F0
:100960005046FFF73FFF05460E4650465946424661
:10097000FFF729FF084305D0012004E0204639464F
:10098000BDE8F08D0020054346EAE0762C4337436E
:100990000A986305E40AA0EB08000022FD0A44EA75
:1009A00047540A3002D500200146E9E70105101935
:1009B0006941DDE9084500196941BDE8F04DA2E74C
:1009C0002DE9F041054621F000400C46284309D0AE
:1009D000C4F30A5040F23341884205DD28462146DF
:1009E000BDE8F0812846FBE740F2FE31884210DC8A
:1009F0000CDB4FEA043040EA155050EA053105D0CF
:100A0000104804F0004101430020E9E700200146BE
:100A1000E6E7A0F233404642C6F1400228462146AE
:100A2000FFF7D1FE07468846284621463246FFF7A3
:100A3000D9FE43463A46FFF766FF3246BDE8F0412D
:100A4000FFF7C1BE0000F03FC1F30A52C1F313012A
:100A500040F2FF3341F480119A4202DA002001464D
:100A6000704740F233439A42A2F2334202DC5242D0
:100A7000FFF7B8BEFFF7A7BE30B5041E71F1000442
:100A800004DB4FF00044404264EB0101141E73F19B
:100A9000000405DB1C464FF00043524263EB0403A5
:100AA000994208BF904230BD064C074D06E0E06811
:100AB00040F0010394E8070098471034AC42F6D3A5
:100AC000FFF718FB048B0008248B000800487047D0
:100AD000548A00082DE9F05F824600780027154609
:100AE0008B460AF10104B946302801D09DB113E0CC
:100AF00014F8010B0127782803D0582801D045B1FC
:100B00000AE00DB1102D07D10027102514F8010BB4
:100B100002E0082500E00A250026B0460EE005FBAD
:100B2000080005FB06F1012701EB10461FFA80F8CB
:100B3000B6F5803F00D3B94614F8010B294600F002
:100B400018F80028EBDABBF1000F05D00FB1641ED6
:100B500000E05446CBF80040B9F1000F06D004F095
:100B600005FD02210160C81EBDE8F09F48EA06406D
:100B7000FAE73A2800D2303820F02002412A01D387
:100B8000A2F13700884201D34FF0FF30704770B5B3
:100B90008C1810F8015B15F0070301D110F8013B28
:100BA0002A1106D110F8012B03E010F8016B01F8AF
:100BB000016B5B1EF9D12B0705D40023521E0DD407
:100BC00001F8013BFAE710F8013BCB1A921C03E055
:100BD00013F8015B01F8015B521EF9D5A142D8D38D
:100BE000002070BD21B1826842F00102826003E002
:100BF000826822F0010282607047000000B587B071
:100C000001214FF4047001F00BFE0220ADF8180032
:100C100000208DF81B0006A91D4800F001FF0020F0
:100C2000019001208DF808008DF809004FF4602034
:100C300003900020049001208DF8140001A91548AC
:100C400000F04EF8052301220921124800F070F847
:100C50000121104800F020F801210E48FFF7C2FFE3
:100C60000C4800F0C1F800BF0A4800F02EF8002838
:100C7000FAD1084800F0C8F800BF064800F017F89D
:100C80000028FAD10121034800F0B3F807B000BDF5
:100C9000000C01400024014021B1826842F48072BE
:100CA000826003E0826822F48072826070470146AD
:100CB00000208A6802F004020AB1012000E000204E
:100CC00070470146C86C80B27047014600208A68B0
:100CD00002F008020AB1012000E000207047000085
:100CE00030B502460020002350680F4C20400D799B
:100CF0000C6844EA05242043506090680B4C204067
:100D0000D1E902542C434D7944EA450420439060D4
:100D1000D06A20F470000C7C641EE4B2234340EAE5
:100D20000350D06230BD0000FFFEF0FFFDF7F1FF81
:100D3000F0B504460D4600200021092D11DDE068C4
:100D4000A5F10A0606EB4607072606FA07F18843CF
:100D5000A5F10A0606EB460603FA06F10843E06031
:100D60000CE0206905EB4507072606FA07F18843E2
:100D700005EB450603FA06F108432061072A0FDA5E
:100D8000606B561E06EB86071F2606FA07F188439E
:100D9000561E06EB860605FA06F10843606322E05C
:100DA0000D2A0FDA206BD61F06EB86071F2606FAE0
:100DB00007F18843D61F06EB860605FA06F10843BD
:100DC000206310E0E06AA2F10D0606EB86071F26FD
:100DD00006FA07F18843A2F10D0606EB860605FA2E
:100DE00006F10843E062F0BD816841F008018160CE
:100DF000704721B1826842F4A002826003E08268F9
:100E000022F4A00282607047816841F00401816091
:100E10007047000070B51348FFF753FF1249134A9B
:100E2000128821F8120011480088401C80B20F4936
:100E30000880142801DB002008800025002405E03C
:100E4000094830F814000544601C84B2142CF7DB08
:100E50001420B5FBF0F00649088001210148FFF796
:100E6000C8FF70BD0024014004080020520000208B
:100E70001800002010B50E48FFF7C2F984B22246D0
:100E80000B49012006F0A0FC012006F041FC0223E2
:100E900008A20021084601F0B5FA02235F220021D2
:100EA000572001F07EF900200449087010BD0000B1
:100EB000100300204254204F464600004E00002000
:100EC00070B58EB000250DE01D48FFF799F986B288
:100ED00032461B49012006F077FC012006F018FC81
:100EE000681CC5B23C2DEFDB4FF4FA7004F0A2FF92
:100EF000012006F071FBC4B2022C1EDB224601A9C0
:100F0000012006F09FFB601F01A9085C4F2814D147
:100F1000201F085C4B2810D102230AA2002108469A
:100F200001F070FA094802235F2200210090572047
:100F300001F06BF90120064908700EB070BD000089
:100F40001B0300204254204F4E000000D2870008AF
:100F50004E00002038B5044606A0006800908DF8C9
:100F6000014003226946012006F02EFC012006F014
:100F7000CFFB38BDFF00F00030B58DB0012006F08A
:100F80002BFBC5B2062D15DB2A466946012006F06B
:100F900059FB6C462078FF280CD16079F02809D1E4
:100FA000D4F8010000BA00F5E140034908600020D0
:100FB000FFF7D0FF0DB030BD0800002010B50020B5
:100FC0000A49087002230AA20021084601F01AFA11
:100FD0004FF40061094800F002FE642004F02AFF8B
:100FE0004FF40061054800F0F8FD10BD4D000020F1
:100FF00042555A5A204F4646000000000008014062
:1010000010B501200A49087002230AA200210846EF
:1010100001F0F8F94FF40061084800F0E0FD6420A9
:1010200004F008FF4FF40061044800F0D6FD10BD45
:101030004D00002042555A5A204F4E0000080140F2
:1010400038B500F0D3FD05B240F6E4406843C0EB8C
:10105000C000400040F6FF71B0FBF1F00B21B0FB87
:10106000F1F004B23F48B0F90000201A322811DA3A
:101070003C48B0F90000001B3A49B1F90010401A91
:10108000322807DA38480078012803D0374800783A
:10109000002865D100203449087040F6EC60844295
:1010A00008DB334802237F2200210090622001F0F8
:1010B000ACF853E040F67460844208DB2D4802230C
:1010C0007F2200210090622001F09FF846E040F668
:1010D000AC50844208DB284802237F220021009084
:1010E000622001F092F839E040F64850844208DB73
:1010F000224802237F2200210090622001F085F81F
:101100002CE040F61650844208DB1D4802237F2263
:1011100000210090622001F078F81FE040F6EE40D8
:1011200084420EDB164802237F22002100906220B9
:1011300001F06BF8022313A20421182001F062F9D8
:101140000CE001F016F94FF48051154800F045FD10
:10115000002003F04DF9002002F0D4FF0148048084
:1011600038BD00003C0300204F000020500000204C
:1011700076860008B0860008EA8600082487000802
:101180005E8700084C6F7720506F7765722C506C2B
:101190006561736520436861726765210000000026
:1011A0000008014010B500F0EBFB04F05DFE03F019
:1011B000ADFF04F041F803F015FE05F03FFE00F02E
:1011C000E3FD01F079F8FFF719FD022003F0D2FEEC
:1011D00000F035FF10BD00BFFEE7000038B500206D
:1011E0000090002425E04FF480711C4800F0ECFCD6
:1011F0009DF800100844C0B28DF800004FF4006163
:10120000174800F0E1FC9DF801100844C0B28DF8C9
:1012100001004FF48061124800F0D6FC9DF80210E6
:101220000844C0B28DF802000A2004F003FE601CDE
:10123000C4B2072CD7DB00200CE01DF800100229F7
:1012400003DC0121074A115402E00021054A115430
:10125000411CC8B20328F0DB38BD00000008014083
:10126000000C01402B03002030B5A1B004468021C2
:1012700001A8FEF7BAFF0425607801280AD100F022
:101280005AFF02F0C3FA10B901F05AFB07E001F06F
:1012900041FB04E000F04FFF204601F097FC21B035
:1012A00030BD000010B54FF40041024800F08CFC46
:1012B000044610BD0008014070B50546134800788B
:1012C000E0B9022312A21946002001F09BF8144C49
:1012D000012006F04FFBD4F801200423114901201E
:1012E00006F06AFB00F027FF02230FA21946002038
:1012F00001F088F801200549087005E002230AA2E0
:101300001946002001F07EF870BD00006802002040
:10131000457261736520446174612E2E2E000000B9
:101320009B00002094000020416C6C205265636F8C
:101330007264204461746120436C6561726564214C
:10134000000000000548006820F480700349086030
:101350000846006840F4807008607047140C014033
:101360000548006820F00F0003490860084600683F
:1013700040F0040008607047040C01400548006814
:1013800020F00F00034908600846006840F00300A1
:1013900008607047040C01400548006820F4807024
:1013A000034908600846006840F480700860704790
:1013B000100C01402DE9F04F91B082468B4634214C
:1013C00003A8FEF712FF00266AE00AEB4614711C20
:1013D00036A004F0A7F841A004F0A4F84FF00009EB
:1013E00009E0E01C10F809103DA004F09BF809F199
:1013F000010000F0FF09B9F1090FF2DB36A004F09B
:1014000091F8E068FFF7F5F837490190FEF722FF01
:101410000290FFF749F907463A460B4633A004F01D
:1014200081F82069FFF7E5F82F490190FEF712FFD8
:101430000290FFF739F907463A460B462DA004F013
:1014400071F894F914102DA004F06CF8B4F915108B
:101450002DA004F067F8B4F817102FA004F062F87C
:10146000B4F819102FA004F05DF8D4F81B00109008
:1014700010A8FEF757FE0546D5E901212868CDE9F9
:1014800000120290D5E90330421C686900F26C71C9
:1014900028A004F047F830A004F044F8701C86B28D
:1014A0005E4592DB11B0BDE8F08F00002A2A2A2A9F
:1014B0002A2A2A2A2A2A2A2A2A2A2A2A2A2A2A2A8C
:1014C0002A2A2A2A2A2A2A0D0A486973746F7279ED
:1014D0005258436E743A25640D0A000049443A009C
:1014E00025303258000000008096184B453A2025E0
:1014F000660D0A004E3A2025660D0A00534E523AF8
:1015000020256464420D0A00525353493A2564640D
:10151000426D0D0A000000005278436E743A256453
:101520000D0A0000546F74616C5278436E743A2552
:10153000640D0A0054696D653A25642D25303264C6
:101540002D2530326420253032643A253032643A19
:10155000253032640D0A00002A2A2A2A2A2A2A2A39
:101560002A2A2A2A2A2A2A2A2A2A2A2A2A2A2A2ADB
:101570002A2A2A0D0A000000704700002DE9F043D6
:101580008FB00446342102A8FEF72FFE4FF0040866
:101590002078012807D13548007808B9012000E0FB
:1015A00000203249087031480078002845D1304881
:1015B00000683049884204DB2D480068494288426F
:1015C00006DD02232CA21946002000F01BFF17E0C5
:1015D00027480068FFF704F881462A49FEF73AFEDB
:1015E0000546FFF761F8064632460B4626A102A8DB
:1015F00003F0A8FF022302AA1946002000F002FF10
:10160000244800683C21B0FBF1F52A4622A102A83B
:1016100003F098FF022302AA0421002000F0F2FE4A
:101620002148028821A102A803F08CFF022302AA0C
:101630000621002000F0E6FE15E02048C0781F4992
:101640008978CDE900101D48437802781CA102A8D2
:1016500003F078FF022302AA1946002000F0D2FE10
:1016600000201C4908700FB0BDE8F083690200201B
:101670008C000020C0BDF0FF54656D703A2D2D2DFB
:101680000000000000401C4654656D703A25302E65
:10169000326627002C00002052756E54696D653A41
:1016A00025646D696E00000044000020566F6C7464
:1016B0006167653A25646D56000000000C0000204B
:1016C0004657205265763A25642E25642E25642ED1
:1016D000256400006802002010B58AB0202102A80D
:1016E000FEF783FD002409E0102101EB0411C8B2CC
:1016F0002246002100F05CFE601CC4B2062CF3DB25
:10170000012317A20321002000F07CFE1A48C078B4
:1017100019498978CDE9001017484378027817A154
:1017200002A803F00FFF012302AA0421002000F009
:1017300069FE202102A8FEF758FD16A218A102A8F2
:1017400003F000FF012302AA0521002000F05AFE49
:10175000012303A20621002000F054FE0AB010BDB0
:101760002A2A2A2A2A2A2A2A2A2A2A2A2A2A2A2AD9
:101770002A2A2A2A2A0000000C0000202A20465784
:10178000205265763A2025642E25642E25642E2568
:10179000640000005365702020382032303137005B
:1017A0002A205265446174653A20257300000000C8
:1017B00010B50821014800F010FA10BD000C0140DE
:1017C00010B50821014800F00AFA10BD000C0140D4
:1017D00030B5044604254FF4302000F0A1F805464A
:1017E000042D17D10C48006940F002000A49086135
:1017F00008464461006940F0400008614FF4302021
:1018000000F08EF805460448006941F6FD71084075
:1018100001490861284630BD0020024004200B49E0
:10182000C96801F0010109B101200EE00749C9684A
:1018300001F0040109B1022007E00449C96801F080
:10184000100109B1032000E004207047002002408D
:101850000348006940F080000149086170470000BA
:101860000020024001B500200099C1F309021AB11D
:10187000012202EB912000E0880A08BD10B5FFF7B5
:10188000E7FF10BD70B504460D460426F00200F0D7
:1018900047F80646042E11D10948006940F00100BE
:1018A000074908612580F00200F03AF8064604482E
:1018B000006941F6FE71084001490861304670BD7B
:1018C0000020024073B582B00446042500260020A3
:1018D000019000F019F80398FFF7C4FF06460AE0EC
:1018E0004FF48062019902FB0140FFF771FF05464A
:1018F0000198401C01900198B04201D2042DEFD014
:10190000284604B070BD00000248034948600348FF
:10191000486070472301674500200240AB89EFCD46
:1019200000B502460423FFF779FF034603E0FFF703
:1019300075FF0346521E012B01D1002AF7D102B9CF
:101940000523184600BDF8B506460C461746354631
:1019500000940EE029880098FFF794FF28880099EA
:101960000988884201D00020F8BDAD1C0098801C79
:101970000090E01900998842ECD80120F4E70000BB
:1019800008B50121042000F04BFF0121082000F0E0
:1019900047FF0121102000F043FF0121084600F01D
:1019A0003FFF01211B4800F0C7F84FF4C050ADF8CD
:1019B000000003208DF8020010208DF80300694616
:1019C000154800F02DF84FF40140ADF80000032059
:1019D0008DF8020004208DF8030069460E4800F0DF
:1019E0001FF84FF44060ADF8000003208DF80200AE
:1019F00004208DF803006946084800F011F84FF400
:101A00008051054800F0E9F84FF40061024800F009
:101A1000E4F808BD0002300000080140000C01405D
:101A20002DE9F04102460025002600200023002475
:101A3000002791F803C00CF00F0591F803C00CF0DB
:101A4000100CBCF1000F03D091F802C04CEA050560
:101A500091F800C0BCF1000F31D0146800202BE0D9
:101A60004FF0010C0CFA00F3B1F800C00CEA0306C9
:101A70009E4220D183004FF00F0C0CFA03F7BC43B9
:101A800005FA03FC4CEA040491F803C0BCF1280FEA
:101A900006D14FF0010C0CFA00FCC2F814C00AE0A9
:101AA00091F803C0BCF1480F05D14FF0010C0CFABE
:101AB00000FCC2F810C0401C0828D1D31460B1F853
:101AC00000C0BCF1FF0F34DD546800202EE000F1AF
:101AD000080C4FF0010808FA0CF3B1F800C00CEA4A
:101AE00003069E4221D183004FF00F0C0CFA03F73E
:101AF000BC4305FA03FC4CEA040491F803C0BCF1B2
:101B0000280F05D100F1080C08FA0CF8C2F814806F
:101B100091F803C0BCF1480F07D100F1080C4FF059
:101B2000010808FA0CF8C2F81080401C0828CED32F
:101B30005460BDE8F0810000F0B50A46002300249F
:101B40000021002500F00046B6F1004F02D11D4EE5
:101B5000F16901E01B4E7168C0F3034583B200F4E4
:101B60004016B6F5401F08D121F07061154E766819
:101B700026F07066134F7E6012E000F48016B6F512
:101B8000801F06D1032606FA05F4A14341F07061D7
:101B900006E0460D360103FA06F6B14341F07061E6
:101BA00022B1460D360103FA06F6314300F0004635
:101BB000B6F1004F02D1034EF16101E0014E7160B8
:101BC000F0BD0000000001400246002093680B4079
:101BD0000BB1012000E000207047416170470161B6
:101BE00070470AB1016100E041617047012080F354
:101BF000108800BF03480188002080F3108800BFD0
:101C0000084670471800002000B5FFF7A9FB0648FA
:101C1000006882B202F48070B0F5807F01D10120AB
:101C200000BD0020FCE70000080C014005490968E0
:101C3000016004490831096841600249091D0968C9
:101C400081607047E8F7FF1F70B500202E490860DB
:101C500004F06EFBCC2005F0D7FEBE2005F0D4FECC
:101C600004F07EFF054604F07BFF044604F078FF95
:101C70002649086004F074FF2549086004F070FFED
:101C80002449086004F06CFF2349086004F068FFF1
:101C90002249086004F064FF2149086004F060FFF5
:101CA00020490860072C19DD01201F49087045EA0A
:101CB00004201549086008460068C043401C0860BD
:101CC0000846006840F2712148430F490860084601
:101CD0000068A0F543405038086013E00020124926
:101CE000087045EA0420084908600846006840F288
:101CF000712148430449086008460068A0F5434044
:101D00005038086070BD00008C0000206C0000207E
:101D10007000002074000020780000207C0000206B
:101D200080000020840000209000002010B504F006
:101D3000FFFACC2005F068FE442005F065FE10BDDA
:101D400000BFFEE770B502460024002500230020F6
:101D5000958A138B1B0445EA030626F07F4404EAA8
:101D600001068E4201D1012000E0002070BD21B1AA
:101D7000028842F00102028004E002884FF6FE73FE
:101D80001A4002807047000000B585B00121480567
:101D900000F026FD0121082000F042FDC020ADF832
:101DA000000003208DF802001C208DF80300694616
:101DB0001148FFF735FE114800F024F80020ADF877
:101DC00008004BF6FF70ADF80A003020ADF80C00AB
:101DD0004FF48060ADF80E000001ADF81000084827
:101DE000019001210548FFF7C2FF01A9034800F057
:101DF0005BF805B000BD0000000C0140005400403D
:101E0000801A060010B504460B48844209D101210E
:101E1000480500F0F5FC00214FF4001000F0F0FC44
:101E200008E00121880500F0EBFC00214FF4800060
:101E300000F0E6FC10BD00000054004021B1028813
:101E400042F48072028004E002884FF6FF631A4079
:101E50000280704721B1028842F40072028004E0DF
:101E600002884FF6FF531A40028070470CB50246B5
:101E7000002000230193009300920B0F019321F0A7
:101E80007F41019B1BB1009B1433009303E0090CBD
:101E9000009B18330093009B1B680B400BB1012083
:101EA00000E000200CBD00002DE9F04385B00446A1
:101EB0000D460026B1460427DFF8CC80A6884FF6F1
:101EC000C0700640684600F0BBFCDDF808802F4873
:101ED000B8FBF0F01FFA80F946EA0906A6802088D0
:101EE0004FF6FE7108402080002629492868884264
:101EF0000CD828684000B8FBF0F087B2042F00DA55
:101F000004273E4309F10100208427E0E8884BF6CE
:101F1000FF71884206D1286800EB4000B8FBF0F062
:101F200087B209E0286800EBC00101EB0010B8FBA4
:101F3000F0F087B247F48047C7F30B0008B947F0C9
:101F4000010747F4004006434FF4967009FB00F088
:101F50004FF47A7190FBF1F0401C2084A683208816
:101F600040F00100208026884FF6F5300640A88812
:101F70006989084306432680A88929890843208166
:101F800005B0BDE8F083000000127A0040420F0067
:101F9000A086010012B141F0010102E04FF6FE738C
:101FA00019400182704701827047000070B50446F5
:101FB0000D4600BF4FF400311C48FFF757FF0028C3
:101FC000F8D101211948FFF739FF00BF1849174818
:101FD000FFF7B8FE0028F9D0002278211348FFF758
:101FE000D9FF00BF13491148FFF7ACFE0028F9D014
:101FF00021460E48FFF7D7FF00BF0E49891C0B484A
:10200000FFF7A0FE0028F8D029460848FFF7CBFFCD
:1020100000BF0849891C0548FFF794FE0028F8D046
:1020200001210248FFF716FF70BD00000054004078
:10203000010003008200070000BFFEE7704708B5FB
:102040004FF4E06000F056F825208DF800000120E4
:102050008DF801008DF802008DF80300684600F04D
:1020600011F826208DF8000001208DF801000220D3
:102070008DF8020001208DF80300684600F002F898
:1020800008BD000070B5002100230F22C47804B3FE
:10209000154C246804F4E064C4F5E064210AC1F13D
:1020A0000403CA40447804FA03F1847814402143BD
:1020B00009010E4C0678A155047804F01F0501248F
:1020C000AC4005786D11AD0005F1E025C5F8004183
:1020D00009E0047804F01F050124AC40044D0678A3
:1020E000761145F8264070BD0CED00E000E400E0FC
:1020F00080E100E002490143024A1160704700009C
:102100000000FA050CED00E00648006800F4E0600D
:1021100005490843001D03490860BFF3408F00BF15
:10212000FEE700000CED00E00000FA0510B500200D
:1021300000F0A5F810BD70B5002415E004F1B00161
:10214000C8B203F0E0F9002003F0DDF9102003F03D
:10215000DAF9002504E0002003F0DCF9681CC5B2C0
:10216000432DF8DB601CC4B2022CE7DB022415E02F
:1021700004F1B001C8B203F0C6F9002003F0C3F9BE
:10218000102003F0C0F9002504E0002003F0C2F99C
:10219000681CC5B2802DF8DB601CC4B2082CE7DBDC
:1021A00070BD2DE9F04706460F4690461C464FF09D
:1021B000000AE11704EB5171C910A4EBC10131B958
:1021C0002046E11704EB5171C1F3C70506E0204634
:1021D000E11704EB5171C910491CCDB23D4610E026
:1021E0002946304600F0D0F8B14606E0002003F062
:1021F00091F909F1010000F0FF09C145F6DB681C07
:10220000C5B2A542ECDBBDE8F0872DE9F05F0646DC
:102210000F4690461C46DDF828A04FF0000BE11752
:1022200004EB5171C910A4EBC10131B92046E1178B
:1022300004EB5171C1F3C70506E02046E11704EB3A
:102240005171C910491CCDB23D4614E029463046B3
:1022500000F09AF8B1460AE059460BF1010B1AF862
:10226000010003F057F909F1010000F0FF09C14531
:10227000F2DB681CC5B2A542E8DBBDE8F09F70B593
:102280000646002415E004F1B001C8B203F03BF9A2
:10229000002003F038F9102003F035F9002504E0A0
:1022A000304603F037F9681CC5B2802DF8DB601C9E
:1022B000C4B2082CE7DB70BD10B54FF47A7003F0A0
:1022C000B9FDAE2003F01FF9202003F01CF9102007
:1022D00003F019F9B02003F016F9C82003F013F940
:1022E000002003F010F9102003F00DF9402003F056
:1022F0000AF9812003F007F97F2003F004F9A120F7
:1023000003F001F9A62003F0FEF8A82003F0FBF883
:102310003F2003F0F8F8A42003F0F5F8D32003F0F1
:10232000F2F8002003F0EFF8D52003F0ECF8F020ED
:1023300003F0E9F8D92003F0E6F8222003F0E3F8EF
:10234000DA2003F0E0F8122003F0DDF8DB2003F0E0
:10235000DAF8202003F0D7F88D2003F0D4F8142009
:1023600003F0D1F8AF2003F0CEF82E2003F0CBF825
:1023700010BD10B58D2003F0C6F8102003F0C3F88F
:10238000AE2003F0C0F810BD70B504460D4605F14F
:10239000B001C8B203F0B7F8102141EA141003F0FD
:1023A000B2F804F00F0141F0010003F0ACF870BD89
:1023B0002DE9F04180460E46174600247D01314646
:1023C0004046FFF7E1FF00BF06E00D49485D03F01E
:1023D000A1F86D1C601CC4B2102CF6DB701CC1B2DD
:1023E0004046FFF7D1FF002406E00549485D03F0B1
:1023F00091F86D1C601CC4B2102CF6DBBDE8F081B6
:102400003E7A00082DE9F0470646894617469A4667
:102410004FF0000800240025BAF1010F06D0BAF1F0
:10242000020F29D0BAF1030F25D15DE020E0785DDD
:10243000203800F0FF087E2E04DD002609F101009F
:1024400000F0FF0949463046FFF79EFF002409E0EF
:1024500008EB4801384A02EB4101085D03F05AF8E5
:10246000601CC4B2062CF3DBB01DC6B2681CC5B23A
:10247000785D0028DBD15CE032E0785D203800F048
:10248000FF08782E04DD002609F1020000F0FF09A4
:1024900049463046FFF778FF002407E004EB0811B7
:1024A000264A505C03F036F8601CC4B2082CF5DBF9
:1024B00009F10100C1B23046FFF766FF002408E0D1
:1024C00004EB081108311D4A505C03F023F8601C2E
:1024D000C4B2082CF4DB06F10800C6B2681CC5B211
:1024E000785D0028C9D124E01FE0785D203800F035
:1024F000FF08782E04DD002609F1010000F0FF0935
:1025000049463046FFF740FF002407E00C4901EB45
:10251000C801085D02F0FEFF601CC4B2082CF5DBA8
:1025200006F10800C6B2681CC5B2785D0028DCD18F
:1025300000BF00BFBDE8F0875E7B00088680000812
:10254000867D0008704700002DE9F041ADF5825D01
:102550004FF480510FA8FDF748FE00273E4D05F1CE
:10256000110404F11106D5F80120042341F23C01C5
:102570006944012005F009FA0422384941F23C007F
:102580006844FDF744FE002827D035480768022339
:1025900034A219460020FFF735FF012005F0EAF9C3
:1025A0002F480068C11B33A002F0BCFF2B48016814
:1025B0000DF58050C163D5F80120042300F13C01E2
:1025C000012005F0F9F932A002F0ACFF022337A296
:1025D00019460020FFF716FF3AE0D4F801204FF427
:1025E00080530FA9012005F0D0F900200AE00FA9BF
:1025F000095C582904D132490988491C304A1180A4
:10260000411C88B2B0F5805FF1D3641CA0682C49EE
:1026100009880844A060D6F809102948008801EB11
:102620004010C6F809002648018826A002F07AFF6B
:10263000A16854F8010900F58050814208D10223B5
:1026400025A206210020FFF7DDFE012027490870A2
:102650000DF5825DBDE8F0819B0000209400002014
:1026600030030020466F726D617420466C617368A0
:102670002E2E2E00457261736520666C6173682092
:1026800074696D653A25646D732E0D0A00000000B3
:10269000496E697420666C6173682073746F72612F
:1026A00067652073706163652E0D0A00466F726D59
:1026B000617420466C617368204F4B21000000005C
:1026C00030000020486973746F72795258436E74F9
:1026D0003A25640D0A000000466C6173682053744B
:1026E0006F726167652046756C6C210034000020B4
:1026F00008B511A002F016FF1DA220A122A002F031
:1027000011FF2848C07800902648837842780178E5
:1027100025A002F007FF2A48806803BA28484068CD
:1027200002BA2748006801BA26A002F0FBFE02A008
:1027300002F0F8FE08BD00002A2A2A2A2A2A2A2A9C
:102740002A2A2A2A2A2A2A2A2A2A2A2A2A2A2A2AE9
:102750002A2A2A2A2A2A2A2A2A2A2A2A2A2A2A2AD9
:102760002A2A2A2A2A2A2A2A2A2A0D0A00000000AE
:1027700031343A30313A333700000000536570206D
:1027800020382032303137002A2052656C65617361
:10279000652044617465203A2025732025730D0A55
:1027A000000000000C0000202A20465720526576C9
:1027B0003A2025642E25642E25642E25640D0A00FA
:1027C000F80300202A2048572049443A2025303871
:1027D00058202530385820253038580D0A00000080
:1027E00029B1064AD2690243044BDA6104E0034A84
:1027F000D2698243014BDA61704700000010024049
:1028000029B1064A12690243044B1A6104E0034AE3
:1028100012698243014B1A617047000000100240A8
:1028200029B1064A92690243044B9A6104E0034AC3
:1028300092698243014B9A61704700000010024088
:1028400030B500210022002400232D4D6D6805F0D5
:102850000C0121B1042905D0082923D105E0294D17
:10286000056022E0274D05601FE0254D6D6805F4E9
:102870007012234D6D6805F48034022505EB9242F9
:102880001CB9214D554305600BE01D4D6D6805F4E5
:1028900000351DB11C4D5543056002E0194D5543EF
:1028A000056002E0174D056000BF00BF144D6D6864
:1028B00005F0F0010909154D6B5C0568DD404560C8
:1028C0000F4D6D6805F4E061090A104D6B5C4568B9
:1028D000DD4085600A4D6D6805F46051C90A0B4DF5
:1028E0006B5C4568DD40C560054D6D6805F4404191
:1028F000890B074D6B5CC568B5FBF3F5056130BD11
:102900000010024000127A0000093D00540300202C
:102910006403002010B5002001F06AFD022306A226
:1029200000210846FFF76EFD0223542200214420B7
:10293000FFF737FC10BD00005246204F464600000E
:1029400008B5012001F054FD022307A2002108462A
:10295000FFF758FD0648022354220021009044202E
:10296000FFF753FC08BD00005246204F4E00000008
:10297000E287000807480849086008484860084896
:1029800088600848C86008480861084848610846E7
:1029900070470000F5360008B0180020F745000821
:1029A0004D470008D136000829470008194500089E
:1029B0002DE9F04FABB00546802103A8FDF715FCCB
:1029C0000026022004F0F0FF81466878012805D136
:1029D000D9F8090020386049086007E02878012804
:1029E00004D15D48006820385B49086020235A48BC
:1029F00023A90268012004F0C8FFDDF8A7000290B7
:102A000002A8FDF78FFB0446606900F26C7040F687
:102A10003A0188427ED0E06800902069431C6069DA
:102A200000F26C724DA103A802F08CFD012303AAF1
:102A300000210846FFF7E6FC206800904BA103A8A0
:102A4000D4E9013202F07EFD012303AA19460020D9
:102A5000FFF7D8FC802103A8FDF7C7FB00270BE098
:102A60000DF18F01CA5D03A9881944A102F06AFD26
:102A7000B01CC6B2781CC7B2092FF1DB012341A2FA
:102A800002210020FFF7BEFC012303AA022112202D
:102A9000FFF7B8FCBDF8A3203BA103A802F052FD4C
:102AA000012303AA03210020FFF7ACFC9DF9A0201D
:102AB00038A103A802F046FD012303AA0421002047
:102AC000FFF7A0FCBDF9A12035A103A802F03AFD53
:102AD000012303AA05210020FFF794FC802103A80D
:102AE000FDF783FB2698FDF784FD83462F49FDF70C
:102AF000B1FB8246FDF7D8FD07463A460B462CA1AE
:102B000003A802F01FFD012303AA06210020FFF7FE
:102B100079FC00E017E02798FDF76BFD8346234919
:102B2000FDF798FB8246FDF7BFFD07463A460B4688
:102B300021A103A802F006FD012303AA072100201A
:102B4000FFF760FC05E002231DA204212020FFF70F
:102B500059FC2BB0BDE8F08F6C02002025642D25B8
:102B60003032642D253032640000000020253032E0
:102B7000643A253032643A253032640025303258C8
:102B80000000000049443A005278436E743A202510
:102B900064000000534E523A202564644200000055
:102BA000525353493A256464426D00008096184B95
:102BB000453A2025660000004E3A202566000000B8
:102BC0004E6F204461746121000000002DE9F04F38
:102BD000ABB00546802103A8FDF707FB4FF00009C5
:102BE000022004F0E1FE0646A878012808D17348C7
:102BF000006828B9D6F809002038704908601CE040
:102C0000A878012805D16D48006820386B49086014
:102C100013E02878012810D1D6F809002038674938
:102C20000968884204D1654800686449086004E086
:102C300062480068203061490860A878012802D005
:102C4000287801287DD120235C4823A9026801202F
:102C500004F09BFEDDF8A700029002A8FDF762FADF
:102C60000446606900F26C7040F63A01884269D00F
:102C7000E06800902069431C606900F26C7250A10A
:102C800003A802F05FFC012303AA00210846FFF716
:102C9000B9FB206800904EA103A8D4E9013202F0EC
:102CA00051FC012303AA19460020FFF7ABFB80214A
:102CB00003A8FDF79AFA00270EE00DF18F01CA5D17
:102CC00003A901EB090046A102F03CFC09F1020056
:102CD00000F0FF09781CC7B2092FEEDB012342A2E6
:102CE00002210020FFF78EFB012303AA02211220FC
:102CF000FFF788FBBDF8A3203CA103A802F022FC4B
:102D0000012303AA03210020FFF77CFB9DF9A020EB
:102D100039A103A802F016FC012303AA0421002014
:102D2000FFF770FBBDF9A12036A103A802F00AFC51
:102D3000012303AA05210020FFF764FB802103A8DB
:102D400001E037E030E0FDF750FA2698FDF751FC3E
:102D500083462F49FDF77EFA8246FDF7A5FC07461C
:102D60003A460B462BA103A802F0ECFB012303AA71
:102D700006210020FFF746FB2798FDF73AFC834623
:102D80002349FDF767FA8246FDF78EFC07463A466F
:102D90000B4622A103A802F0D5FB012303AA0721B9
:102DA0000020FFF72FFB05E002231EA204212020B4
:102DB000FFF728FB2BB0BDE8F08F00007002002069
:102DC00025642D253032642D25303264000000004A
:102DD00020253032643A253032643A25303264009E
:102DE000253032580000000049443A005278436EC2
:102DF000743A202564000000534E523A2025646442
:102E000042000000525353493A256464426D000069
:102E10008096184B453A2025660000004E3A202542
:102E2000660000004E6F20446174612100000000C4
:102E300010B58EB00446342101A8FDF7D6F9174825
:102E4000028817A101A802F07DFB022301AA1946FE
:102E50000020FFF7D7FA342101A8FDF7C6F913487F
:102E6000028813A101A802F06DFB022301AA04212C
:102E70000020FFF7C7FA342101A8FDF7B6F90F4883
:102E800002880FA101A802F05DFB022301AA06211E
:102E90000020FFF7B7FA0EB010BD00003000002090
:102EA000485F5258436E743A256400003600002093
:102EB000435F5258436E743A25640000320000208C
:102EC000466C617368457272436E743A2564000003
:102ED00021B1028842F04002028004E002884FF6ED
:102EE000BF731A40028070470246002013890B40CE
:102EF0000BB1012000E0002070470146888970472F
:102F00008181704710B50022028802F441520B887B
:102F10004C8823438C882343CC8823430C89234348
:102F20004C8923438C892343CC8923431A43028051
:102F3000838B4FF2FF74234083830B8A038210BD7F
:102F40007047000030B51648006890F8270000F080
:102F50000700421C1248006890F83000C30910486E
:102F6000006890F8300000F0060008B1012000E091
:102F7000002004460A48006890F8321008480068AB
:102F800090F8300000F01000102801D1022000E07D
:102F900000200546D01820440844284480B230BDA3
:102FA0009402002070B505460C4606480088208033
:102FB000002004490880228803492846FDF7FCF8D0
:102FC00070BD0000A8020020381900202DE9F04F44
:102FD00089B001200890F84800780C287ED2DFE8FC
:102FE00000F0060784EFEDECEBEAE9E8E7E6BFE284
:102FF000F248006890F8300000F01000102805D169
:103000004C20EE49096881F8400004E00C20EB49AF
:10301000096881F84000E120E849096881F8410029
:103020000222E64801684031402001F0A5FB05205E
:1030300000F002FB4FF48071E148FDF7D6F8E1495A
:103040004868FDF7ECFACDE90201FFF77BFF01903C
:10305000FDF7E5FA80460022DB4BFDF7E0F9064676
:10306000DDE90223FDF74DFA0022D84BCDE904013A
:10307000FDF7D5F9CDE9060103F092FD04460022E3
:10308000D34BFDF725F98246FDF7F5FA80B2D14919
:1030900008600846006800EB5000086008460068B9
:1030A000CD490860CD480068CD490860CD49086029
:1030B000A020C249096881F83500C048006890F82E
:1030C0003510352001F050FB0020C7490870C74972
:1030D0000870C7490870C749087000E047E2C64950
:1030E00008800220B449087042E201F073FA012816
:1030F00009D1BD48007830B90120BB490870B748F4
:103100000068B849086001F053FA01281ED1B6489A
:10311000007801281AD1B5480078B8B90120B34920
:10312000087000F063FAB54A03C200F037FAB449F8
:10313000086000F073FAB3490870A8480068A8490D
:103140000860A849086003209B490870A7480078D8
:10315000B8B9A5480078012813D1A0480068A14952
:103160000968401A9C49096888420AD90120924995
:10317000087092480068407B40F020010D2001F06B
:10318000F3FA9A48007888B99748007870B9984857
:10319000007858B99148006891490968401A8D49EA
:1031A0000968884202D9052083490870E0E1D8E126
:1031B000D1E184E14FE127E1EAE0D6E0CCE0FFE7AE
:1031C0008D480088B0F5807F03DD06207A490870BD
:1031D000CEE101F0E3F9012853D187480088A8B96E
:1031E0008448007890B97548006890F8300000F085
:1031F0008000802804D101217F4801F0F3F905E027
:103200006E48006890F832007B4908807A48008850
:1032100078490978401A6949096891F8351001F030
:103220003F01884217DD654A126892F8352002F0A6
:103230003F01634A6F4B1B78D01801F0D3F95F4808
:10324000006890F8350000F03F006A4909780844AA
:103250006849087015E0684A1278664B1B78D21AE4
:10326000D1B2574A634B1B78D01801F0BBF96248C2
:10327000007860490978401A5E49097808445D4938
:10328000087001F081F9012856D15448006854496A
:1032900008605948008890BB5648007878BB47487A
:1032A000006890F8300000F08000802804D10121EF
:1032B000514801F097F905E04048006890F8320065
:1032C0004D4908804C4A12784A4B1B78D21AD1B229
:1032D0003B4A484B1B78D01801F084F946480078E7
:1032E00044490978401A434909780844414908701B
:1032F00001203F49087004202F4908701CE0FFE7B7
:103300003D4A12783B4B1B78D21AD1B22C4A394B2A
:103310001B78D01801F066F93748007835490978EC
:10332000401A34490978084432490870012030496C
:1033300008700420204908702D48007858B92748A3
:10334000006827490968401A22490968884202D959
:103350000520194908700BE100202649087001205A
:10336000154908700220089002E1002021490870E8
:103370002149088011480068407B40F020010D2061
:1033800001F0F2F901200C49087003200890EFE0E9
:103390000020184908701849088008480068407BD8
:1033A00040F020010D2001F0DFF9012002490870F2
:1033B00006200890DCE00000990200209402002022
:1033C00038190020780200200000204000408F4083
:1033D0000000F03F9C020020A002002030030020EB
:1033E000C0020020C4020020A4020020A502002088
:1033F000A6020020AA020020A8020020B00200209D
:10340000B8020020BC02002001205C49096881F854
:10341000400020205949096881F84100022257489C
:1034200001684031402001F0A7F99820534909680C
:1034300081F835005148006890F83510352001F0CA
:1034400093F9032000F0F8F808204D490870002097
:103450004C4908708CE001F0B5F801282ED147489E
:10346000006890F8300000F08000802803D101212E
:10347000454801F0A1F944480088002808DD424889
:103480000088402804DC404800784049087002E089
:1034900020203E4908703D4801783D4801F08CF9F4
:1034A000384800783949097808443649087039485D
:1034B00000683949086009203149087058E001F076
:1034C0006DF870BB304800882E490978401A2F49A2
:1034D000097888420FDD2E492A4A127888182B492C
:1034E000097801F069F927480078284909780844E3
:1034F0002449087015E0244A1278224B1B78D21A0E
:10350000D1B2234A1F4B1B78D01801F055F91E4841
:1035100000781C490978401A1A4909780844194961
:10352000087001F031F8012809D11A4800681A49D9
:1035300008600A2012490870012000F07DF8154843
:10354000006815490968401AB0F57A7F02D90B2046
:103550000B4908700CE0002009490870042008900D
:1035600006E00020064908700520089000E000BF32
:1035700000BF089809B0BDE8F08F00009402002059
:1035800099020020AB020020C8020020980200200F
:103590003819002030030020CC0200202DE9F0472C
:1035A0000222104801681B311B2000F0CBFF0D499F
:1035B0000968097F0B4A1268D27E41EA0220FDF7B2
:1035C0001DF88046FDF738F88246FDF717F80646E5
:1035D0000022054BFCF723FF0446FDF72DF8BDE85C
:1035E000F087000094020020A8CB484070B50A483C
:1035F00001681131112000F09BFF07490968487CE0
:10360000FDF70DF8044600224FF08043FCF779FFE8
:1036100081F0004170BD00009402002010B5054803
:1036200001680C310C2000F083FF02480068007B29
:10363000400910BD9402002070B5044600251448CE
:103640000068407820F0F8001249087008460078B9
:1036500084421CD0032C01D1012500E000250E4836
:103660000078854204D00C480570284601F0ADF87A
:1036700007480068407800F0F800204304490968D2
:103680004870034800684178012001F06DF870BD72
:1036900094020020D0020020D102002001490870CD
:1036A000704700009902002070B504460D46054899
:1036B0000580028821460448FCF77EFD0720034967
:1036C000087070BDC802002038190020990200203F
:1036D00070B504460D460648007820B929462046B4
:1036E000FFF760FC03E02946204600F095F870BD26
:1036F000750200201CB51648164908601649086076
:1037000000F040F800F077FF01A9062000F010FF5C
:103710006946422000F00CFF0CE010A001F002FF0F
:10372000022312A203210020FEF76CFE4FF4FA6080
:1037300002F080FB9DF804006C28EED101201049B6
:1037400008700846007800F065FF00F079F81CBDAD
:10375000C818002094020020F00200204861726422
:103760002053504920457272210D0A005246204DC7
:103770006F64756C65204572726F722100000000E5
:103780007502002008B501211D20FFF749F810201F
:103790008DF8030003208DF8020001F039FA0420AF
:1037A0008DF80300C002ADF8000069461448FEF72A
:1037B00037F94FF48040ADF8000069461048FEF735
:1037C0002FF94FF40040ADF8000069460C48FEF7B1
:1037D00027F90120ADF8000069460A48FEF720F9F4
:1037E0000220ADF8000069460648FEF719F91020DE
:1037F000ADF8000069460448FEF712F908BD000064
:103800000010014000080140000C01400148007810
:1038100070470000F402002070B505460C460648CB
:103820000088208000200449088022880349284617
:10383000FCF7C2FC70BD0000F6020020381A002020
:1038400010B500202D49087000F0D8FB6F222C49DC
:10385000012000F077FE20202A49096808736F22B2
:103860002749012000F088FF2749086800F012FD71
:103870002549887900F0E0FD2349C87900F0C8FBAC
:103880002149087A00F0B6FC1F49487900F0B6FDDE
:103890001D49487A00F0DCFB40F2FF3000F0FAFDF1
:1038A0001949087E00F0C6FC012000F0EFFB102053
:1038B00000F0D4FC14480068144988420DD98020D7
:1038C00000F052FC012000F069FC14200E49087140
:1038D00091F9040000F00AFD0CE0002000F044FC27
:1038E000002000F05BFC0E200749087191F90400EC
:1038F00000F0FCFC012000F005FC10BDF4020020EB
:10390000C9180020F0020020D40200200057A6169B
:103910002DE9F04F85B001200490FE4800780B2877
:1039200074D2DFE800F0060774CCFEFDFCFB73FAEE
:10393000F90041E3012000F0E5FB9D20F64909680C
:103940004874F5480068417C112000F00DFFF348F1
:10395000C07A012816D1F148007BEF49096881F847
:103960002400ED4801681C311C2000F0E1FDEA490B
:103970000968097F01F03F01E94A52F8210000F08F
:1039800089FC04E0FF20E449096881F82400E2484A
:10399000006890F82410242000F0E6FE0020DE49A4
:1039A000096881F83F00DC49096881F8400002227B
:1039B000D94801683F31402000F0DEFED748807AC8
:1039C000012803D1062000F09DFB0EE0D2480068DC
:1039D000C07BD14909684873CF480068417B0D20FE
:1039E00000F0C2FE052000F08DFB4FF48071CD4841
:1039F000FCF7FBFBC9484069CB490860CB4800682D
:103A0000CB4908600220C3490870D5E2D3E200F038
:103A1000BBFD01281ED1C5480068C5490860BF48E4
:103A2000C07A01280FD1BC4801681C311C2000F06D
:103A30007FFDB9490968097F01F03F01B84A52F892
:103A4000210000F027FC4021122000F08DFE032011
:103A5000B049087000F0ACFD01281FD1B3480068E0
:103A6000B3490860AD48C07A01280FD1AA4801685F
:103A70001C311C2000F05CFDA7490968097F01F09A
:103A80003F01A74A52F8210000F004FC0221122055
:103A900000F06AFE00F0A4FAA64908709F48807AF8
:103AA00001280BD1A1480068A1490968401A9E4924
:103AB0000968884202D90420964908707CE2964839
:103AC00001681231122000F033FD93480068807CB9
:103AD00000F0200020280ED12021122000F044FE0A
:103AE0008E48807A012802D18A49087002E00220BB
:103AF0008849087060E203A9192000F019FD9DF8BB
:103B00000C0000F08000A0B19DF80C00C043401CE8
:103B1000C0F38500884905E031E20CE202E2D9E118
:103B20005EE157E1087008460078404240B20870F4
:103B300004E09DF80C0080087F4908707748006811
:103B40007E4988424ED27C4890F9000000282ADA4B
:103B5000794890F90000FCF751FD82468B466F488A
:103B60004079774901EBC00003C802460B46CDE916
:103B7000000100207349FCF752FC0022724BCDE992
:103B80000201FCF7A5FB06460022704BFCF7A0FBE8
:103B9000044652465B46FCF79BFB8046FCF7B0FDB3
:103BA0006B4908606BE05C4801681A311A2000F02C
:103BB000BFFC59490968887EFCF731FD804689467B
:103BC00056484079634901EBC000D0E900633246B2
:103BD00040464946FCF77CFB0446FCF791FD5C49F6
:103BE00008604CE0544890F90000002829DA524857
:103BF00090F90000FCF702FD80468946474840796D
:103C00004F4901EBC001D1E90063324600204D4924
:103C1000FCF705FC044600224B4BFCF759FB002245
:103C20004D4BCDE90001FCF753FB42464B46CDE935
:103C30000201FCF74DFB8246FCF762FD4449086037
:103C40001DE0354801681A311A2000F071FC324934
:103C50000968887EFCF7E3FC804689462F48407956
:103C60003E4901EBC000D0E9006332464046494678
:103C7000FCF72EFB0446FCF743FD35490860274856
:103C8000807A01282FD124480068C07B2249096826
:103C9000487321480068417B0D2000F065FD1F48F6
:103CA000407A01280DD11C48006890F822002C4968
:103CB00008801948006890F822101A4800F092FC19
:103CC0007BE0154801681331132000F031FC1248E5
:103CD0000068C07C224908800F480068C17C1148F8
:103CE00000F080FC69E00C4801681031102000F001
:103CF0001FFC0A48407A012842D10748006890F822
:103D000022001749088004480068007C02490968BD
:103D1000487327E0F4020020F0020020D4020020C3
:103D2000F8880008381A002008030020300300201B
:103D30000403002000030020F8020020008F42331B
:103D4000088800080000244000C065C00000104042
:103D5000FC0200205888000800001840A8880008CD
:103D6000F602002097480068417B0D2000F0FCFC23
:103D70009448006890F82210934800F033FC1CE04F
:103D8000904801681331132000F0D2FB8D48006881
:103D9000C07C8E4908808B480068007C894909688E
:103DA000487388480068417B0D2000F0DDFC8548A1
:103DB0000068C17C844800F015FC8548807A0128A1
:103DC00002D18449087002E0022082490870022072
:103DD0000490F1E001207F49087003200490EBE09B
:103DE000012000F08FF97A48C07A01281AD1F52015
:103DF0007449096848747648007B7249096881F8FB
:103E00002400704801681C311C2000F091FB6D49B2
:103E10000968097F01F03F016F4A52F8210000F064
:103E200039FA08E0F72067490968487400206549B5
:103E3000096881F824006348006890F82410242061
:103E400000F092FC5F480068417C112000F08CFC7F
:103E5000624800785B49096881F822005948006887
:103E600090F82210222000F07FFC002055490968BC
:103E7000887354480068817B0E2000F075FC51481F
:103E80000068807B4F49096848734E480068417B51
:103E90000D2000F069FC4B48006890F822104A4859
:103EA00000F08AFC41204749096881F83F00402022
:103EB0004449096881F840000222424801683F31C4
:103EC000402000F059FC032000F01CF90620414975
:103ED000087071E000F058FB012806D1082112207B
:103EE00000F042FC07203B49087000F061FB01280C
:103EF00017D13748C07A01280FD1324801681C31E8
:103F00001C2000F015FB2F490968097F01F03F01D3
:103F1000314A52F8210000F0BDF90221122000F0D0
:103F200023FC49E0012000F0EDF800202949087049
:103F30000420049040E0012000F0E4F8FA20214938
:103F4000096848741F480068417C112000F00CFC8F
:103F500000201C49096881F83F001A49096881F866
:103F600040000222174801683F31402000F004FC65
:103F7000072000F0C7F80A20164908701CE000F07E
:103F800021FB012816D10421122000F0EDFB00F0E6
:103F900021FB012809D10121122000F0E5FB0120BD
:103FA0000C4908700820049004E0002009490870BA
:103FB0000720049000E000BF00BF049805B0BDE8F2
:103FC000F08F0000F0020020381A0020F6020020D6
:103FD000D4020020F4020020F88800080C0300201E
:103FE00010B5054801680C310C2000F0A1FA024818
:103FF0000068007B400910BDF002002010B50348A6
:1040000001684131422000F093FA10BDF002002017
:1040100010B504460C4801681D311D2000F088FAD7
:1040200009480068407F00F0F10040EA440006497A
:104030000968487704480068417F1D2000F094FB20
:104040000248C47110BD0000F0020020D40200201C
:1040500010B504460B4801681D311D2000F068FAB8
:1040600008480068407F00F0FE00204305490968C9
:10407000487704480068417F1D2000F075FB024826
:10408000447210BDF0020020D402002010B5044696
:104090000C4801682631262000F04AFA09480068D9
:1040A00090F8260000F0F70040EAC40005490968CE
:1040B00081F826000348006890F82610262000F0BA
:1040C00053FB10BDF002002010B504460C480168F7
:1040D0003031312000F02CFA0948006890F83000A7
:1040E00000F0F80020430649096881F830000448D0
:1040F000006890F83010312000F036FB10BD000051
:10410000F002002070B5044600251448006840788D
:1041100020F0F800124908700846007884421CD04C
:10412000032C01D1012500E000250E4800788542CE
:1041300004D00C480570284600F047FB074800688B
:10414000407800F0F80020430449096848700348AB
:1041500000684178012000F007FB70BDF0020020EC
:104160000E0300200F03002010B504460A48016822
:104170000931092000F0DCF907480068407A00F0B6
:104180007F00204304490968487203480068417A67
:10419000092000F0E9FA10BDF002002010B5044635
:1041A000134801684C314D2000F0C2F910480168F5
:1041B0000931092000F0BCF90D480068407A00F090
:1041C0008000802807D1012C0AD18720084909687E
:1041D00081F84C0004E084200549096881F84C000E
:1041E0000348006890F84C104D2000F0BDFA10BD57
:1041F000F002002010B504460C4801681E311E2054
:1042000000F096F909480068807F00F0FB0040EA62
:10421000840006490968887704480068817F1E2069
:1042200000F0A2FA0248047210BD0000F002002063
:10423000D402002010B504460648006880F82240E9
:104240000448006890F82210222000F08DFA0248FD
:10425000047610BDF0020020D402002010B5044600
:1042600002220B4801682031202000F06BF9200A5F
:104270000749096881F820000549096881F821404B
:104280000222034801682031202000F075FA10BD99
:10429000F00200202DE9F041044611480460204658
:1042A000FCF7BDF9054600220E4BFCF72AF907463C
:1042B000FCF7E1F90446200C0B4909688871200AD3
:1042C00009490968C871084909680C72032206483F
:1042D0000168891D062000F04FFABDE8F08100005A
:1042E000D402002080844E40F002002010B5044625
:1042F0003D4801680931092000F01AF93A4801687F
:104300004C314D2000F014F937480068407A00F035
:104310008000802841D13448006890F84C0000F0BB
:10432000870087281CD1052C00DA0524142C00DD19
:1043300014242D480068407A00F08F0040F070008F
:1043400029490968487228480068407A00F0F0005E
:10435000611F01F00F0108432349096848723AE0E0
:10436000022C00DA0224112C00DD11241E48006802
:10437000407A00F08F0040F070001B4909684872D5
:1043800019480068407A00F0F000A11E01F00F010A
:1043900008431549096848721DE0B4F1FF3F01DA8E
:1043A0004FF0FF340E2C00DD0E240F480068407AD9
:1043B00000F08F0040F070000B49096848720A480D
:1043C0000068407A00F0F000611C01F00F01084322
:1043D00005490968487204480068417A092000F0DC
:1043E000C3F90248047110BDF0020020D40200207D
:1043F0000149087070470000F402002010B504461F
:104400000B4801681D311D2000F092F80848006833
:10441000407F64F31F100649096848770448006824
:10442000417F1D2000F0A0F90248447110BD00003A
:10443000F0020020D402002010B504460C2C01DD4F
:104440000C2402E0062C00DA0624062C03D10520F9
:10445000FFF73AFE02E00320FFF736FE0B48016843
:104460001E311E2000F064F808480068807F64F365
:104470001F1006490968887704480068817F1E205C
:1044800000F072F90248847110BD0000F0020020B3
:10449000D402002010B5044602220F4801681E31E4
:1044A0001E2000F04FF80C480068807F00F0FC00F0
:1044B0006FF0FC0101EA2421084307490968887765
:1044C00005490968CC770222034801681E311E2085
:1044D00000F052F910BD0000F002002070B5044653
:1044E0000D460948C07A10B90848058002E0FF204F
:1044F000064908800548028821460548FBF75CFE0E
:1045000005200449087070BDD40200200C0300206F
:10451000381A0020F402002010B50448007810B9C1
:10452000FEF754FD10BDFFF7F3F9FBE7750200201D
:1045300070B504460D4601222946204600F002F8D7
:1045400070BD00002DE9F04105460E4617460022D9
:1045500010210C48FDF745FB05F07F0000F026FC1C
:10456000002405E0002000F021FC3055601CC4B29E
:10457000BC42F7DB012210210248FDF732FBBDE807
:10458000F08100000008014010B54FF400510248CE
:10459000FDF71AFB10BD00000010014010B54FF4EC
:1045A00080410248FDF710FB10BD000000100140E3
:1045B00010B54FF400410248FDF706FB10BD0000A6
:1045C0000010014010B501210148FDF7FDFA10BDB2
:1045D0000008014010B502210148FDF7F5FA10BDB1
:1045E0000008014070B504460D462A4621460020C9
:1045F000FFF7A8FF70BD10B5012000F069F80A2090
:1046000001F018FC002000F063F80A2001F012FC11
:1046100010BD000010B5044629480078A04200D122
:1046200010BD2748047027480470007801282BD15A
:104630000020FFF767FD24480068407800F07F0005
:1046400040F080002049096848701F4800684178A0
:10465000012000F089F80120FFF754FD00201A49DD
:10466000096881F83F001849096881F84000022272
:10467000154801683F31402000F07EF86F22134951
:104680000120FFF75FFF18E00020FFF73BFD0E4819
:104690000068407800F07F000B49096848700A48BC
:1046A00000684178012000F05FF80120FFF72AFD43
:1046B0006F2206490120FFF745FF00BFB0E7000069
:1046C0007602002075020020F0020020C9180020A8
:1046D00038B50446012C12D12020ADF8000003208B
:1046E0008DF8020010208DF8030069460D48FDF793
:1046F00097F9002220210B48FDF773FA11E02020E2
:10470000ADF8000003208DF8020010208DF80300A2
:1047100069460448FDF784F9012220210148FDF78C
:1047200060FA38BD000C014070B504460D460648DD
:10473000007820B929462046FEF7B6FF03E0294657
:104740002046FFF7CBFE70BD7502002010B505486E
:10475000007818B90120FEF7A1FF02E00120FFF761
:1047600047FE10BD7502002013B50446012201A9C1
:10477000204600F001F81CBD2DE9F04105460E462B
:104780001746002210210B48FDF72BFA45F0800058
:1047900000F00CFB002404E0305D00F007FB601C1F
:1047A000C4B2BC42F8DB012210210248FDF719FA1D
:1047B000BDE8F0810008014070B504460D462A4668
:1047C00021460020FFF7D8FF70BD10B5044614B194
:1047D00000F02CFA01E000F01BFA10BD10B5044601
:1047E00001200B4908702078012807D1094800787A
:1047F00008B9012000E0002006490870054800784B
:1048000018B9FF20FDF73BFD01E0FDF78FFC10BD5F
:1048100050000020740200202DE9FF4F8BB092461B
:104820001A9C582003904FF0000904A80290FF2022
:104830008DF810001C9850B90B980168CDF8111034
:104840004168CDF81510007A8DF819001AE01C980F
:1048500001280ED10B980068CDF81100042505E061
:1048600030210DF111004155681CC5B2092DF7DB4F
:1048700008E0002504E00DF111004555681CC5B2A3
:10488000092DF8DB0C98CDF81A00CDF81EA0DDE953
:104890001801FBF7D1FE00B2ADF823000E988DF899
:1048A0002200ADF825401B98ADF82700002506E052
:1048B0000298401C405D80EA0909681CC5B2182DA9
:1048C000F6D38DF82990F0208DF82A001B220120C4
:1048D000029902F079FF012002F01AFF1B2200204A
:1048E000029902F071FF002002F012FF2046E1174A
:1048F00004EBD1614911A4EB41118E4A02EB411145
:104900008DA213880B8092788A70E11704EBD16135
:104910004911A4EB4111874A02EB4111DDF8112046
:1049200041F8032FDDF815204A609DF819200A721E
:10493000E21704EBD2625211A4EB42127D4B03EB5F
:1049400042120C99D160E11704EBD1614911A4EB3B
:1049500041111A4602EB4111C1F810A0E21704EB15
:10496000D2625211A4EB421203EB42120E9911755E
:10497000DDE91801FBF760FE00B2A346E11704EB86
:10498000D1614911A4EB41116A4A02EB4111A1F82E
:1049900015002046E11704EBD1614911A4EB411148
:1049A00002EB4111A1F81740E21704EBD262521159
:1049B000A4EB42125F4B03EB42121B99A2F81910B1
:1049C0005E490968E21704EBD2625211A4EB42126D
:1049D00003EB4212C2F81B104FF00009E11704EB81
:1049E000D1614911A4EB41111A4602EB4111019129
:1049F000002505E00198405D80EA0909681CC5B200
:104A00001F2DF7D32046E11704EBD1614911A4EB28
:104A10004111484A02EB411181F81F904848007843
:104A2000002840D1022002F0BFFF8046012002F0A2
:104A3000BBFF0646A346E01704EBD0604011A4EB91
:104A400040103C4B03EB4011D8F8092020230120F3
:104A500002F0B2FF07463FBBC82001F0EBF9E017B8
:104A600004EBD0604011A4EB4010324B03EB40113B
:104A7000D8F809202023012002F09EFF0746002FCE
:104A800054D14FF400612F48FDF7A9F8C82001F078
:104A9000D1F94FF400612B48FDF79FF82A480088B0
:104AA000401C2949088041E0D8F809002030C8F8A6
:104AB0000900D6F80920012303A9184602F07CFF5B
:104AC0000746FFB9C82001F0B5F9D6F8092001233F
:104AD00003A9184602F070FF07463FBB4FF4006180
:104AE0001848FDF77CF84FF47A7001F0A3F94FF401
:104AF00000611448FDF771F813480088401C124902
:104B0000088013E0761CB068401CB060B16856F8AD
:104B1000010900F58050814208D102230BA2042133
:104B20000020FDF76FFC0120054908700FB0BDE8BB
:104B3000F08F0000040400204651480008000020C7
:104B4000340000200008014032000020466C6173F0
:104B5000682053746F726167652046756C6C210024
:104B600010B500F001F810BD0CB5002001900090C8
:104B70002548006840F480302349086000BF22487F
:104B8000006800F4003000900198401C01900098EB
:104B900018B90198B0F5A06FF1D11B48006800F476
:104BA000003010B10120009001E00020009000983A
:104BB000012828D11548006840F01000134908600A
:104BC0000846006820F00300086008460068086096
:104BD0000D4840680C4948600846406848600846EF
:104BE000406848600846406820F003004860084676
:104BF000406840F00100486000BF0348406800F092
:104C00000C000428F9D10CBD001002400020024025
:104C100010B501210448FCF7E2FF4FF4007102488F
:104C2000FCF7DBFF10BD0000000C014010B50121B6
:104C30000448FCF7D2FF4FF400710248FCF7CFFFA5
:104C400010BD0000000C014070B500245048006801
:104C500000785049087050480078504908704D4815
:104C60000078032848DB00BF43E04C49097801EB9A
:104C70008101474A126802EB81010122486848A17C
:104C8000FBF7C5FA28B34548007800EB8000404B9D
:104C90001B6803EB80004268601C4006010E022383
:104CA0001220FDF7AFFB3D4800783E490978884265
:104CB0000FD13C480078032190FBF1F201FB120078
:104CC000401C4006050E022337A229460020FDF7AE
:104CD00099FB32480078401C30490870084600783B
:104CE0002C490978884202D100202C490870601CA8
:104CF000C4B2032CB9DB49E0002443E0274909781A
:104D000001EB8101224A126802EB8101012248680D
:104D100023A1FBF77CFA28B32048007800EB800041
:104D20001B4B1B6803EB80004268601C4006010EB1
:104D300002231220FDF766FB18480078194909780C
:104D400088420FD117480078032190FBF1F201FB54
:104D50001200401C4006050E022313A22946002023
:104D6000FDF750FB0D480078401C0C4908700846C0
:104D7000007808490978884202D100200749087064
:104D8000601CC4B2034800788442B7DB70BD0000E9
:104D900060020020670200206402002066020020FA
:104DA00020000000650200202D3E000010B50446E2
:104DB00000BF02210A48FEF797F80028F9D02146E3
:104DC0000748FEF79DF800BF01210548FEF78CF863
:104DD0000028F9D00248FEF790F8C0B210BD0000DC
:104DE0000030014000B587B0012141F20500FDF718
:104DF00017FD03208DF8060018208DF80700E0202D
:104E0000ADF8040001A91D48FCF70AFE10208DF83A
:104E1000070003208DF806001020ADF8040001A95A
:104E20001648FCF7FDFD012210211448FCF7D9FEBD
:104E30000020ADF808004FF48270ADF80A000020A1
:104E4000ADF80C00ADF80E00ADF810004FF4007096
:104E5000ADF812001020ADF814000020ADF81600D7
:104E60000720ADF8180002A90548FEF74BF801210C
:104E70000348FEF72DF807B000BD00000008014010
:104E80000030014010B500F009F803480068401CEC
:104E90000149086010BD00003003002010B5002457
:104EA00006E0174901EBC40001F01EF8601CC4B213
:104EB000042CF6DB13480068401C124908600846C1
:104EC00000686FF00041884202D100200D4908605F
:104ED0000D480068401C0C490860B0F57A7F0BD380
:104EE0000020086009480068401C0849086008481C
:104EF0000068401C06490860FBF78CFF10BD0000ED
:104F00002C08002058000020600000202C00002009
:104F10000800002010B51348006840F00100114956
:104F2000086008464068104908400E494860084635
:104F300000680E4908400B4908600846006820F4E4
:104F4000802008600846406820F4FE0048604FF466
:104F50001F008860FFF704FE4FF0006004490860FE
:104F600010BD0000001002400000FFF8FFFFF6FE39
:104F700008ED00E03EB5044601210846FDF730FC8F
:104F80000120ADF8040024B941F61F40ADF800003F
:104F900016E0012C04D140F2CF20ADF800000FE064
:104FA000022C09D10C4800680C49B0FBF1F0401EFE
:104FB00080B2ADF8000003E041F61F40ADF80000FC
:104FC0000020ADF806001020ADF80200694680060A
:104FD00000F032F83EBD00004003002040420F00C8
:104FE00070B50446A5B20121880700F013F82946E0
:104FF0004FF0804000F01DF804E04FF0804000F0DA
:1050000015F80546012DF8DC00214FF0804000F036
:1050100001F870BD21B1028842F00102028004E073
:1050200002884FF6FE731A40028070470146888C52
:105030007047818470470000002202881D4B98420F
:105040000ED01D4B98420BD0B0F1804F08D01B4BB7
:10505000984205D01A4B984202D01A4B984204D17C
:105060004FF68F731A404B881A43174B984207D05C
:10507000164B984204D04FF6FF431A40CB881A4390
:1050800002808B8883850B8803850A4B98420BD05E
:10509000094B984208D00E4B984205D00D4B9842D0
:1050A00002D00D4B984201D10B7A038601238382F3
:1050B00070470000002C0140003401400004004013
:1050C00000080040000C00400010004000140040A8
:1050D00000400140004401400048014070B50446D2
:1050E0000D460BE02178084800F007FA00BF402188
:1050F000054800F034F90028F9D0641C2800A5F117
:105100000101CDB2EED170BD0038014000B587B0CD
:10511000012144F20400FDF783FB4FF40070ADF869
:10512000180018208DF81B0003208DF81A0006A91E
:105130002048FCF775FC4FF48060ADF8180004209F
:105140008DF81B0006A91B48FCF76AFC25208DF88A
:10515000140000208DF815008DF8160001208DF840
:10516000170005A8FCF78EFF4FF4E13001900020F6
:10517000ADF80800ADF80A00ADF80C00ADF810006D
:105180000C20ADF80E0001A90B4800F045F90122F2
:1051900040F22551084800F019F90121064800F0B5
:1051A000D2F8142000F046FE4021034800F0C2F877
:1051B00007B000BD000801400038014010B540F2C2
:1051C0002551194800F0D8F868B3174800F090F955
:1051D000C4B22146002002F01DFA144800780028CD
:1051E00004DD12480078401C104908700D2C06D1CF
:1051F0000F4804700D480078401C0C4908700B489B
:10520000007802280FD10A4844700020074908702E
:10521000074800780D2806D1054840780A2802D1B1
:1052200001200449087010BD0038014056000020DC
:1052300054000020CE00002000B587B001210420DA
:10524000FDF7EEFA01214804FDF7CAFA0420ADF893
:10525000180018208DF81B0003208DF81A0006A9ED
:105260002048FCF7DDFB0820ADF8180004208DF87D
:105270001B0006A91B48FCF7D3FB26208DF8140061
:1052800000208DF8150001208DF816008DF817000C
:1052900005A8FCF7F7FE4FF4E13001900020ADF8CF
:1052A0000800ADF80A00ADF80C00ADF810000C20B5
:1052B000ADF80E0001A90C4800F0AEF8012240F252
:1052C0002551094800F082F80121074800F03BF819
:1052D000142000F0AFFD4021034800F02BF807B088
:1052E00000BD0000000801400044004010B540F23D
:1052F0002551064800F040F838B1044800F0F8F8AD
:10530000C4B22146012002F085F910BD00440040DE
:1053100010B540F22551064800F02EF838B1044887
:1053200000F0E6F8C4B22146022002F073F910BD85
:105330000048004001F40072B2F5007F00D100BFC8
:10534000CA430280704721B1828942F400528281AF
:1053500004E082894DF6FF731A408281704702464D
:105360000020B1F5007F00D100BF13880B400BB1C6
:10537000012000E00020704770B5024600240023A1
:105380000025002040F66A16B14200D100BFC1F3EB
:10539000421501F01F03012606FA03F3012D02D185
:1053A0009689334006E0022D02D1168A334001E08F
:1053B000968A33400C12012606FA04F4168834400B
:1053C00013B10CB1012000E0002070BDF0B5034620
:1053D000002400260025002040F66A17B94200D1BB
:1053E00000BF1846C1F3421401F01F06012707FA57
:1053F00006F5012C01D10C3004E0022C01D1103053
:1054000000E014301AB107682F43076002E0076814
:10541000AF430760F0BD00002DE9F04786B00546B8
:105420000E460024A24600BFA1460027B08900B165
:1054300000BF2F462C8A4CF6FF700440F0880443CE
:105440002C82AC894EF6F3100440B08831890843B1
:10545000718908430443AC81AC8A4FF6FF40044095
:10546000B0890443AC8201A8FDF7EAF91F488742DE
:1054700002D1DDF810A001E0DDF80CA0A88900F44D
:10548000004040B10AEBCA0000EB0A103168490045
:10549000B0FBF1F807E00AEBCA0000EB0A10316834
:1054A0008900B0FBF1F86420B8FBF0F0040120099A
:1054B000642101FB1089A88900F4004040B132202A
:1054C00000EBC900B0FBF1F000F00700044308E076
:1054D000322000EB09106421B0FBF1F000F00F0066
:1054E00004432C8106B0BDE8F0870000003801407D
:1054F00001468888C0F308007047C1F30802828023
:10550000704700BFFEE710B5044621460020FCF7B7
:105510004DFD10BD10B5044621464020FCF746FD68
:1055200010BD00000FB4054B10B503A9044A029842
:1055300000F0E4F810BC5DF814FB00000D620008F8
:10554000680300200FB4084B10B504A902AA039801
:1055500000F0D4F8044602A9002000F066FC2046C2
:1055600010BC5DF814FB00002B5E0008004870477B
:105570007403002002E008C8121F08C1002AFAD1F3
:1055800070477047002001E001C1121F002AFBD1C3
:10559000704780F3108870472DE9FF5FDDE9022036
:1055A000010DDDF838B0024318D044F61050A1F2D6
:1055B000FF3141430D140F98012820D0A5EB0B00BB
:1055C000401C5FEA000A4FF00004474EDFF81C91D0
:1055D000A046504616D5CAF1000728E00F980124CE
:1055E00043A2012808D0002100980F9BC0E90021A8
:1055F000C0E90243BDE8FF9F6FEA0B01F4E7CBF17E
:105600000000DEE7074612E0F80707D022463346DF
:1056100040464946FAF703FF80468946224633460C
:1056200010461946FAF7FBFE04460E467F10002F7F
:10563000EAD1DDE90201BAF1000F42464B4602DA37
:10564000FAF7EDFE01E0FAF75CFF04460E46002291
:10565000284BFBF711FA03D84FF0FF30014607E063
:105660000022254B20463146FAF732FEFBF7ECF9D3
:10567000102409E0002C0ADB0A220023FBF772F851
:10568000019B30321A55641E50EA0102F2D1641CAB
:10569000019AC4F1110314440F9A012A03D0012284
:1056A00008430DD10AE0084304D000204FF0110B4D
:1056B0000F9080E7A3EB0B056D1E0DE05B4504DD4D
:1056C0004FF0000205F1010504E003DA4FF000029B
:1056D000A5F10105002AECD000980F99C0E902312C
:1056E000C0E9004586E70000000024400000F03FCC
:1056F000300000000000F0430000E03F2DE9FF4FC4
:1057000095B09B468946064600250FE2252877D1AD
:1057100000242746F84A0121059400E0044316F8C6
:10572000013F203B01FA03F01042F7D130782A28DC
:1057300011D06FF02F033078A0F13002092A16D86B
:10574000059A44F0020402EB820203EB4202104489
:10575000761C0590EFE759F8042B0592002A03DA2E
:10576000504244F40054059044F00204761C307812
:105770002E2816D116F8010F44F004042A280DD063
:105780006FF02F023078A0F13003092B09D807EB16
:10579000870302EB4303C718761CF3E759F8047B31
:1057A000761C30786C280FD006DC4C2817D068287F
:1057B0000DD06A2814D104E0742810D07A280FD1B3
:1057C0000DE044F400140AE044F4801401E044F4D1
:1057D00040147278824202D104F58014761C761C43
:1057E000307866280BD013DC582877D009DC0028E5
:1057F00075D04528F6D04628F4D047281AD19DE127
:1058000018E0632835D0642879D0652812D195E155
:10581000702873D008DC6728F1D069286FD06E2813
:105820000DD06F2806D1B5E073282CD0752875D01F
:10583000782874D05A46179990476D1C75E1C4F3C7
:105840000250022809D003280DD0D9F800100428EE
:105850000DD00D6009F1040967E1D9F80010EA17CD
:10586000C1E90052F6E7D9F800100D80F2E70D709B
:10587000F0E719F8041B8DF8001000208DF80100E6
:10588000EA46012003E059F804AB4FF0FF3061070E
:105890004FF0000102D40DE008F101018846B94241
:1058A0000FDA8045F8DB1AF808100029F4D108E077
:1058B00008F1010188468142FADB1AF80810002934
:1058C000F6D105985B46A0EB080721463846179AA3
:1058D00000F094FA284400EB080507E04DE029E1C8
:1058E0000DE01AF8010B5A4617999047B8F10108D4
:1058F000F7D25B4621463846179A13E142E00A2266
:105900000092C4F302524FF0000A022A08D059F85C
:1059100004CB032A4FEAEC710AD00DE029E02AE01B
:1059200009F1070121F00702F2E802C1914609E0FE
:105930000FFA8CFC4FEAEC71042A03D14FFA8CFC6D
:105940004FEAEC71002907DA0A460021DCF1000C6D
:1059500061EB02012D2202E0220504D52B228DF8F5
:105960000420012203E0E20701D02022F7E790465D
:1059700059E00A2102E010220DE010214FF0000A48
:1059800000910BE010224FF0000A44F004040827B5
:10599000009203E008224FF0000A0092C4F3025282
:1059A000022A05D059F804CB0021032A08D009E0C7
:1059B00009F1070121F00702F2E802C1914605E072
:1059C0001FFA8CFC042A01D10CF0FF0C4FF00008E8
:1059D000220728D5702806D0009B83F0100353EAD5
:1059E0000A0305D00EE040228DF80420012208E0D1
:1059F0005CEA010206D030228DF804208DF8050003
:105A000002229046009B83F0080353EA0A030AD15E
:105A10005CEA010201D1620705D530228DF804202D
:105A20004FF001087F1E582804D034A003900EA820
:105A300002900DE036A0F9E753466046009AFAF767
:105A400091FE84460398825C0298401E0290027088
:105A50005CEA0100F0D1029806A9081A00F1200AB8
:105A6000600702D524F4803400E00127574502DDA9
:105A7000A7EB0A0000E0002000EB0A010090059867
:105A80004144401A0590E00306D45B462146179A2C
:105A9000059800F0B3F90544002706E001A85A462E
:105AA000C05D179990476D1C7F1C4745F6DBE003EE
:105AB0000CD55B462146179A059800F09FF90544DE
:105AC00004E030205A46179990476D1C0099481EF3
:105AD00000900029F5DC08E0029802995A46007807
