:020000040800F2
:10000000D03D002001010008711D0008751A00088C
:100010006D1D0008531000082B4E00080000000062
:10002000000000000000000000000000092A000895
:10003000091400080000000079220008AD470008FC
:100040001B0100081B0100081B0100081B01000820
:100050001B0100081B0100081B0100081B01000810
:100060001B0100081B0100081B0100081B01000800
:100070001B0100081B0100081B0100081B010008F0
:100080001B0100081B0100081B0100081B010008E0
:100090001B0100081B0100081B0100081B010008D0
:1000A0001B0100081B0100081B0100081B010008C0
:1000B0001B0100081B0100081B0100081B010008B0
:1000C0001B0100081B0100081B0100081B010008A0
:1000D0001B010008E54A0008154C0008394C0008CF
:1000E0001B0100081B0100081B010008DFF80CD0F1
:1000F00000F0CAFC00480047995C0008D03D002091
:100100000648804706480047FEE7FEE7FEE7FEE7B1
:10011000FEE7FEE7FEE7FEE7FEE7FEE73D480008F4
:10012000ED000008014610B509683C22B1FBF2F36E
:1001300002FB1313B1FBF2F11D480360B1FBF2F3B4
:1001400002FB1313B1FBF2F118224360B1FBF2F38F
:1001500002FB1313B1FBF2F183600A1D0723B2FB0C
:10016000F3F403FB142282618A0040F2B55102F6D7
:100170006C32B2FBF1F344334361B2FBF1F301FBA8
:1001800013218908C1613B2903D3027D920700D066
:10019000491C0022074C13460261E25C8A4203D8E4
:1001A000891A5B1C0361F8E7491CC16010BD00009F
:1001B000A0190020DC82000840EA01039B0703D05D
:1001C00009E008C9121F08C0042AFAD203E011F896
:1001D000013B00F8013B521EF9D27047D2B201E058
:1001E00000F8012B491EFBD270470022F6E710B53C
:1001F00013460A4604461946FFF7F0FF204610BD95
:1002000030B504460020034600E05B1C934203D255
:10021000E05CCD5C401BF8D030BD034611F8012BEB
:1002200000F8012B002AF9D11846704770B5064630
:1002300004F030FE046805460A220021304600F032
:10024000E3FA2C6070BD30B480EA010202F0004590
:1002500030F0004221F0004013D090B1C30DD40D16
:10026000C2F31601C0F31600E41A41F4000140F491
:1002700000027D34914201D3641C00E04900002C4F
:1002800002DA30BC002070474FF400000023914296
:1002900001D3891A034340084FEA4101F7D151B114
:1002A000914202D14FF0004105E002D24FF001012E
:1002B00001E06FF0010103EBC450284430BC00F0B2
:1002C000DBBA2DE9FE4F804681EA0300C00F0C46E1
:1002D000009021F0004123F00045B8EB0200A94155
:1002E00005D24046214690461C460B46024623F066
:1002F0000040104347D0270DC7F30A00C3F30A514B
:100300000290401A019040286BDAC3F3130040F4C6
:10031000801B0098924620B10023D2EB030A63EBC6
:100320000B0B01985946C0F14002504600F03BFAD1
:1003300006460D4650465946019A00F053FA10EB16
:1003400008006141002487EA115284EAE7731A43E6
:1003500040D0009A62B3019A012A4FEA075215DC95
:10036000001B61EB02014FF0004202EA0752CDE9A7
:100370000042001C41F5801132462B4600F0C2FAC3
:1003800003B0BDE8F08F40462146F9E7001B61EB62
:100390000201001C41F5801300185B412018A2F5F2
:1003A000001747EB030140EAD570B6196D4111E023
:1003B0006D084FEA360645EAC0754FEA0752001B42
:1003C00061EB0201001C41F5801149084FEA300041
:1003D0000019514132462B4603B0BDE8F04F00F002
:1003E00082BA0098012240000023D0EB020263EBA6
:1003F000E073009821464FEAE074B8EB000061EB2F
:100400000401E9E783F000435BE781F0004158E72E
:100410002DE9FE4F81EA030404F0004421F000417D
:1004200000944FF0000B23F0004350EA01045ED02B
:1004300052EA03045BD0C3F30A54C1F30A552C44B7
:10044000A4F2F3340194A0FB0254C1F3130141F46C
:100450008011C3F3130343F4801301FB024400FB38
:10046000034E840A970A44EA815447EA8357A4FB5F
:10047000076802958D0A05FB07854FEA932C04FB5C
:100480000C542705029D4FEA065847EA1637B5EB8C
:1004900008056EEB070C870E920E47EA811742EAB9
:1004A0008312A7FB0201B6EB0B0164EB00042B0DDA
:1004B00043EA0C335E1844EB1C50DA465146E7FB26
:1004C0000201C5F313044FEA0B3343EA14534FEA16
:1004D0000432019C43EA0603A4F10C040294009C3C
:1004E000CDE900B400F00EFA03B0BDE8F08F0020B3
:1004F0000146F9E72DE9F04D81EA030404F0004BD1
:1005000021F0004514464FF0000A23F0004150EA64
:10051000050220D054EA01021DD0C5F30A57024655
:10052000C5F31303C1F31300C1F30A5640F4801559
:1005300043F48013A7EB0608101BD64608F2FD38DB
:1005400073EB050002D308F1010801E092185B414A
:10055000B8F1000F03DA00200146BDE8F08D00205D
:100560004FF48011064684460EE0171B73EB050717
:1005700005D3121B63EB050306434CEA010C490843
:100580004FEA300092185B4150EA0107EDD152EA80
:10059000030012D082EA040083EA0501084305D073
:1005A000101BAB4106D20122002306E000224FF0CF
:1005B000004302E06FF0010253101AEB06004CEB0F
:1005C000085110EB0A0041EB0B01BDE8F04D00F0C3
:1005D0008AB996230022114600F057B90EB5C10F13
:1005E00080EAE0700844CA07002140F233438DE8F6
:1005F0000E000A460B4600F085F903B000BD0EB5AB
:1006000040F2334102910021CDE900110A460B4628
:1006100000F078F903B000BD70B5C1F30A5201F0E3
:1006200000450024C1F3130140F2FF3341F480116F
:100630009A4201DA002070BD40F233439A42A2F29E
:10064000334203DC524200F0BDF800E090402C43FE
:10065000F1D0404270BDC1F30A5210B5C1F313018D
:1006600040F2FF3341F480119A4201DA002010BDBC
:1006700040F233439A42A2F2334203DC524200F08A
:10068000A1F810BD904010BD00F0004230F00040D5
:100690000AD0C10D01F56071C0F3160042EA0151A4
:1006A000C208400711437047002001467047000010
:1006B00030B5041E71F1000404DB4FF000444042E9
:1006C00064EB0101141E73F1000405DB1C464FF0BE
:1006D0000043524263EB04038B4208BF824230BDA9
:1006E00001F0004330B421F0004150EA010206D08D
:1006F0000A0DA2F56072C1F31301002A02DC30BCBE
:1007000000207047440F44EAC104C100E01830BC27
:1007100000EBC25000F0B0B830B50B4601460020E7
:100720002022012409E021FA02F59D4205D303FAB3
:1007300002F5491B04FA02F52844151EA2F1010234
:10074000F1DC30BD2DE9F05F0546002092469B4666
:1007500088460646814640241BE0284641464746D7
:10076000224600F02FF853465A46C01A914110D342
:1007700011461846224600F016F82D1A67EB0108BC
:100780004F4622460120002100F00DF817EB00092A
:100790004E41201EA4F10104DFDC484631462A46C2
:1007A0004346BDE8F09F202A04DB203A00FA02F11C
:1007B000002070479140C2F1200320FA03F319434F
:1007C00090407047202A04DB203A21FA02F00021F1
:1007D000704721FA02F3D040C2F120029140084351
:1007E00019467047202A06DBCB17203A41FA02F05F
:1007F00043EAE07306E041FA02F3D040C2F120027E
:1008000091400843194670472DE9F04791460F463D
:1008100080460446002614F8015B2DB100F046F92D
:100820000068405DC007F6D12B2D02D02D2D18D0C9
:10083000641E4A463946204600F03CF927B1396823
:10084000A14201D1C7F8008071054FF002040BD519
:100850004042002803DD04F01DFB0460A007BDE852
:10086000F08746F48066E4E70028F8DA04F012FB2B
:1008700004606FF00040F2E70029A8BF7047401CF9
:10088000490008BF20F00100704710B4B0FA80FCA6
:1008900000FA0CF050EA010404BF10BC704749B1E3
:1008A000CCF1200421FA04F411FA0CF118BF012153
:1008B00021430843A3EB0C01CB1D4FEA00614FEA33
:1008C000102042BF002010BC704700EBC350104402
:1008D0000029A4BF10BC7047401C490008BF20F08D
:1008E000010010BC704710B5141E73F1000408DA43
:1008F000401C41F1000192185B411A4301D120F0E4
:10090000010010BD2DE9F04D92469B4611B1B1FAA0
:1009100081F202E0B0FA80F220329046FFF743FF06
:1009200004460F4640EA0A0041EA0B0153465A4684
:10093000084313D0114653EA010019D0C8F1400210
:100940005046FFF73FFF05460E4650465946424681
:10095000FFF729FF084305D0012004E0204639466F
:10096000BDE8F08D0020054346EAE0762C4337438E
:100970000A986305E40AA0EB08000022FD0A44EA95
:1009800047540A3002D500200146E9E70105101955
:100990006941DDE9084500196941BDE8F04DA2E76C
:1009A0002DE9F041054621F000400C46284309D0CE
:1009B000C4F30A5040F23341884205DD28462146FF
:1009C000BDE8F0812846FBE740F2FE31884210DCAA
:1009D0000CDB4FEA043040EA155050EA053105D0EF
:1009E000104804F0004101430020E9E700200146DF
:1009F000E6E7A0F233404642C6F1400228462146CF
:100A0000FFF7D1FE07468846284621463246FFF7C3
:100A1000D9FE43463A46FFF766FF3246BDE8F0414D
:100A2000FFF7C1BE0000F03FC1F30A52C1F313014A
:100A300040F2FF3341F480119A4202DA002001466D
:100A4000704740F233439A42A2F2334202DC5242F0
:100A5000FFF7B8BEFFF7A7BE30B5041E71F1000462
:100A600004DB4FF00044404264EB0101141E73F1BB
:100A7000000405DB1C464FF00043524263EB0403C5
:100A8000994208BF904230BD064C074D06E0E06831
:100A900040F0010394E8070098471034AC42F6D3C5
:100AA000FFF728FB70830008908300080048704718
:100AB0006C8300082DE9F05F824600780027154618
:100AC0008B460AF10104B946302801D09DB113E0EC
:100AD00014F8010B0127782803D0582801D045B11C
:100AE0000AE00DB1102D07D10027102514F8010BD5
:100AF00002E0082500E00A250026B0460EE005FBCE
:100B0000080005FB06F1012701EB10461FFA80F8EB
:100B1000B6F5803F00D3B94614F8010B294600F022
:100B200018F80028EBDABBF1000F05D00FB1641EF6
:100B300000E05446CBF80040B9F1000F06D004F0B5
:100B4000A9F902210160C81EBDE8F09F48EA0640ED
:100B5000FAE73A2800D2303820F02002412A01D3A7
:100B6000A2F13700884201D34FF0FF30704770B5D3
:100B70008C1810F8015B15F0070301D110F8013B48
:100B80002A1106D110F8012B03E010F8016B01F8CF
:100B9000016B5B1EF9D12B0705D40023521E0DD427
:100BA00001F8013BFAE710F8013BCB1A921C03E075
:100BB00013F8015B01F8015B521EF9D5A142D8D3AD
:100BC000002070BD21B1826842F00102826003E022
:100BD000826822F0010282607047000000B587B091
:100BE00001214FF4047001F0B5FC0220ADF81800AB
:100BF00000208DF81B0006A91D4800F0ABFD002069
:100C0000019001208DF808008DF809004FF4602054
:100C100003900020049001208DF8140001A91548CC
:100C200000F04EF8052301220921124800F070F867
:100C30000121104800F020F801210E48FFF7C2FF03
:100C40000C4800F0C1F800BF0A4800F02EF8002858
:100C5000FAD1084800F0C8F800BF064800F017F8BD
:100C60000028FAD10121034800F0B3F807B000BD15
:100C7000000C01400024014021B1826842F48072DE
:100C8000826003E0826822F48072826070470146CD
:100C900000208A6802F004020AB1012000E000206E
:100CA00070470146C86C80B27047014600208A68D0
:100CB00002F008020AB1012000E0002070470000A5
:100CC00030B502460020002350680F4C20400D79BB
:100CD0000C6844EA05242043506090680B4C204087
:100CE000D1E902542C434D7944EA450420439060F5
:100CF000D06A20F470000C7C641EE4B2234340EA06
:100D00000350D06230BD0000FFFEF0FFFDF7F1FFA1
:100D1000F0B504460D4600200021092D11DDE068E4
:100D2000A5F10A0606EB4607072606FA07F18843EF
:100D3000A5F10A0606EB460603FA06F10843E06051
:100D40000CE0206905EB4507072606FA07F1884302
:100D500005EB450603FA06F108432061072A0FDA7E
:100D6000606B561E06EB86071F2606FA07F18843BE
:100D7000561E06EB860605FA06F10843606322E07C
:100D80000D2A0FDA206BD61F06EB86071F2606FA00
:100D900007F18843D61F06EB860605FA06F10843DD
:100DA000206310E0E06AA2F10D0606EB86071F261D
:100DB00006FA07F18843A2F10D0606EB860605FA4E
:100DC00006F10843E062F0BD816841F008018160EE
:100DD000704721B1826842F4A002826003E0826819
:100DE00022F4A00282607047816841F004018160B2
:100DF0007047000070B51348FFF753FF1249134ABC
:100E0000128821F8120011480088401C80B20F4956
:100E10000880142801DB002008800025002405E05C
:100E2000094830F814000544601C84B2142CF7DB28
:100E30001420B5FBF0F00649088001210148FFF7B6
:100E4000C8FF70BD002401406C0600205200002045
:100E50001800002038B5044606A0006800908DF800
:100E6000014003226946012006F03CF9012006F00A
:100E7000DDF838BDFF00F00030B58DB0012006F080
:100E800039F8C5B2062D15DB2A466946012006F061
:100E900067F86C462078FF280CD16079F02809D1DA
:100EA000D4F8010000BA00F5E140034908600020D1
:100EB000FFF7D0FF0DB030BD0800002038B500F0BE
:100EC0002FFD05B240F6E4406843C0EBC00040008F
:100ED00040F6FF71B0FBF1F00B21B0FBF1F004B272
:100EE0003F48B0F90000201A322811DA3C48B0F926
:100EF0000000001B3A49B1F90010401A322807DA05
:100F000038480078012803D037480078002865D198
:100F100000203449087040F6EC60844208DB334816
:100F200002237F2200210090622001F008F853E0A4
:100F300040F67460844208DB2D4802237F220021A2
:100F40000090622000F0FBFF46E040F6AC50844287
:100F500008DB284802237F2200210090622000F055
:100F6000EEFF39E040F64850844208DB2248022375
:100F70007F2200210090622000F0E1FF2CE040F68B
:100F80001650844208DB1D4802237F220021009076
:100F9000622000F0D4FF1FE040F6EE4084420EDBFA
:100FA000164802237F2200210090622000F0C7FF34
:100FB000022313A20421182001F0BEF80CE001F076
:100FC00072F84FF48051154800F0A1FC002002F0A7
:100FD00073FF002002F0FAFD0148048038BD0000D4
:100FE000A40100204F00002050000020927F000844
:100FF000CC7F000806800008408000087A80000846
:101000004C6F7720506F7765722C506C65617365FB
:1010100020436861726765210000000000080140FC
:1010200010B500F047FB04F0B3FB03F003FD03F041
:1010300097FD03F06BFB05F08FFB00F03FFD00F028
:10104000D5FFFFF7CBFD022003F028FC00F091FE56
:1010500010BD00BFFEE7000038B50020009000245E
:1010600025E04FF480711C4800F048FC9DF800100A
:101070000844C0B28DF800004FF40061174800F03A
:101080003DFC9DF801100844C0B28DF801004FF4FA
:101090008061124800F032FC9DF802100844C0B292
:1010A0008DF802000A2004F059FB601CC4B2072C22
:1010B000D7DB00200CE01DF80010022903DC012121
:1010C000074A115402E00021054A1154411CC8B2DC
:1010D0000328F0DB38BD000000080140000C01408F
:1010E0009301002030B5A1B00446802101A8FFF78C
:1010F0007CF80425607801280ED1A07860B92078AA
:1011000050B900F0B2FE02F0E5F810B901F0B2FA01
:101110003DE001F099FA3AE0A078012802D0207869
:10112000012807D1607828B900F09FFE204601F021
:10113000D9FA2CE0A078012829D12078012826D1DD
:101140006078012823D100F090FE022311A21946F5
:10115000002000F0F1FF012006F09AF8022311A20E
:101160001946002000F0E8FF4FF47A7004F0F6FA18
:1011700000BF1148006800F4E06010490843001DFA
:101180000D490860BFF3408F00BF00BFFEE721B0EC
:1011900030BD0000446174612045726173652E2E7C
:1011A0002E00000044617461204572617365204423
:1011B0006F6E6521000000000CED00E00000FA05F4
:1011C00010B54FF40041024800F098FB044610BDF2
:1011D000000801400548006820F480700349086059
:1011E0000846006840F4807008607047140C0140A5
:1011F0000548006820F00F000349086008460068B1
:1012000040F0040008607047040C01400548006885
:1012100020F00F00034908600846006840F0030012
:1012200008607047040C01400548006820F4807095
:10123000034908600846006840F480700860704701
:10124000100C01402DE9F04F91B082468B463421BD
:1012500003A8FEF7CAFF00266AE00AEB4614711CD9
:1012600036A003F0F3FD41A003F0F0FD4FF00009BC
:1012700009E0E01C10F809103DA003F0E7FD09F1BA
:10128000010000F0FF09B9F1090FF2DB36A003F00D
:10129000DDFDE068FFF79DF937490190FEF7D3FFC8
:1012A0000290FFF7F1F907463A460B4633A003F0E8
:1012B000CDFD2069FFF78DF92F490190FEF7C3FF9F
:1012C0000290FFF7E1F907463A460B462DA003F0DE
:1012D000BDFD94F914102DA003F0B8FDB4F915105C
:1012E0002DA003F0B3FDB4F817102FA003F0AEFD4E
:1012F000B4F819102FA003F0A9FDD4F81B0010902A
:1013000010A8FEF70FFF0546D5E901212868CDE9B1
:1013100000120290D5E90330421C686900F26C713A
:1013200028A003F093FD30A003F090FD701C86B25E
:101330005E4592DB11B0BDE8F08F00002A2A2A2A10
:101340002A2A2A2A2A2A2A2A2A2A2A2A2A2A2A2AFD
:101350002A2A2A2A2A2A2A0D0A486973746F72795E
:101360005258436E743A25640D0A000049443A000D
:1013700025303258000000008096184B453A202551
:10138000660D0A004E3A2025660D0A00534E523A69
:1013900020256464420D0A00525353493A2564647F
:1013A000426D0D0A000000005278436E743A2564C5
:1013B0000D0A0000546F74616C5278436E743A25C4
:1013C000640D0A0054696D653A25642D2530326438
:1013D0002D2530326420253032643A253032643A8B
:1013E000253032640D0A00002A2A2A2A2A2A2A2AAB
:1013F0002A2A2A2A2A2A2A2A2A2A2A2A2A2A2A2A4D
:101400002A2A2A0D0A0000007047000010B58AB091
:10141000202102A8FEF7E9FE002409E0102101EBDB
:101420000411C8B22246002100F05CFE601CC4B268
:10143000062CF3DB012317A20321002000F07CFE21
:101440001A48C07819498978CDE9001017484378BF
:10145000027817A102A803F009FD012302AA0421C2
:10146000002000F069FE202102A8FEF7BEFE16A2B1
:1014700018A102A803F0FAFC012302AA052100200A
:1014800000F05AFE012303A20621002000F054FEC2
:101490000AB010BD2A2A2A2A2A2A2A2A2A2A2A2ACD
:1014A0002A2A2A2A2A2A2A2A2A0000000C00002096
:1014B0002A204657205265763A2025642E25642E30
:1014C00025642E25640000005365702031352032DC
:1014D000303137002A205265446174653A20257303
:1014E0000000000010B50821014800F010FA10BDFE
:1014F000000C014010B50821014800F00AFA10BDA7
:10150000000C014030B5044604254FF4302000F0B3
:10151000A1F80546042D17D10C48006940F00200DF
:101520000A49086108464461006940F040000861CA
:101530004FF4302000F08EF805460448006941F66B
:10154000FD71084001490861284630BD0020024075
:1015500004200B49C96801F0010109B101200EE026
:101560000749C96801F0040109B1022007E00449F4
:10157000C96801F0100109B1032000E004207047A0
:10158000002002400348006940F0800001490861E2
:10159000704700000020024001B500200099C1F30F
:1015A00009021AB1012202EB912000E0880A08BD6D
:1015B00010B5FFF7E7FF10BD70B504460D460426D1
:1015C000F00200F047F80646042E11D109480069E0
:1015D00040F00100074908612580F00200F03AF868
:1015E00006460448006941F6FE7108400149086159
:1015F000304670BD0020024073B582B00446042519
:1016000000260020019000F019F80398FFF7C4FFAE
:1016100006460AE04FF48062019902FB0140FFF7A1
:1016200071FF05460198401C01900198B04201D21B
:10163000042DEFD0284604B070BD000002480349D5
:101640004860034848607047230167450020024016
:10165000AB89EFCD00B502460423FFF779FF0346BF
:1016600003E0FFF775FF0346521E012B01D1002A4C
:10167000F7D102B90523184600BDF8B506460C4659
:101680001746354600940EE029880098FFF794FF2E
:10169000288800990988884201D00020F8BDAD1C37
:1016A0000098801C0090E01900998842ECD8012035
:1016B000F4E7000008B50121042000F04BFF0121F0
:1016C000082000F047FF0121102000F043FF012116
:1016D000084600F03FFF01211B4800F0C7F84FF417
:1016E000C050ADF8000003208DF8020010208DF8E6
:1016F00003006946154800F02DF84FF40140ADF89D
:10170000000003208DF8020004208DF803006946D4
:101710000E4800F01FF84FF44060ADF800000320C1
:101720008DF8020004208DF803006946084800F097
:1017300011F84FF48051054800F0E9F84FF40061CA
:10174000024800F0E4F808BD000230000008014043
:10175000000C01402DE9F041024600250026002042
:1017600000230024002791F803C00CF00F0591F826
:1017700003C00CF0100CBCF1000F03D091F802C0B4
:101780004CEA050591F800C0BCF1000F31D0146897
:1017900000202BE04FF0010C0CFA00F3B1F800C070
:1017A0000CEA03069E4220D183004FF00F0C0CFA86
:1017B00003F7BC4305FA03FC4CEA040491F803C0A8
:1017C000BCF1280F06D14FF0010C0CFA00FCC2F856
:1017D00014C00AE091F803C0BCF1480F05D14FF0E6
:1017E000010C0CFA00FCC2F810C0401C0828D1D330
:1017F0001460B1F800C0BCF1FF0F34DD5468002064
:101800002EE000F1080C4FF0010808FA0CF3B1F8D3
:1018100000C00CEA03069E4221D183004FF00F0C5A
:101820000CFA03F7BC4305FA03FC4CEA040491F8F4
:1018300003C0BCF1280F05D100F1080C08FA0CF820
:10184000C2F8148091F803C0BCF1480F07D100F131
:10185000080C4FF0010808FA0CF8C2F81080401C80
:101860000828CED35460BDE8F0810000F0B50A46E8
:10187000002300240021002500F00046B6F1004FAF
:1018800002D11D4EF16901E01B4E7168C0F30345A2
:1018900083B200F44016B6F5401F08D121F0706104
:1018A000154E766826F07066134F7E6012E000F4E5
:1018B0008016B6F5801F06D1032606FA05F4A1436B
:1018C00041F0706106E0460D360103FA06F6B143B9
:1018D00041F0706122B1460D360103FA06F631433C
:1018E00000F00046B6F1004F02D1034EF16101E075
:1018F000014E7160F0BD0000000001400246002072
:1019000093680B400BB1012000E00020704741615B
:101910007047016170470AB1016100E041617047A1
:10192000012080F3108800BF03480188002080F365
:10193000108800BF084670471800002000B5FFF768
:1019400057FC0648006882B202F48070B0F5807FD0
:1019500001D1012000BD0020FCE70000080C01407F
:101960000549096801600449083109684160024974
:10197000091D096881607047E8F7FF1F70B50020F6
:101980002E49086004F066F9CC2005F0CBFCBE209F
:1019900005F0C8FC04F072FD054604F06FFD044636
:1019A00004F06CFD2649086004F068FD25490860D4
:1019B00004F064FD2449086004F060FD23490860D8
:1019C00004F05CFD2249086004F058FD21490860DC
:1019D00004F054FD20490860072C19DD01201F493F
:1019E000087045EA04201549086008460068C043AD
:1019F000401C08600846006840F2712148430F49C6
:101A0000086008460068A0F543405038086013E0BD
:101A100000201249087045EA042008490860084679
:101A2000006840F271214843044908600846006894
:101A3000A0F543405038086070BD00008C000020C5
:101A40006C0000207000002074000020780000204E
:101A50007C000020800000208400002090000020F6
:101A600010B504F0F7F8CC2005F05CFC442005F03C
:101A700059FC10BD00BFFEE770B5024600240025EA
:101A800000230020958A138B1B0445EA030626F0E9
:101A90007F4404EA01068E4201D1012000E00020CB
:101AA00070BD21B1028842F00102028004E0028888
:101AB0004FF6FE731A4002807047000000B585B0F3
:101AC0000121480500F026FD0121082000F042FD1B
:101AD000C020ADF8000003208DF802001C208DF816
:101AE000030069461148FFF735FE114800F024F85D
:101AF0000020ADF808004BF6FF70ADF80A0030206A
:101B0000ADF80C004FF48060ADF80E000001ADF8A8
:101B100010000848019001210548FFF7C2FF01A904
:101B2000034800F05BF805B000BD0000000C014068
:101B300000540040801A060010B504460B48844249
:101B400009D10121480500F0F5FC00214FF40010F7
:101B500000F0F0FC08E00121880500F0EBFC00211A
:101B60004FF4800000F0E6FC10BD0000005400407F
:101B700021B1028842F48072028004E002884FF6AC
:101B8000FF631A400280704721B1028842F400725C
:101B9000028004E002884FF6FF531A40028070472B
:101BA0000CB50246002000230193009300920B0F16
:101BB000019321F07F41019B1BB1009B14330093E3
:101BC00003E0090C009B18330093009B1B680B403B
:101BD0000BB1012000E000200CBD00002DE9F04316
:101BE00085B004460D460026B1460427DFF8CC80B8
:101BF000A6884FF6C0700640684600F0BBFCDDF8D2
:101C000008802F48B8FBF0F01FFA80F946EA090671
:101C1000A68020884FF6FE710840208000262949C2
:101C2000286888420CD828684000B8FBF0F087B2DA
:101C3000042F00DA04273E4309F10100208427E045
:101C4000E8884BF6FF71884206D1286800EB400017
:101C5000B8FBF0F087B209E0286800EBC00101EBA7
:101C60000010B8FBF0F087B247F48047C7F30B00D1
:101C700008B947F0010747F4004006434FF4967057
:101C800009FB00F04FF47A7190FBF1F0401C2084C6
:101C9000A683208840F00100208026884FF6F5308A
:101CA0000640A8886989084306432680A8892989AF
:101CB0000843208105B0BDE8F083000000127A00DF
:101CC00040420F00A086010012B141F0010102E084
:101CD0004FF6FE7319400182704701827047000081
:101CE00070B504460D4600BF4FF400311C48FFF7A5
:101CF00057FF0028F8D101211948FFF739FF00BF2D
:101D000018491748FFF7B8FE0028F9D000227821BB
:101D10001348FFF7D9FF00BF13491148FFF7ACFE86
:101D20000028F9D021460E48FFF7D7FF00BF0E4923
:101D3000891C0B48FFF7A0FE0028F8D02946084868
:101D4000FFF7CBFF00BF0849891C0548FFF794FE49
:101D50000028F8D001210248FFF716FF70BD0000EF
:101D600000540040010003008200070000BFFEE7AE
:101D7000704708B54FF4E06000F056F825208DF864
:101D8000000001208DF801008DF802008DF803009D
:101D9000684600F011F826208DF8000001208DF82B
:101DA000010002208DF8020001208DF80300684632
:101DB00000F002F808BD000070B5002100230F22DA
:101DC000C47804B3154C246804F4E064C4F5E064FA
:101DD000210AC1F10403CA40447804FA03F184786B
:101DE0001440214309010E4C0678A155047804F0F3
:101DF0001F050124AC4005786D11AD0005F1E0250B
:101E0000C5F8004109E0047804F01F050124AC4046
:101E1000044D0678761145F8264070BD0CED00E0C3
:101E200000E400E080E100E002490143024A116061
:101E3000704700000000FA050CED00E0064800685D
:101E400000F4E06005490843001D03490860BFF342
:101E5000408F00BFFEE700000CED00E00000FA0537
:101E600010B5002000F0A5F810BD70B5002415E0F5
:101E700004F1B001C8B202F0DAFF002002F0D7FF8F
:101E8000102002F0D4FF002504E0002002F0D6FF6D
:101E9000681CC5B2432DF8DB601CC4B2022CE7DB22
:101EA000022415E004F1B001C8B202F0C0FF002026
:101EB00002F0BDFF102002F0BAFF002504E0002070
:101EC00002F0BCFF681CC5B2802DF8DB601CC4B2F8
:101ED000082CE7DB70BD2DE9F04706460F4690461B
:101EE0001C464FF0000AE11704EB5171C910A4EB36
:101EF000C10131B92046E11704EB5171C1F3C705A7
:101F000006E02046E11704EB5171C910491CCDB21F
:101F10003D4610E02946304600F0D0F8B14606E0D4
:101F2000002002F08BFF09F1010000F0FF09C1451C
:101F3000F6DB681CC5B2A542ECDBBDE8F0872DE9F5
:101F4000F05F06460F4690461C46DDF828A04FF08D
:101F5000000BE11704EB5171C910A4EBC10131B9B9
:101F60002046E11704EB5171C1F3C70506E0204696
:101F7000E11704EB5171C910491CCDB23D4614E084
:101F80002946304600F09AF8B1460AE059460BF16E
:101F9000010B1AF8010002F051FF09F1010000F0F5
:101FA000FF09C145F2DB681CC5B2A542E8DBBDE80C
:101FB000F09F70B50646002415E004F1B001C8B2E8
:101FC00002F035FF002002F032FF102002F02FFF58
:101FD000002504E0304602F031FF681CC5B2802DB8
:101FE000F8DB601CC4B2082CE7DB70BD10B54FF401
:101FF0007A7003F0B3FBAE2002F019FF202002F04C
:1020000016FF102002F013FFB02002F010FFC820CE
:1020100002F00DFF002002F00AFF102002F007FF7F
:10202000402002F004FF812002F001FF7F2002F037
:10203000FEFEA12002F0FBFEA62002F0F8FEA82082
:1020400002F0F5FE3F2002F0F2FEA42002F0EFFEC7
:10205000D32002F0ECFE002002F0E9FED52002F0D1
:10206000E6FEF02002F0E3FED92002F0E0FE22209E
:1020700002F0DDFEDA2002F0DAFE122002F0D7FED6
:10208000DB2002F0D4FE202002F0D1FE8D2002F0F1
:10209000CEFE142002F0CBFEAF2002F0C8FE2E20B0
:1020A00002F0C5FE10BD10B58D2002F0C0FE10205C
:1020B00002F0BDFEAE2002F0BAFE10BD70B50446BF
:1020C0000D4605F1B001C8B202F0B1FE102141EA9F
:1020D000141002F0ACFE04F00F0141F0010002F018
:1020E000A6FE70BD2DE9F04180460E46174600243D
:1020F0007D0131464046FFF7E1FF00BF06E00D4994
:10210000485D02F09BFE6D1C601CC4B2102CF6DB17
:10211000701CC1B24046FFF7D1FF002406E005491C
:10212000485D02F08BFE6D1C601CC4B2102CF6DB07
:10213000BDE8F0815A7300082DE9F047064689464C
:1021400017469A464FF0000800240025BAF1010F07
:1021500006D0BAF1020F29D0BAF1030F25D15DE004
:1021600020E0785D203800F0FF087E2E04DD002698
:1021700009F1010000F0FF0949463046FFF79EFFD4
:10218000002409E008EB4801384A02EB4101085DF0
:1021900002F054FE601CC4B2062CF3DBB01DC6B2C4
:1021A000681CC5B2785D0028DBD15CE032E0785D68
:1021B000203800F0FF08782E04DD002609F1020027
:1021C00000F0FF0949463046FFF778FF002407E09A
:1021D00004EB0811264A505C02F030FE601CC4B2C9
:1021E000082CF5DB09F10100C1B23046FFF766FFAC
:1021F000002408E004EB081108311D4A505C02F08D
:102200001DFE601CC4B2082CF4DB06F10800C6B247
:10221000681CC5B2785D0028C9D124E01FE0785D54
:10222000203800F0FF08782E04DD002609F10100B7
:1022300000F0FF0949463046FFF740FF002407E061
:102240000C4901EBC801085D02F0F8FD601CC4B246
:10225000082CF5DB06F10800C6B2681CC5B2785D33
:102260000028DCD100BF00BFBDE8F0877A74000809
:10227000A2790008A2760008704700002DE9F0411D
:10228000ADF5825D4FF480510FA8FDF7AEFF00273A
:102290003E4D05F1110404F11106D5F80120042387
:1022A00041F23C016944012004F0FDFF0422384959
:1022B00041F23C006844FDF7A3FF002827D03548D1
:1022C0000768022334A219460020FFF735FF0120DA
:1022D00004F0DEFF2F480068C11B33A002F0B6FDFA
:1022E0002B4801680DF58050C163D5F80120042307
:1022F00000F13C01012004F0EDFF32A002F0A6FD48
:10230000022337A219460020FFF716FF3AE0D4F85F
:1023100001204FF480530FA9012004F0C4FF0020D6
:102320000AE00FA9095C582904D132490988491CDF
:10233000304A1180411C88B2B0F5805FF1D3641C33
:10234000A0682C4909880844A060D6F809102948DB
:10235000008801EB4010C6F809002648018826A035
:1023600002F074FDA16854F8010900F58050814223
:1023700008D1022325A206210020FFF7DDFE01205F
:10238000274908700DF5825DBDE8F0819B000020B3
:102390009400002098010020466F726D6174204601
:1023A0006C6173682E2E2E00457261736520666C19
:1023B0006173682074696D653A25646D732E0D0A2A
:1023C00000000000496E697420666C6173682073B8
:1023D000746F726167652073706163652E0D0A000A
:1023E000466F726D617420466C617368204F4B219B
:1023F0000000000030000020486973746F72795249
:1024000058436E743A25640D0A000000466C6173EF
:10241000682053746F726167652046756C6C21008B
:102420003400002008B511A002F010FD1DA220A16B
:1024300022A002F00BFD2848C0780090264883783F
:102440004278017825A002F001FD2A48806803BA8D
:102450002848406802BA2748006801BA26A002F05E
:10246000F5FC02A002F0F2FC08BD00002A2A2A2A8C
:102470002A2A2A2A2A2A2A2A2A2A2A2A2A2A2A2ABC
:102480002A2A2A2A2A2A2A2A2A2A2A2A2A2A2A2AAC
:102490002A2A2A2A2A2A2A2A2A2A2A2A2A2A0D0AD9
:1024A0000000000031383A30343A31330000000087
:1024B0005365702031352032303137002A20526583
:1024C0006C656173652044617465203A2025732032
:1024D00025730D0A000000000C0000202A2046573A
:1024E000205265763A2025642E25642E25642E25FB
:1024F000640D0A00600200202A2048572049443A0F
:102500002025303858202530385820253038580DAF
:102510000A00000029B1064AD2690243044BDA617D
:1025200004E0034AD2698243014BDA61704700003C
:102530000010024029B1064A12690243044B1A6195
:1025400004E0034A12698243014B1A61704700009C
:102550000010024029B1064A92690243044B9A6175
:1025600004E0034A92698243014B9A61704700007C
:102570000010024030B500210022002400232D4D20
:102580006D6805F00C0121B1042905D0082923D17B
:1025900005E0294D056022E0274D05601FE0254D2F
:1025A0006D6805F47012234D6D6805F480340225C2
:1025B00005EB92421CB9214D554305600BE01D4DC2
:1025C0006D6805F400351DB11C4D5543056002E0F2
:1025D000194D5543056002E0174D056000BF00BF6F
:1025E000144D6D6805F0F0010909154D6B5C056827
:1025F000DD4045600F4D6D6805F4E061090A104D3E
:102600006B5C4568DD4085600A4D6D6805F460517E
:10261000C90A0B4D6B5C4568DD40C560054D6D68B2
:1026200005F44041890B074D6B5CC568B5FBF3F5BC
:10263000056130BD0010024000127A0000093D0023
:10264000BC010020CC01002010B5002001F034FCBA
:10265000022306A200210846FFF76EFD0223542242
:1026600000214420FFF737FC10BD00005246204FE8
:102670004646000008B5012001F01EFC022307A217
:1026800000210846FFF758FD064802235422002186
:1026900000904420FFF753FC08BD00005246204F35
:1026A0004E000000FE8000080748084908600848FE
:1026B0004860084888600848C860084808610848B9
:1026C0004861084670470000BD3100081817002017
:1026D000BF4000081542000899310008F141000888
:1026E000E13F00082DE9F04FABB00546802103A87B
:1026F000FDF77BFD4FF00009022004F0E3FD0646E4
:10270000D6F80900D6F80110884208D1022385A224
:1027100004212020FFF710FD2BB0BDE8F08FA87832
:10272000012808D18248006828B9D6F80900203865
:102730007F49086032E0A87801280FD17C48006802
:1027400020387B490860D6F801000968884225D9FD
:10275000774800682030764908601FE02878012813
:1027600008D17348006828B9D6F8090020387049A4
:10277000086013E02878012810D1D6F80900203825
:102780006B490968884204D1694800686849086053
:1027900004E067480068203065490860A87801288F
:1027A00002D0287801287DD12023614823A902681E
:1027B000012004F078FDDDF8A700029002A8FDF7E3
:1027C000B1FC0446606900F26C7040F63A01884240
:1027D00069D0E06800902069431C606900F26C7267
:1027E00054A103A802F042FB012303AA00210846DA
:1027F000FFF7A2FC2068009052A103A8D4E901329F
:1028000002F034FB012303AA19460020FFF794FCD1
:10281000802103A8FDF7E9FC00270EE00DF18F01F0
:10282000CA5D03A901EB09004AA102F01FFB09F1EF
:10283000020000F0FF09781CC7B2092FEEDB01236C
:1028400046A202210020FFF777FC012303AA022100
:102850001220FFF771FCBDF8A32041A103A802F0EC
:1028600005FB012303AA03210020FFF765FC9DF966
:10287000A0203EA103A802F0F9FA012303AA042133
:102880000020FFF759FCBDF9A1203BA103A802F0ED
:10289000EDFA012303AA05210020FFF74DFC80215A
:1028A00003A801E03CE030E0FDF79FFC2698FDF72F
:1028B00090FE83463349FDF7C6FC8246FDF7E4FEF1
:1028C00007463A460B4630A103A802F0CFFA01238F
:1028D00003AA06210020FFF72FFC2798FDF779FEB9
:1028E00083462849FDF7AFFC8246FDF7CDFE07463B
:1028F0003A460B4626A103A802F0B8FA012303AA20
:1029000007210020FFF718FC0AE0022305A204219A
:102910002020FFF711FC06480068203004490860B9
:1029200000BFF9E64E6F2044617461210000000091
:10293000D800002025642D253032642D25303264E6
:102940000000000020253032643A253032643A25F8
:1029500030326400253032580000000049443A000B
:102960005278436E743A202564000000534E523A68
:102970002025646442000000525353493A256464A0
:10298000426D00008096184B453A202566000000F5
:102990004E3A20256600000021B1028842F0400234
:1029A000028004E002884FF6BF731A40028070472D
:1029B0000246002013890B400BB1012000E00020EB
:1029C00070470146888970478181704710B50022A1
:1029D000028802F441520B884C8823438C8823439D
:1029E000CC8823430C8923434C8923438C8923437C
:1029F000CC8923431A430280838B4FF2FF74234018
:102A000083830B8A038210BD7047000030B51648DF
:102A1000006890F8270000F00700421C1248006888
:102A200090F83000C3091048006890F8300000F0BA
:102A3000060008B1012000E0002004460A480068B2
:102A400090F832100848006890F8300000F010004C
:102A5000102801D1022000E000200546D0182044B3
:102A60000844284480B230BDFC00002070B5054603
:102A70000C460648008820800020044908802288EF
:102A800003492846FDF798FB70BD000010010020A7
:102A9000A01700202DE9F04F89B001200890F848D8
:102AA00000780C287ED2DFE800F0060784EFEDEC1A
:102AB000EBEAE9E8E7E6BFE2F248006890F83000A8
:102AC00000F01000102805D14C20EE49096881F86B
:102AD000400004E00C20EB49096881F84000E12047
:102AE000E849096881F841000222E648016840315E
:102AF000402001F0A5FB052000F002FB4FF480719F
:102B0000E148FDF772FBE1494868FDF778FDCDE942
:102B10000201FFF77BFF0190FDF771FD8046002267
:102B2000DB4BFDF775FC0646DDE90223FDF7E2FC11
:102B30000022D84BCDE90401FDF76AFCCDE906017E
:102B400003F0BCFC04460022D34BFDF7BAFB8246DF
:102B5000FDF781FD80B2D14908600846006800EBAE
:102B60005000086008460068CD490860CD480068FC
:102B7000CD490860CD490860A020C249096881F8A4
:102B80003500C048006890F83510352001F050FB42
:102B90000020C7490870C7490870C7490870C7496D
:102BA000087000E047E2C64908800220B449087076
:102BB00042E201F073FA012809D1BD48007830B92A
:102BC0000120BB490870B7480068B849086001F0A7
:102BD00053FA01281ED1B648007801281AD1B54809
:102BE0000078B8B90120B349087000F063FAB54A1B
:102BF00003C200F037FAB449086000F073FAB34931
:102C00000870A8480068A8490860A849086003201F
:102C10009B490870A7480078B8B9A54800780128F2
:102C200013D1A0480068A1490968401A9C49096865
:102C300088420AD901209249087092480068407B76
:102C400040F020010D2001F0F3FA9A48007888B98D
:102C50009748007870B99848007858B9914800684A
:102C600091490968401A8D490968884202D90520AE
:102C700083490870E0E1D8E1D1E184E14FE127E147
:102C8000EAE0D6E0CCE0FFE78D480088B0F5807F31
:102C900003DD06207A490870CEE101F0E3F901284E
:102CA00053D187480088A8B98448007890B97548FE
:102CB000006890F8300000F08000802804D10121E5
:102CC0007F4801F0F3F905E06E48006890F83200A3
:102CD0007B4908807A48008878490978401A694910
:102CE000096891F8351001F03F01884217DD654A07
:102CF000126892F8352002F03F01634A6F4B1B784F
:102D0000D01801F0D3F95F48006890F8350000F062
:102D10003F006A49097808446849087015E0684A24
:102D20001278664B1B78D21AD1B2574A634B1B7884
:102D3000D01801F0BBF96248007860490978401A60
:102D40005E49097808445D49087001F081F901285D
:102D500056D154480068544908605948008890BBCF
:102D60005648007878BB4748006890F8300000F07B
:102D70008000802804D10121514801F097F905E035
:102D80004048006890F832004D4908804C4A12785B
:102D90004A4B1B78D21AD1B23B4A484B1B78D01809
:102DA00001F084F94648007844490978401A4349BB
:102DB000097808444149087001203F4908700420FF
:102DC0002F4908701CE0FFE73D4A12783B4B1B7807
:102DD000D21AD1B22C4A394B1B78D01801F066F9BF
:102DE0003748007835490978401A34490978084449
:102DF00032490870012030490870042020490870C9
:102E00002D48007858B92748006827490968401AB2
:102E100022490968884202D90520194908700BE146
:102E200000202649087001201549087002200890EA
:102E300002E10020214908702149088011480068FA
:102E4000407B40F020010D2001F0F2F901200C49F7
:102E5000087003200890EFE0002018490870184916
:102E6000088008480068407B40F020010D2001F0F8
:102E7000DFF901200249087006200890DCE000001C
:102E800001010020FC000020A0170020E00000202D
:102E90000000204000408F400000F03F040100206F
:102EA0000801002098010020280100202C010020AA
:102EB0000C0100200D0100200E0100201201002055
:102EC0001001002018010020200100202401002012
:102ED00001205C49096881F84000202059490968AF
:102EE00081F841000222574801684031402001F03A
:102EF000A7F998205349096881F8350051480068BE
:102F000090F83510352001F093F9032000F0F8F81F
:102F100008204D49087000204C4908708CE001F0F1
:102F2000B5F801282ED14748006890F8300000F02D
:102F30008000802803D10121454801F0A1F94448CF
:102F40000088002808DD42480088402804DC40480A
:102F500000784049087002E020203E4908703D4852
:102F600001783D4801F08CF93848007839490978F2
:102F70000844364908703948006839490860092012
:102F80003149087058E001F06DF870BB3048008896
:102F90002E490978401A2F49097888420FDD2E49B9
:102FA0002A4A127888182B49097801F069F92748CC
:102FB00000782849097808442449087015E0244A13
:102FC0001278224B1B78D21AD1B2234A1F4B1B789E
:102FD000D01801F055F91E4800781C490978401AAC
:102FE0001A49097808441949087001F031F8012894
:102FF00009D11A4800681A4908600A201249087065
:10300000012000F07DF81548006815490968401A4C
:10301000B0F57A7F02D90B200B4908700CE0002034
:10302000094908700420089006E00020064908704D
:103030000520089000E000BF00BF089809B0BDE877
:10304000F08F0000FC00002001010020130100208F
:103050003001002000010020A0170020980100206E
:10306000340100202DE9F0470222104801681B318D
:103070001B2000F0CBFF0D490968097F0B4A12683D
:10308000D27E41EA0220FDF7A9FA8046FDF7C4FA94
:103090008246FDF7A3FA06460022054BFDF7B8F974
:1030A0000446FDF7B9FABDE8F0870000FC000020F7
:1030B000A8CB484070B50A4801681131112000F0D2
:1030C0009BFF07490968487CFDF799FA04460022EE
:1030D0004FF08043FDF70EFA81F0004170BD000013
:1030E000FC00002010B5054801680C310C2000F0F0
:1030F00083FF02480068007B400910BDFC000020EF
:1031000070B50446002514480068407820F0F800A7
:10311000124908700846007884421CD0032C01D163
:10312000012500E000250E480078854204D00C48B7
:103130000570284601F0ADF807480068407800F0B7
:10314000F800204304490968487003480068417842
:10315000012001F06DF870BDFC0000203801002056
:10316000390100200149087070470000010100206A
:1031700070B504460D46054805800288214604487E
:10318000FDF71AF807200349087070BD30010020D0
:10319000A01700200101002070B504460D46064826
:1031A000007820B929462046FFF760FC03E0294655
:1031B000204600F095F870BDDD0000201CB51648D3
:1031C000164908601649086000F040F800F077FFE3
:1031D00001A9062000F010FF6946422000F00CFF14
:1031E0000CE010A001F032FE022312A20321002005
:1031F000FEF7A2FF4FF4FA6002F0B0FA9DF8040067
:103200006C28EED10120104908700846007800F0C3
:1032100065FF00F079F81CBD30170020FC0000208D
:103220005801002048617264205350492045727251
:10323000210D0A005246204D6F64756C6520457261
:10324000726F722100000000DD00002008B501212E
:103250001D20FFF77FF910208DF8030003208DF863
:10326000020001F01BFA04208DF80300C002ADF843
:10327000000069461448FEF76DFA4FF48040ADF83F
:10328000000069461048FEF765FA4FF40040ADF8BB
:10329000000069460C48FEF75DFA0120ADF8000019
:1032A00069460A48FEF756FA0220ADF80000694662
:1032B0000648FEF74FFA1020ADF8000069460448B2
:1032C000FEF748FA08BD0000001001400008014068
:1032D000000C014001480078704700005C010020AC
:1032E00070B505460C460648008820800020044939
:1032F0000880228803492846FCF75EFF70BD000065
:103300005E010020A018002010B500202D49087093
:1033100000F0D8FB6F222C49012000F077FE20201E
:103320002A49096808736F222749012000F088FFA5
:103330002749086800F012FD2549887900F0E0FD72
:103340002349C87900F0C8FB2149087A00F0B6FC8F
:103350001F49487900F0B6FD1D49487A00F0DCFBB2
:1033600040F2FF3000F0FAFD1949087E00F0C6FC7B
:10337000012000F0EFFB102000F0D4FC144800689E
:10338000144988420DD9802000F052FC012000F041
:1033900069FC14200E49087191F9040000F00AFD3F
:1033A0000CE0002000F044FC002000F05BFC0E204C
:1033B0000749087191F9040000F0FCFC012000F0BD
:1033C00005FC10BD5C0100203117002058010020D1
:1033D0003C0100200057A6162DE9F04F85B00120D2
:1033E0000490FE4800780B2874D2DFE800F006074E
:1033F00074CCFEFDFCFB73FAF90041E3012000F000
:10340000E5FB9D20F64909684874F5480068417C51
:10341000112000F00DFFF348C07A012816D1F148C1
:10342000007BEF49096881F82400ED4801681C31F0
:103430001C2000F0E1FDEA490968097F01F03F0125
:10344000E94A52F8210000F089FC04E0FF20E44939
:10345000096881F82400E248006890F824102420CC
:1034600000F0E6FE0020DE49096881F83F00DC49F3
:10347000096881F840000222D94801683F314020A4
:1034800000F0DEFED748807A012803D1062000F044
:103490009DFB0EE0D2480068C07BD14909684873A3
:1034A000CF480068417B0D2000F0C2FE052000F0EF
:1034B0008DFB4FF48071CD48FCF797FEC9484069F9
:1034C000CB490860CB480068CB4908600220C3495B
:1034D0000870D5E2D3E200F0BBFD01281ED1C5483B
:1034E0000068C5490860BF48C07A01280FD1BC48B0
:1034F00001681C311C2000F07FFDB9490968097F73
:1035000001F03F01B84A52F8210000F027FC4021A9
:10351000122000F08DFE0320B049087000F0ACFDD1
:1035200001281FD1B3480068B3490860AD48C07A8C
:1035300001280FD1AA4801681C311C2000F05CFD55
:10354000A7490968097F01F03F01A74A52F8210005
:1035500000F004FC0221122000F06AFE00F0A4FA40
:10356000A64908709F48807A01280BD1A1480068BD
:10357000A1490968401A9E490968884202D9042075
:10358000964908707CE2964801681231122000F0DA
:1035900033FD93480068807C00F0200020280ED185
:1035A0002021122000F044FE8E48807A012802D1AA
:1035B0008A49087002E002208849087060E203A985
:1035C000192000F019FD9DF80C0000F08000A0B15A
:1035D0009DF80C00C043401CC0F38500884905E0FD
:1035E00031E20CE202E2D9E15EE157E108700846FF
:1035F0000078404240B2087004E09DF80C0080085A
:103600007F490870774800687E4988424ED27C48DE
:1036100090F9000000282ADA794890F90000FCF7B8
:10362000DDFF82468B466F484079774901EBC00049
:1036300003C802460B46CDE9000100207349FCF7A0
:10364000E7FE0022724BCDE90201FCF73AFE064686
:103650000022704BFCF735FE044652465B46FCF7F1
:1036600030FE8046FDF73CF86B4908606BE05C4833
:1036700001681A311A2000F0BFFC59490968887E98
:10368000FCF7BDFF8046894656484079634901EB07
:10369000C000D0E90063324640464946FCF711FEBF
:1036A0000446FDF71DF85C4908604CE0544890F969
:1036B0000000002829DA524890F90000FCF78EFF3C
:1036C00080468946474840794F4901EBC001D1E91E
:1036D0000063324600204D49FCF79AFE0446002262
:1036E0004B4BFCF7EEFD00224D4BCDE90001FCF702
:1036F000E8FD42464B46CDE90201FCF7E2FD824679
:10370000FCF7EEFF444908601DE0354801681A31B6
:103710001A2000F071FC32490968887EFCF76FFFBF
:10372000804689462F4840793E4901EBC000D0E9E8
:103730000063324640464946FCF7C3FD0446FCF7A9
:10374000CFFF354908602748807A01282FD12448C7
:103750000068C07B22490968487321480068417BA2
:103760000D2000F065FD1F48407A01280DD11C484E
:10377000006890F822002C4908801948006890F8E9
:1037800022101A4800F092FC7BE0154801681331C2
:10379000132000F031FC12480068C07C22490880E8
:1037A0000F480068C17C114800F080FC69E00C48BB
:1037B00001681031102000F01FFC0A48407A0128EF
:1037C00042D10748006890F8220017490880044851
:1037D0000068007C02490968487327E05C0100200A
:1037E000580100203C01002010820008A018002091
:1037F00070010020980100206C0100206801002069
:1038000060010020008F4233208100080000244026
:1038100000C065C0000010406401002070810008F5
:1038200000001840C08100085E0100209748006831
:10383000417B0D2000F0FCFC9448006890F82210B9
:10384000934800F033FC1CE09048016813311320CA
:1038500000F0D2FB8D480068C07C8E4908808B4800
:103860000068007C89490968487388480068417B82
:103870000D2000F0DDFC85480068C17C844800F024
:1038800015FC8548807A012802D18449087002E03D
:1038900002208249087002200490F1E001207F4953
:1038A000087003200490EBE0012000F08FF97A48C3
:1038B000C07A01281AD1F5207449096848747648FD
:1038C000007B7249096881F82400704801681C3146
:1038D0001C2000F091FB6D490968097F01F03F0150
:1038E0006F4A52F8210000F039FA08E0F7206749E2
:1038F0000968487400206549096881F82400634814
:10390000006890F82410242000F092FC5F480068C2
:10391000417C112000F08CFC624800785B4909680A
:1039200081F822005948006890F82210222000F007
:103930007FFC002055490968887354480068817BE2
:103940000E2000F075FC51480068807B4F490968E3
:1039500048734E480068417B0D2000F069FC4B48DD
:10396000006890F822104A4800F08AFC412047493C
:10397000096881F83F0040204449096881F8400007
:103980000222424801683F31402000F059FC0320E8
:1039900000F01CF906204149087071E000F058FB66
:1039A000012806D10821122000F042FC07203B49E3
:1039B000087000F061FB012817D13748C07A012850
:1039C0000FD1324801681C311C2000F015FB2F4933
:1039D0000968097F01F03F01314A52F8210000F0E7
:1039E000BDF90221122000F023FC49E0012000F083
:1039F000EDF80020294908700420049040E00120DF
:103A000000F0E4F8FA202149096848741F4800686A
:103A1000417C112000F00CFC00201C49096881F851
:103A20003F001A49096881F84000022217480168DE
:103A30003F31402000F004FC072000F0C7F80A20C6
:103A4000164908701CE000F021FB012816D1042162
:103A5000122000F0EDFB00F021FB012809D101212B
:103A6000122000F0E5FB01200C49087008200490AA
:103A700004E00020094908700720049000E000BF1E
:103A800000BF049805B0BDE8F08F00005801002089
:103A9000A01800205E0100203C0100205C010020F5
:103AA000108200087401002010B5054801680C312F
:103AB0000C2000F0A1FA02480068007B400910BD0C
:103AC0005801002010B5034801684131422000F040
:103AD00093FA10BD5801002010B504460C48016847
:103AE0001D311D2000F088FA09480068407F00F071
:103AF000F10040EA44000649096848770448006834
:103B0000417F1D2000F094FB0248C47110BD0000ED
:103B1000580100203C01002010B504460B48016804
:103B20001D311D2000F068FA08480068407F00F051
:103B3000FE00204305490968487704480068417F32
:103B40001D2000F075FB0248447210BD5801002092
:103B50003C01002010B504460C480168263126209F
:103B600000F04AFA0948006890F8260000F0F700D3
:103B700040EAC4000549096881F826000348006846
:103B800090F82610262000F053FB10BD58010020AD
:103B900010B504460C4801683031312000F02CFA91
:103BA0000948006890F8300000F0F800204306490A
:103BB000096881F830000448006890F8301031201E
:103BC00000F036FB10BD00005801002070B504461F
:103BD000002514480068407820F0F8001249087069
:103BE0000846007884421CD0032C01D1012500E056
:103BF00000250E480078854204D00C480570284600
:103C000000F047FB07480068407800F0F8002043C8
:103C1000044909684870034800684178012000F0B1
:103C200007FB70BD580100207601002077010020BD
:103C300010B504460A4801680931092000F0DCF992
:103C400007480068407A00F07F0020430449096873
:103C5000487203480068417A092000F0E9FA10BD73
:103C60005801002010B50446134801684C314D201E
:103C700000F0C2F9104801680931092000F0BCF9D0
:103C80000D480068407A00F08000802807D1012CA0
:103C90000AD187200849096881F84C0004E0842093
:103CA0000549096881F84C000348006890F84C10F9
:103CB0004D2000F0BDFA10BD5801002010B504469B
:103CC0000C4801681E311E2000F096F90948006872
:103CD000807F00F0FB0040EA84000649096888778D
:103CE00004480068817F1E2000F0A2FA0248047296
:103CF00010BD0000580100203C01002010B5044612
:103D00000648006880F822400448006890F82210B5
:103D1000222000F08DFA0248047610BD58010020E0
:103D20003C01002010B5044602220B4801682031F6
:103D3000202000F06BF9200A0749096881F820006B
:103D40000549096881F821400222034801682031B1
:103D5000202000F075FA10BD580100202DE9F04137
:103D60000446114804602046FCF749FC0546002241
:103D70000E4BFCF7BFFB0746FCF76DFC0446200C1E
:103D80000B4909688871200A09490968C8710849FE
:103D900009680C72032206480168891D062000F09C
:103DA0004FFABDE8F08100003C01002080844E40C5
:103DB0005801002010B504463D480168093109202A
:103DC00000F01AF93A4801684C314D2000F014F91E
:103DD00037480068407A00F08000802841D134489C
:103DE000006890F84C0000F0870087281CD1052C53
:103DF00000DA0524142C00DD14242D480068407AD4
:103E000000F08F0040F07000294909684872284886
:103E10000068407A00F0F000611F01F00F010843D4
:103E20002349096848723AE0022C00DA0224112C76
:103E300000DD11241E480068407A00F08F0040F039
:103E400070001B490968487219480068407A00F000
:103E5000F000A11E01F00F010843154909684872DE
:103E60001DE0B4F1FF3F01DA4FF0FF340E2C00DD0E
:103E70000E240F480068407A00F08F0040F0700078
:103E80000B49096848720A480068407A00F0F0005F
:103E9000611C01F00F010843054909684872044894
:103EA0000068417A092000F0C3F90248047110BD8E
:103EB000580100203C0100200149087070470000B3
:103EC0005C01002010B504460B4801681D311D201F
:103ED00000F092F808480068407F64F31F1006491C
:103EE0000968487704480068417F1D2000F0A0F968
:103EF0000248447110BD0000580100203C01002020
:103F000010B504460C2C01DD0C2402E0062C00DA6E
:103F10000624062C03D10520FFF73AFE02E0032019
:103F2000FFF736FE0B4801681E311E2000F064F8D2
:103F300008480068807F64F31F1006490968887785
:103F400004480068817F1E2000F072F902488471E5
:103F500010BD0000580100203C01002010B50446AF
:103F600002220F4801681E311E2000F04FF80C4855
:103F70000068807F00F0FC006FF0FC0101EA242162
:103F8000084307490968887705490968CC77022200
:103F9000034801681E311E2000F052F910BD0000D8
:103FA0005801002070B504460D460948C07A10B982
:103FB0000848058002E0FF2006490880054802887D
:103FC00021460548FCF7F8F805200449087070BD43
:103FD0003C01002074010020A01800205C0100209A
:103FE00010B50448007810B9FEF754FD10BDFFF776
:103FF000F3F9FBE7DD00002070B504460D46012211
:104000002946204600F002F870BD00002DE9F0417D
:1040100005460E461746002210210C48FDF77BFC92
:1040200005F07F0000F056FB002405E0002000F0C2
:1040300051FB3055601CC4B2BC42F7DB0122102199
:104040000248FDF768FCBDE8F0810000000801406F
:1040500010B54FF400510248FDF750FC10BD0000B0
:104060000010014010B54FF480410248FDF746FCB6
:1040700010BD00000010014010B54FF4004102488F
:10408000FDF73CFC10BD00000010014010B50121FF
:104090000148FDF733FC10BD0008014010B50221B6
:1040A0000148FDF72BFC10BD0008014070B5044627
:1040B0000D462A4621460020FFF7A8FF70BD10B527
:1040C000012000F069F80A2001F048FB002000F010
:1040D00063F80A2001F042FB10BD000010B5044651
:1040E00029480078A04200D110BD27480470274815
:1040F0000470007801282BD10020FFF767FD2448C9
:104100000068407800F07F0040F080002049096896
:1041100048701F4800684178012000F089F80120AC
:10412000FFF754FD00201A49096881F83F0018493B
:10413000096881F840000222154801683F3140209B
:1041400000F07EF86F2213490120FFF75FFF18E0AF
:104150000020FFF73BFD0E480068407800F07F002C
:104160000B49096848700A4800684178012000F04E
:104170005FF80120FFF72AFD6F2206490120FFF7B3
:1041800045FF00BFB0E70000DE000020DD0000209A
:10419000580100203117002038B50446012C12D1F7
:1041A0002020ADF8000003208DF8020010208DF8CB
:1041B000030069460D48FDF7CDFA002220210B4887
:1041C000FDF7A9FB11E02020ADF8000003208DF8D9
:1041D000020010208DF8030069460448FDF7BAFA82
:1041E000012220210148FDF796FB38BD000C01405B
:1041F00070B504460D460648007820B92946204689
:10420000FEF7B6FF03E029462046FFF7CBFE70BD60
:10421000DD00002010B50548007818B90120FEF730
:10422000A1FF02E00120FFF747FE10BDDD000020E6
:1042300013B50446012201A9204600F001F81CBD77
:104240002DE9F04105460E461746002210210B4885
:10425000FDF761FB45F0800000F03CFA002404E02B
:10426000305D00F037FA601CC4B2BC42F8DB0122BA
:1042700010210248FDF74FFBBDE8F0810008014026
:1042800070B504460D462A4621460020FFF7D8FFA8
:1042900070BD10B5044614B100F00EFA01E000F054
:1042A000FDF910BD2DE9FF4F8BB092461A9C5820A6
:1042B00003904FF0000904A80290FF208DF8100031
:1042C0001C9850B90B980168CDF811104168CDF8D1
:1042D0001510007A8DF819001AE01C9801280ED1EB
:1042E0000B980068CDF81100042505E030210DF190
:1042F00011004155681CC5B2092DF7DB08E0002507
:1043000004E00DF111004555681CC5B2092DF8DB1C
:104310000C98CDF81A00CDF81EA0DDE91801FCF7C5
:104320007BF900B2ADF823000E988DF82200ADF8AD
:1043300025401B98ADF82700002506E00298401C98
:10434000405D80EA0909681CC5B2182DF6D38DF8C6
:104350002990F0208DF82A001B220120029902F0FA
:10436000C1FE012002F062FE1B220020029902F031
:10437000B9FE002002F05AFE2046E11704EBD1619D
:104380004911A4EB41118E4A02EB41118DA2138811
:104390000B8092788A70E11704EBD1614911A4EB8C
:1043A0004111874A02EB4111DDF8112041F8032F3A
:1043B000DDF815204A609DF819200A72E21704EB17
:1043C000D2625211A4EB42127D4B03EB42120C99C4
:1043D000D160E11704EBD1614911A4EB41111A46F8
:1043E00002EB4111C1F810A0E21704EBD2625211A6
:1043F000A4EB421203EB42120E991175DDE918018C
:10440000FCF70AF900B2A346E11704EBD1614911A8
:10441000A4EB41116A4A02EB4111A1F815002046B4
:10442000E11704EBD1614911A4EB411102EB4111F9
:10443000A1F81740E21704EBD2625211A4EB42122A
:104440005F4B03EB42121B99A2F819105E490968F1
:10445000E21704EBD2625211A4EB421203EB4212B8
:10446000C2F81B104FF00009E11704EBD1614911AC
:10447000A4EB41111A4602EB41110191002505E020
:104480000198405D80EA0909681CC5B21F2DF7D369
:104490002046E11704EBD1614911A4EB4111484AD0
:1044A00002EB411181F81F9048480078002840D164
:1044B000022002F007FF8046012002F003FF0646BB
:1044C000A346E01704EBD0604011A4EB40103C4B36
:1044D00003EB4011D8F809202023012002F0FAFE56
:1044E00007463FBBC82001F039F9E01704EBD06064
:1044F0004011A4EB4010324B03EB4011D8F80920D7
:104500002023012002F0E6FE0746002F54D14FF48D
:1045100000612F48FDF7FDF9C82001F01FF94FF4A5
:1045200000612B48FDF7F3F92A480088401C29490F
:10453000088041E0D8F809002030C8F80900D6F812
:104540000920012303A9184602F0C4FE0746FFB95B
:10455000C82001F003F9D6F80920012303A9184661
:1045600002F0B8FE07463FBB4FF400611848FDF764
:10457000D0F94FF47A7001F0F1F84FF4006114486B
:10458000FDF7C5F913480088401C1249088013E064
:10459000761CB068401CB060B16856F8010900F59F
:1045A0008050814208D102230BA204210020FDF794
:1045B000C3FD0120054908700FB0BDE8F08F000071
:1045C0006C02002046514800080000203400002002
:1045D0000008014032000020466C6173682053746B
:1045E0006F726167652046756C6C210010B500F034
:1045F00001F810BD0CB5002001900090254800681E
:1046000040F480302349086000BF2248006800F46D
:10461000003000900198401C0190009818B9019852
:10462000B0F5A06FF1D11B48006800F4003010B164
:104630000120009001E0002000900098012828D17E
:104640001548006840F010001349086008460068EB
:1046500020F0030008600846006808600D484068C4
:104660000C49486008464068486008464068486011
:104670000846406820F0030048600846406840F063
:104680000100486000BF0348406800F00C000428A7
:10469000F9D10CBD001002400020024010B50121EC
:1046A0000448FDF736F94FF400710248FDF72FF981
:1046B00010BD0000000C014010B501210448FDF7B9
:1046C00026F94FF400710248FDF723F910BD0000F0
:1046D000000C014010B5044600BF02210A48FEF755
:1046E00067F90028F9D021460748FEF76DF900BFA9
:1046F00001210548FEF75CF90028F9D00248FEF7D1
:1047000060F9C0B210BD00000030014000B587B0B4
:10471000012141F20500FDF71DFF03208DF8060081
:1047200018208DF80700E020ADF8040001A91D480D
:10473000FDF710F810208DF8070003208DF8060013
:104740001020ADF8040001A91648FDF703F8012276
:1047500010211448FDF7DFF80020ADF808004FF4F1
:104760008270ADF80A000020ADF80C00ADF80E0024
:10477000ADF810004FF40070ADF812001020ADF845
:1047800014000020ADF816000720ADF8180002A9AB
:104790000548FEF71BF901210348FEF7FDF807B0B5
:1047A00000BD0000000801400030014010B500F0DD
:1047B00009F803480068401C0149086010BD00006A
:1047C0009801002010B5002406E0174901EBC40051
:1047D00001F01EF8601CC4B2042CF6DB134800681C
:1047E000401C12490860084600686FF0004188428A
:1047F00002D100200D4908600D480068401C0C499A
:104800000860B0F57A7F0BD3002008600948006883
:10481000401C0849086008480068401C06490860B8
:10482000FCF7E8FA10BD00009406002058000020B4
:10483000600000202C0000200800002010B5134864
:10484000006840F0010011490860084640681049BE
:1048500008400E494860084600680E4908400B4968
:1048600008600846006820F4802008600846406818
:1048700020F4FE0048604FF41F008860FFF7B6FE8A
:104880004FF000600449086010BD000000100240B5
:104890000000FFF8FFFFF6FE08ED00E03EB504461D
:1048A00001210846FDF736FE0120ADF8040024B9C9
:1048B00041F61F40ADF8000016E0012C04D140F293
:1048C000CF20ADF800000FE0022C09D10C480068A1
:1048D0000C49B0FBF1F0401E80B2ADF8000003E0DF
:1048E00041F61F40ADF800000020ADF80600102092
:1048F000ADF802006946800600F032F83EBD0000C7
:10490000A801002040420F0070B50446A5B2012165
:10491000880700F013F829464FF0804000F01DF89A
:1049200004E04FF0804000F015F80546012DF8DC5A
:1049300000214FF0804000F001F870BD21B10288E5
:1049400042F00102028004E002884FF6FE731A4032
:10495000028070470146888C704781847047000050
:10496000002202881D4B98420ED01D4B98420BD05E
:10497000B0F1804F08D01B4B984205D01A4B98429B
:1049800002D01A4B984204D14FF68F731A404B88CD
:104990001A43174B984207D0164B984204D04FF653
:1049A000FF431A40CB881A4302808B8883850B888B
:1049B00003850A4B98420BD0094B984208D00E4B06
:1049C000984205D00D4B984202D00D4B984201D130
:1049D0000B7A03860123838270470000002C01407C
:1049E000003401400004004000080040000C00407A
:1049F000001000400014004000400140004401400D
:104A00000048014070B504460D460BE02178084887
:104A100000F007FA00BF4021054800F034F90028F3
:104A2000F9D0641C2800A5F10101CDB2EED170BD12
:104A30000038014000B587B0012144F20400FDF7C1
:104A400089FD4FF40070ADF8180018208DF81B0098
:104A500003208DF81A0006A92048FCF77BFE4FF4CE
:104A60008060ADF8180004208DF81B0006A91B48D3
:104A7000FCF770FE25208DF8140000208DF815003D
:104A80008DF8160001208DF8170005A8FDF794F9A0
:104A90004FF4E13001900020ADF80800ADF80A00B5
:104AA000ADF80C00ADF810000C20ADF80E0001A917
:104AB0000B4800F045F9012240F22551084800F06A
:104AC00019F90121064800F0D2F8142000F046FE42
:104AD0004021034800F0C2F807B000BD00080140C3
:104AE0000038014010B540F22551194800F0D8F8BF
:104AF00068B3174800F090F9C4B22146002002F0D4
:104B000017FA14480078002804DD12480078401C89
:104B1000104908700D2C06D10F4804700D4800781C
:104B2000401C0C4908700B48007802280FD10A4835
:104B30004470002007490870074800780D2806D106
:104B4000054840780A2802D101200449087010BDA8
:104B5000003801405600002054000020CE00002004
:104B600000B587B001210420FDF7F4FC01214804C1
:104B7000FDF7D0FC0420ADF8180018208DF81B00BC
:104B800003208DF81A0006A92048FCF7E3FD082051
:104B9000ADF8180004208DF81B0006A91B48FCF78F
:104BA000D9FD26208DF8140000208DF81500012075
:104BB0008DF816008DF8170005A8FDF7FDF84FF4E5
:104BC000E13001900020ADF80800ADF80A00ADF822
:104BD0000C00ADF810000C20ADF80E0001A90C4837
:104BE00000F0AEF8012240F22551094800F082F8A9
:104BF0000121074800F03BF8142000F0AFFD4021F0
:104C0000034800F02BF807B000BD00000008014089
:104C10000044004010B540F22551064800F040F82D
:104C200038B1044800F0F8F8C4B22146012002F07F
:104C30007FF910BD0044004010B540F225510648F0
:104C400000F02EF838B1044800F0E6F8C4B221466E
:104C5000022002F06DF910BD0048004001F400721E
:104C6000B2F5007F00D100BFCA430280704721B176
:104C7000828942F40052828104E082894DF6FF73FA
:104C80001A408281704702460020B1F5007F00D1B2
:104C900000BF13880B400BB1012000E000207047DB
:104CA00070B50246002400230025002040F66A1655
:104CB000B14200D100BFC1F3421501F01F0301262C
:104CC00006FA03F3012D02D19689334006E0022D46
:104CD00002D1168A334001E0968A33400C12012635
:104CE00006FA04F41688344013B10CB1012000E038
:104CF000002070BDF0B503460024002600250020EA
:104D000040F66A17B94200D100BF1846C1F34214F9
:104D100001F01F06012707FA06F5012C01D10C301E
:104D200004E0022C01D1103000E014301AB1076801
:104D30002F43076002E00768AF430760F0BD000043
:104D40002DE9F04786B005460E460024A24600BF76
:104D5000A1460027B08900B100BF2F462C8A4CF62F
:104D6000FF700440F08804432C82AC894EF6F310A7
:104D70000440B08831890843718908430443AC81F9
:104D8000AC8A4FF6FF400440B0890443AC8201A8CE
:104D9000FDF7F0FB1F48874202D1DDF810A001E0CB
:104DA000DDF80CA0A88900F4004040B10AEBCA006D
:104DB00000EB0A1031684900B0FBF1F807E00AEB9C
:104DC000CA0000EB0A1031688900B0FBF1F86420DA
:104DD000B8FBF0F004012009642101FB1089A889C7
:104DE00000F4004040B1322000EBC900B0FBF1F00C
:104DF00000F00700044308E0322000EB09106421B2
:104E0000B0FBF1F000F00F0004432C8106B0BDE8C8
:104E1000F08700000038014001468888C0F3080090
:104E20007047C1F308028280704700BFFEE710B5EB
:104E3000044621460020FCF753FF10BD10B5044680
:104E400021464020FCF74CFF10BD00000FB4054B7D
:104E500010B503A9044A029800F0E4F810BC5DF80C
:104E600014FB0000355B0008D00100200FB4084B94
:104E700010B504A902AA039800F0D4F8044602A9C8
:104E8000002000F066FC204610BC5DF814FB00001A
:104E90005357000800487047DC01002002E008C8B2
:104EA000121F08C1002AFAD170477047002001E0A4
:104EB00001C1121F002AFBD1704780F31088704790
:104EC0002DE9FF5FDDE90220010DDDF838B0024376
:104ED00018D044F61050A1F2FF3141430D140F9841
:104EE000012820D0A5EB0B00401C5FEA000A4FF020
:104EF0000004474EDFF81C91A046504616D5CAF173
:104F0000000728E00F98012443A2012808D00021BF
:104F100000980F9BC0E90021C0E90243BDE8FF9F54
:104F20006FEA0B01F4E7CBF10000DEE7074612E081
:104F3000F80707D02246334640464946FBF768FA51
:104F4000804689462246334610461946FBF760FAEA
:104F500004460E467F10002FEAD1DDE90201BAF1C6
:104F6000000F42464B4602DAFBF752FA01E0FBF72C
:104F7000C1FA04460E460022284BFBF76DFD03D80C
:104F80004FF0FF30014607E00022254B2046314616
:104F9000FBF797F9FBF748FD102409E0002C0ADB2A
:104FA0000A220023FBF7CEFB019B30321A55641E08
:104FB00050EA0102F2D1641C019AC4F111031444B5
:104FC0000F9A012A03D0012208430DD10AE00843B9
:104FD00004D000204FF0110B0F9080E7A3EB0B05DE
:104FE0006D1E0DE05B4504DD4FF0000205F101058B
:104FF00004E003DA4FF00002A5F10105002AECD02D
:1050000000980F99C0E90231C0E9004586E7000029
:10501000000024400000F03F300000000000F0439A
:105020000000E03F2DE9FF4F95B09B4689460646BC
:1050300000250FE2252877D100242746F84A0121D0
:10504000059400E0044316F8013F203B01FA03F009
:105050001042F7D130782A2811D06FF02F03307822
:10506000A0F13002092A16D8059A44F0020402EB96
:10507000820203EB42021044761C0590EFE759F8D8
:10508000042B0592002A03DA504244F400540590A0
:1050900044F00204761C30782E2816D116F8010F41
:1050A00044F004042A280DD06FF02F023078A0F1CC
:1050B0003003092B09D807EB870302EB4303C7181A
:1050C000761CF3E759F8047B761C30786C280FD0F7
:1050D00006DC4C2817D068280DD06A2814D104E0CB
:1050E000742810D07A280FD10DE044F400140AE09F
:1050F00044F4801401E044F440147278824202D1F6
:1051000004F58014761C761C307866280BD013DCEE
:10511000582877D009DC002875D04528F6D04628D5
:10512000F4D047281AD19DE118E0632835D06428CF
:1051300079D0652812D195E1702873D008DC6728F2
:10514000F1D069286FD06E280DD06F2806D1B5E058
:1051500073282CD0752875D0782874D05A461799A2
:1051600090476D1C75E1C4F30250022809D0032852
:105170000DD0D9F8001004280DD00D6009F10409F4
:1051800067E1D9F80010EA17C1E90052F6E7D9F84B
:1051900000100D80F2E70D70F0E719F8041B8DF890
:1051A000001000208DF80100EA46012003E059F8C4
:1051B00004AB4FF0FF3061074FF0000102D40DE067
:1051C00008F101018846B9420FDA8045F8DB1AF888
:1051D00008100029F4D108E008F101018846814255
:1051E000FADB1AF808100029F6D105985B46A0EB07
:1051F000080721463846179A00F094FA284400EB35
:10520000080507E04DE029E10DE01AF8010B5A46C8
:1052100017999047B8F10108F7D25B462146384606
:10522000179A13E142E00A220092C4F302524FF0AF
:10523000000A022A08D059F804CB032A4FEAEC717D
:105240000AD00DE029E02AE009F1070121F0070268
:10525000F2E802C1914609E00FFA8CFC4FEAEC71CA
:10526000042A03D14FFA8CFC4FEAEC71002907DACB
:105270000A460021DCF1000C61EB02012D2202E064
:10528000220504D52B228DF80420012203E0E20739
:1052900001D02022F7E7904659E00A2102E01022CF
:1052A0000DE010214FF0000A00910BE010224FF0AA
:1052B000000A44F004040827009203E008224FF09B
:1052C000000A0092C4F30252022A05D059F804CB16
:1052D0000021032A08D009E009F1070121F00702A3
:1052E000F2E802C1914605E01FFA8CFC042A01D1C4
:1052F0000CF0FF0C4FF00008220728D5702806D0CC
:10530000009B83F0100353EA0A0305D00EE040220D
:105310008DF80420012208E05CEA010206D0302268
:105320008DF804208DF8050002229046009B83F042
:10533000080353EA0A030AD15CEA010201D16207B9
:1053400005D530228DF804204FF001087F1E582823
:1053500004D034A003900EA802900DE036A0F9E727
:1053600053466046009AFBF7EDF984460398825C49
:105370000298401E029002705CEA0100F0D102988F
:1053800006A9081A00F1200A600702D524F4803427
:1053900000E00127574502DDA7EB0A0000E00020EE
:1053A00000EB0A01009005984144401A0590E00383
:1053B00006D45B462146179A059800F0B3F90544D8
:1053C000002706E001A85A46C05D179990476D1C5A
:1053D0007F1C4745F6DBE0030CD55B462146179A58
:1053E000059800F09FF9054404E030205A461799CB
:1053F00090476D1C0099481E00900029F5DC08E0DC
:10540000029802995A460078491C029117999047D0
:105410006D1CBAF10001AAF1010AF1DC65E100009E
:10542000092801003031323334353637383961627A
:10543000636465660000000030313233343536373E
:1054400038394142434445460000000000F058F915
:105450000544761C307800287FF4ECAD19B028465E
:10546000BDE8F08F620700D4062709F1070222F099
:10547000070CFCE80223E14603F000485FEA080C51
:1054800002D00FF2702C0DE05FEA045C02D50FF23F
:10549000682C07E05FEAC47C02D00FF2602C01E0C8
:1054A000AFF2700C4FF0FF3823F00043CDF850C03E
:1054B00065280CD006DC452809D046281DD0472891
:1054C0003DD13DE0662818D067287ED138E0002124
:1054D000112F01DB112000E0781CCDE9000106A9A5
:1054E0000EA8FFF7EDFCDDE90F010E9A03910021F4
:1054F000009207F1010A04914DE04FF0004000973F
:10550000CDE9011006A90EA8FFF7DAFCDDE90F02CC
:1055100003920E9B11990022DDF80CA000930492D7
:1055200011B9791C00EB010AB7EB0A0004D4C0F1F1
:10553000FF3007F1010A0490AAEB0700019044E054
:10554000012F00DA01270021112F01DD112000E0D9
:105550003846CDE9000106A90EA8FFF7B1FCDDE948
:105560000F010E9A0391002104910092BA4621077F
:105570000CD40399514500DA8A46BAF1010F05DDD2
:10558000009AAAF10101515C302908D0B84202DA30
:1055900010F1040F06DA0121CDE9011015E0AAF19E
:1055A0000101E9E7002805DC049901440491AAEB14
:1055B000000102E0411C514500DD8A460499401A71
:1055C000401C01904FF000400290200704D4019845
:1055D000504501DBCDF8048000208DF84F00029883
:1055E0000DF14F07B0F1004F25D02B200E900298FF
:1055F0004FF0020800280CDA404202902D200E9055
:1056000007E00A210298FBF787F83031029007F88B
:10561000011DB8F10001A8F10108F2DC0298002890
:10562000EFD1791E0E980870307800F0200040F01D
:10563000450007F8020D12A8C01B00F107081498D6
:10564000007800B1012000EB0A01019801EBE07144
:1056500005984144401A401E0590E00306D45B467D
:105660002146179A059800F05DF8054414980078D3
:1056700018B15A46179990476D1CE00324D55B4634
:105680002146179A059800F04DF805441CE004984F
:10569000002807DBDDE90301884203DD0098405C58
:1056A000179901E0179930205A469047049805F160
:1056B0000105401C04900198401E019004D12E2049
:1056C0005A46179990476D1CBAF10001AAF1010AD8
:1056D000DDDC05E017F8010B5A46179990476D1C61
:1056E000B8F10001A8F10108F4DC5B462146179AE5
:1056F0000598ABE62D0000002B0000002000000004
:105700002DE9F041044600251E461746880404D4BE
:1057100005E039462020B0476D1C641EF9D52846A7
:10572000BDE8F0812DE9F041044600251E46904673
:10573000C80301D5302700E02027880404D505E000
:1057400041463846B0476D1C641EF9D52846BDE871
:10575000F0810A68531C0B601070704710B5044646
:10576000012C00D802240120FFF7A7FB07480460A2
:10577000002006490871FFF7A0FB04E00348007908
:10578000012800D100E0F9E700BF10BD9406002019
:1057900070B5002008E00021194A42F8301002EBF1
:1057A000C0021171411CC8B20428F4DB1549096814
:1057B0004FF47A73B1FBF3F2B2F1807F00D31DE0B6
:1057C00022F07F41491E4FF0E023596159170F2302
:1057D000002907DA1C07260E0B4C01F00F052D1FC0
:1057E000665503E01C07250E084C655400BF0021D8
:1057F0004FF0E02399610721196100BF70BD0000DF
:1058000094060020A801002018ED00E000E400E06C
:10581000017939B9016829B10168491E016009B9E6
:1058200001210171704700002DE9F041ADF5825D65
:105830007048007801286FD100206E49087001F08F
:1058400059FB00F0FF08B8F10A0F06DD002001F057
:105850002FFB69A0FFF7FAFA06E0424641F2340155
:105860006944002001F07CFB41F234066E440020C4
:1058700001F01EFBF08840F60D21884279D1308876
:1058800044F62352811A904274D00FDCA0F5864072
:10589000A0F1230000286ED0B0F5007F10D0B0F545
:1058A000407F23D0B0F5106F71D11DE0B1F5A06F2E
:1058B00011D0B1F5E06F18D0B1F5006FF4D187E0E9
:1058C00052A0FFF7C3FA012001F0E2FC5BA0FFF752
:1058D000BDFAFCF7B3FA59A0FFF7B8FA4FF47A70A3
:1058E000FFF73CFFFCF7AAFA79E078E0B01CFAF782
:1058F0009DFC05462A034FF480530DA9012001F0B9
:10590000D2FC022D48D321D1584800885849098833
:105910000844802809DD00E068E056A0FFF796FA09
:1059200080210DA8FBF78EFC50E050480088504ABB
:105930001288811859A0FFF789FA4C4800884C4A10
:10594000128881180DA8FBF77DFC3FE047480088CE
:10595000474909880144A81EA1EBC01007B2802F57
:105960000ADD53A0FFF772FA80210DA8FBF76AFC4D
:105970002CE035E02BE02CE0002F09DD394647A074
:10598000FFF764FA39460DA8FBF75CFC1EE021E046
:1059900050A0FFF75BFA19E0002414E00DA8015DA8
:1059A00053A0FFF753FA601CC11700EB11710911E6
:1059B000A0EB011129B9002C03DD611C4EA0FFF7FB
:1059C00045FA601C84B2B4F5805FE7DB07E006E0CF
:1059D00005E004E031884AA0FFF738FA00BF05E08F
:1059E00050A0FFF733FA002001F062FA0DF5825D56
:1059F000BDE8F081CE000020636D642062756620F2
:105A00006F766572666C6F77210D0A00646562754A
:105A100067436D6448616E646C65723A20457261DB
:105A2000736564207468652065787465726E616C56
:105A300020666C6173680D0A000000006465627581
:105A400067436D6448616E646C65723A2052657399
:105A50006574204350552C2077616974696E672006
:105A60002E2E2E2E2E2E2E0D0A000000300000208D
:105A700036000020486973746F72795258436E740F
:105A80003E3132382E446973706C617920526563FF
:105A90006F72643A3132380D0A0000004469737045
:105AA0006C6179205265636F72643A25640D0A0057
:105AB00052656D61696E436E743E3132382E4469B1
:105AC00073706C6179205265636F72643A31323859
:105AD0000D0A00005468697320736563746F722047
